{
  "_format": "hh-sol-artifact-1",
  "contractName": "Tokenize",
  "sourceName": "contracts/Tokenize.sol",
  "abi": [
    {
      "inputs": [],
      "stateMutability": "nonpayable",
      "type": "constructor"
    },
    {
      "anonymous": false,
      "inputs": [
        {
          "indexed": true,
          "internalType": "address",
          "name": "account",
          "type": "address"
        },
        {
          "indexed": true,
          "internalType": "address",
          "name": "operator",
          "type": "address"
        },
        {
          "indexed": false,
          "internalType": "bool",
          "name": "approved",
          "type": "bool"
        }
      ],
      "name": "ApprovalForAll",
      "type": "event"
    },
    {
      "anonymous": false,
      "inputs": [
        {
          "indexed": true,
          "internalType": "address",
          "name": "previousOwner",
          "type": "address"
        },
        {
          "indexed": true,
          "internalType": "address",
          "name": "newOwner",
          "type": "address"
        }
      ],
      "name": "OwnershipTransferred",
      "type": "event"
    },
    {
      "anonymous": false,
      "inputs": [
        {
          "indexed": false,
          "internalType": "address",
          "name": "to",
          "type": "address"
        },
        {
          "indexed": false,
          "internalType": "uint256",
          "name": "tokenId",
          "type": "uint256"
        },
        {
          "indexed": false,
          "internalType": "uint256",
          "name": "amount",
          "type": "uint256"
        }
      ],
      "name": "TokenMinted",
      "type": "event"
    },
    {
      "anonymous": false,
      "inputs": [
        {
          "indexed": true,
          "internalType": "address",
          "name": "operator",
          "type": "address"
        },
        {
          "indexed": true,
          "internalType": "address",
          "name": "from",
          "type": "address"
        },
        {
          "indexed": true,
          "internalType": "address",
          "name": "to",
          "type": "address"
        },
        {
          "indexed": false,
          "internalType": "uint256[]",
          "name": "ids",
          "type": "uint256[]"
        },
        {
          "indexed": false,
          "internalType": "uint256[]",
          "name": "values",
          "type": "uint256[]"
        }
      ],
      "name": "TransferBatch",
      "type": "event"
    },
    {
      "anonymous": false,
      "inputs": [
        {
          "indexed": true,
          "internalType": "address",
          "name": "operator",
          "type": "address"
        },
        {
          "indexed": true,
          "internalType": "address",
          "name": "from",
          "type": "address"
        },
        {
          "indexed": true,
          "internalType": "address",
          "name": "to",
          "type": "address"
        },
        {
          "indexed": false,
          "internalType": "uint256",
          "name": "id",
          "type": "uint256"
        },
        {
          "indexed": false,
          "internalType": "uint256",
          "name": "value",
          "type": "uint256"
        }
      ],
      "name": "TransferSingle",
      "type": "event"
    },
    {
      "anonymous": false,
      "inputs": [
        {
          "indexed": false,
          "internalType": "string",
          "name": "value",
          "type": "string"
        },
        {
          "indexed": true,
          "internalType": "uint256",
          "name": "id",
          "type": "uint256"
        }
      ],
      "name": "URI",
      "type": "event"
    },
    {
      "inputs": [
        {
          "internalType": "uint256",
          "name": "",
          "type": "uint256"
        }
      ],
      "name": "_gfvTokens",
      "outputs": [
        {
          "internalType": "bool",
          "name": "exists",
          "type": "bool"
        },
        {
          "internalType": "string",
          "name": "tokenName",
          "type": "string"
        },
        {
          "internalType": "uint256",
          "name": "totalSupply",
          "type": "uint256"
        },
        {
          "internalType": "uint256",
          "name": "sharePrice",
          "type": "uint256"
        },
        {
          "internalType": "string",
          "name": "tokenURI",
          "type": "string"
        }
      ],
      "stateMutability": "view",
      "type": "function"
    },
    {
      "inputs": [
        {
          "internalType": "address",
          "name": "_to",
          "type": "address"
        },
        {
          "internalType": "uint256",
          "name": "_tokenId",
          "type": "uint256"
        },
        {
          "internalType": "uint256",
          "name": "_amount",
          "type": "uint256"
        }
      ],
      "name": "_mintToken",
      "outputs": [],
      "stateMutability": "nonpayable",
      "type": "function"
    },
    {
      "inputs": [
        {
          "internalType": "address",
          "name": "",
          "type": "address"
        }
      ],
      "name": "_mintTokenFunctionAuthorizedContracts",
      "outputs": [
        {
          "internalType": "bool",
          "name": "",
          "type": "bool"
        }
      ],
      "stateMutability": "view",
      "type": "function"
    },
    {
      "inputs": [
        {
          "internalType": "address",
          "name": "contractAddress",
          "type": "address"
        }
      ],
      "name": "authorizeContract",
      "outputs": [],
      "stateMutability": "nonpayable",
      "type": "function"
    },
    {
      "inputs": [
        {
          "internalType": "address",
          "name": "account",
          "type": "address"
        },
        {
          "internalType": "uint256",
          "name": "id",
          "type": "uint256"
        }
      ],
      "name": "balanceOf",
      "outputs": [
        {
          "internalType": "uint256",
          "name": "",
          "type": "uint256"
        }
      ],
      "stateMutability": "view",
      "type": "function"
    },
    {
      "inputs": [
        {
          "internalType": "address[]",
          "name": "accounts",
          "type": "address[]"
        },
        {
          "internalType": "uint256[]",
          "name": "ids",
          "type": "uint256[]"
        }
      ],
      "name": "balanceOfBatch",
      "outputs": [
        {
          "internalType": "uint256[]",
          "name": "",
          "type": "uint256[]"
        }
      ],
      "stateMutability": "view",
      "type": "function"
    },
    {
      "inputs": [],
      "name": "init",
      "outputs": [],
      "stateMutability": "nonpayable",
      "type": "function"
    },
    {
      "inputs": [
        {
          "internalType": "uint256",
          "name": "_tokenId",
          "type": "uint256"
        },
        {
          "internalType": "uint256",
          "name": "_sharePrice",
          "type": "uint256"
        },
        {
          "internalType": "string",
          "name": "_uri",
          "type": "string"
        },
        {
          "internalType": "string",
          "name": "_tokenName",
          "type": "string"
        }
      ],
      "name": "initGfvInfoForATokenId",
      "outputs": [],
      "stateMutability": "nonpayable",
      "type": "function"
    },
    {
      "inputs": [
        {
          "internalType": "address",
          "name": "account",
          "type": "address"
        },
        {
          "internalType": "address",
          "name": "operator",
          "type": "address"
        }
      ],
      "name": "isApprovedForAll",
      "outputs": [
        {
          "internalType": "bool",
          "name": "",
          "type": "bool"
        }
      ],
      "stateMutability": "view",
      "type": "function"
    },
    {
      "inputs": [
        {
          "internalType": "address",
          "name": "_to",
          "type": "address"
        },
        {
          "internalType": "uint256",
          "name": "_tokenId",
          "type": "uint256"
        },
        {
          "internalType": "uint256",
          "name": "_amount",
          "type": "uint256"
        }
      ],
      "name": "mintTokenEmergency",
      "outputs": [],
      "stateMutability": "nonpayable",
      "type": "function"
    },
    {
      "inputs": [],
      "name": "owner",
      "outputs": [
        {
          "internalType": "address",
          "name": "",
          "type": "address"
        }
      ],
      "stateMutability": "view",
      "type": "function"
    },
    {
      "inputs": [],
      "name": "renounceOwnership",
      "outputs": [],
      "stateMutability": "nonpayable",
      "type": "function"
    },
    {
      "inputs": [
        {
          "internalType": "address",
          "name": "contractAddress",
          "type": "address"
        }
      ],
      "name": "revokeContract",
      "outputs": [],
      "stateMutability": "nonpayable",
      "type": "function"
    },
    {
      "inputs": [
        {
          "internalType": "address",
          "name": "from",
          "type": "address"
        },
        {
          "internalType": "address",
          "name": "to",
          "type": "address"
        },
        {
          "internalType": "uint256[]",
          "name": "ids",
          "type": "uint256[]"
        },
        {
          "internalType": "uint256[]",
          "name": "amounts",
          "type": "uint256[]"
        },
        {
          "internalType": "bytes",
          "name": "data",
          "type": "bytes"
        }
      ],
      "name": "safeBatchTransferFrom",
      "outputs": [],
      "stateMutability": "nonpayable",
      "type": "function"
    },
    {
      "inputs": [
        {
          "internalType": "address",
          "name": "from",
          "type": "address"
        },
        {
          "internalType": "address",
          "name": "to",
          "type": "address"
        },
        {
          "internalType": "uint256",
          "name": "id",
          "type": "uint256"
        },
        {
          "internalType": "uint256",
          "name": "amount",
          "type": "uint256"
        },
        {
          "internalType": "bytes",
          "name": "data",
          "type": "bytes"
        }
      ],
      "name": "safeTransferFrom",
      "outputs": [],
      "stateMutability": "nonpayable",
      "type": "function"
    },
    {
      "inputs": [
        {
          "internalType": "address",
          "name": "operator",
          "type": "address"
        },
        {
          "internalType": "bool",
          "name": "approved",
          "type": "bool"
        }
      ],
      "name": "setApprovalForAll",
      "outputs": [],
      "stateMutability": "nonpayable",
      "type": "function"
    },
    {
      "inputs": [
        {
          "internalType": "bytes4",
          "name": "interfaceId",
          "type": "bytes4"
        }
      ],
      "name": "supportsInterface",
      "outputs": [
        {
          "internalType": "bool",
          "name": "",
          "type": "bool"
        }
      ],
      "stateMutability": "view",
      "type": "function"
    },
    {
      "inputs": [
        {
          "internalType": "address",
          "name": "newOwner",
          "type": "address"
        }
      ],
      "name": "transferOwnership",
      "outputs": [],
      "stateMutability": "nonpayable",
      "type": "function"
    },
    {
      "inputs": [
        {
          "internalType": "uint256",
          "name": "_tokenId",
          "type": "uint256"
        },
        {
          "internalType": "uint256",
          "name": "_newSharePrice",
          "type": "uint256"
        },
        {
          "internalType": "string",
          "name": "_newURI",
          "type": "string"
        }
      ],
      "name": "updateSharePriceAndUri",
      "outputs": [],
      "stateMutability": "nonpayable",
      "type": "function"
    },
    {
      "inputs": [
        {
          "internalType": "uint256",
          "name": "_tokenId",
          "type": "uint256"
        },
        {
          "internalType": "string",
          "name": "_newURI",
          "type": "string"
        }
      ],
      "name": "updateTokenURI",
      "outputs": [],
      "stateMutability": "nonpayable",
      "type": "function"
    },
    {
      "inputs": [
        {
          "internalType": "uint256",
          "name": "tokenId",
          "type": "uint256"
        }
      ],
      "name": "uri",
      "outputs": [
        {
          "internalType": "string",
          "name": "",
          "type": "string"
        }
      ],
      "stateMutability": "view",
      "type": "function"
    }
  ],
  "bytecode": "0x60a0604052600060809081526003906200001a908262000168565b506007805460ff191690553480156200003257600080fd5b506040805160208101909152600081526200004d816200005f565b50620000593362000071565b62000234565b60026200006d828262000168565b5050565b600580546001600160a01b038381166001600160a01b0319831681179093556040519116919082907f8be0079c531659141344cd1fd0a4f28419497f9722a3daafe3b4186f6b6457e090600090a35050565b634e487b7160e01b600052604160045260246000fd5b600181811c90821680620000ee57607f821691505b6020821081036200010f57634e487b7160e01b600052602260045260246000fd5b50919050565b601f8211156200016357600081815260208120601f850160051c810160208610156200013e5750805b601f850160051c820191505b818110156200015f578281556001016200014a565b5050505b505050565b81516001600160401b03811115620001845762000184620000c3565b6200019c81620001958454620000d9565b8462000115565b602080601f831160018114620001d45760008415620001bb5750858301515b600019600386901b1c1916600185901b1785556200015f565b600085815260208120601f198616915b828110156200020557888601518255948401946001909101908401620001e4565b5085821015620002245787850151600019600388901b60f8161c191681555b5050505050600190811b01905550565b61237a80620002446000396000f3fe608060405234801561001057600080fd5b50600436106101365760003560e01c806371c4399f116100b8578063cc2e3ee11161007c578063cc2e3ee1146102a4578063d658f585146102b7578063e1c7392a146102db578063e985e9c5146102e3578063f242432a1461031f578063f2fde38b1461033257600080fd5b806371c4399f1461023d5780637b9df715146102505780638da5cb5b14610263578063a22cb4651461027e578063b3f5b5661461029157600080fd5b80633465ce4a116100ff5780633465ce4a146101cc578063486b7fce146101df5780634e1273f41461020257806367561d9314610222578063715018a61461023557600080fd5b8062fdd58e1461013b57806301ffc9a7146101615780630e89341c1461018457806318e97fd1146101a45780632eb2c2d6146101b9575b600080fd5b61014e6101493660046116ea565b610345565b6040519081526020015b60405180910390f35b61017461016f36600461172a565b6103de565b6040519015158152602001610158565b610197610192366004611747565b61042e565b60405161015891906117b0565b6101b76101b2366004611878565b61050e565b005b6101b76101c7366004611952565b610570565b6101b76101da3660046119fb565b6105bc565b6101746101ed366004611a4a565b60086020526000908152604090205460ff1681565b610215610210366004611a65565b610615565b6040516101589190611b60565b6101b7610230366004611a4a565b61073e565b6101b76107d3565b6101b761024b366004611b73565b6107e7565b6101b761025e366004611b73565b6108b0565b6005546040516001600160a01b039091168152602001610158565b6101b761028c366004611ba6565b61090f565b6101b761029f366004611c2a565b61091e565b6101b76102b2366004611a4a565b6109ce565b6102ca6102c5366004611747565b610a5f565b604051610158959493929190611cac565b6101b7610ba2565b6101746102f1366004611cf1565b6001600160a01b03918216600090815260016020908152604080832093909416825291909152205460ff1690565b6101b761032d366004611d24565b610d17565b6101b7610340366004611a4a565b610d5c565b60006001600160a01b0383166103b55760405162461bcd60e51b815260206004820152602a60248201527f455243313135353a2061646472657373207a65726f206973206e6f742061207660448201526930b634b21037bbb732b960b11b60648201526084015b60405180910390fd5b506000818152602081815260408083206001600160a01b03861684529091529020545b92915050565b60006001600160e01b03198216636cdb3d1360e11b148061040f57506001600160e01b031982166303a24d0760e21b145b806103d857506301ffc9a760e01b6001600160e01b03198316146103d8565b60008181526004602052604081208054606092919061044c90611d88565b80601f016020809104026020016040519081016040528092919081815260200182805461047890611d88565b80156104c55780601f1061049a576101008083540402835291602001916104c5565b820191906000526020600020905b8154815290600101906020018083116104a857829003601f168201915b5050505050905060008151116104e3576104de83610dd5565b610507565b6003816040516020016104f7929190611dc2565b6040516020818303038152906040525b9392505050565b610516610e69565b60008281526006602052604090205460ff166105445760405162461bcd60e51b81526004016103ac90611e49565b61054e8282610ec3565b60008281526006602052604090206004810161056a8382611ec2565b50505050565b6001600160a01b03851633148061058c575061058c85336102f1565b6105a85760405162461bcd60e51b81526004016103ac90611f81565b6105b58585858585610f20565b5050505050565b6105c4610e69565b60008381526006602052604090205460ff166105f25760405162461bcd60e51b81526004016103ac90611e49565b600083815260066020526040902060038101839055600481016105b58382611ec2565b6060815183511461067a5760405162461bcd60e51b815260206004820152602960248201527f455243313135353a206163636f756e747320616e6420696473206c656e677468604482015268040dad2e6dac2e8c6d60bb1b60648201526084016103ac565b600083516001600160401b03811115610695576106956117c3565b6040519080825280602002602001820160405280156106be578160200160208202803683370190505b50905060005b8451811015610736576107098582815181106106e2576106e2611fcf565b60200260200101518583815181106106fc576106fc611fcf565b6020026020010151610345565b82828151811061071b5761071b611fcf565b602090810291909101015261072f81611ffb565b90506106c4565b509392505050565b610746610e69565b6001600160a01b03811660009081526008602052604090205460ff16156107af5760405162461bcd60e51b815260206004820152601e60248201527f436f6e747261637420697320616c726561647920617574686f72697a6564000060448201526064016103ac565b6001600160a01b03166000908152600860205260409020805460ff19166001179055565b6107db610e69565b6107e560006110fd565b565b6107ef610e69565b60008281526006602052604090205460ff1661081d5760405162461bcd60e51b81526004016103ac90611e49565b6108388383836040518060200160405280600081525061114f565b60008281526006602052604081206002810180549192849261085b908490612014565b9091555050604080516001600160a01b0386168152602081018590529081018390527f96234cb3d6c373a1aaa06497a540bc166d4b0359243a088eaf95e21d7253d0be9060600160405180910390a150505050565b3360009081526008602052604090205460ff166107ef5760405162461bcd60e51b815260206004820152601860248201527f43616c6c6572206973206e6f7420617574686f72697a6564000000000000000060448201526064016103ac565b61091a338383611263565b5050565b610926610e69565b60008681526006602052604090205460ff16156109855760405162461bcd60e51b815260206004820152601960248201527f546f6b656e20616c726561647920696e697469616c697a65640000000000000060448201526064016103ac565b6000868152600660205260409020805460ff1916600117815560038101869055600481016109b4858783612027565b50600181016109c4838583612027565b5050505050505050565b6109d6610e69565b6001600160a01b03811660009081526008602052604090205460ff16610a3e5760405162461bcd60e51b815260206004820152601a60248201527f436f6e7472616374206973206e6f7420617574686f72697a656400000000000060448201526064016103ac565b6001600160a01b03166000908152600860205260409020805460ff19169055565b6006602052600090815260409020805460018201805460ff9092169291610a8590611d88565b80601f0160208091040260200160405190810160405280929190818152602001828054610ab190611d88565b8015610afe5780601f10610ad357610100808354040283529160200191610afe565b820191906000526020600020905b815481529060010190602001808311610ae157829003601f168201915b505050505090806002015490806003015490806004018054610b1f90611d88565b80601f0160208091040260200160405190810160405280929190818152602001828054610b4b90611d88565b8015610b985780601f10610b6d57610100808354040283529160200191610b98565b820191906000526020600020905b815481529060010190602001808311610b7b57829003601f168201915b5050505050905085565b610baa610e69565b60075460ff1615610bfd5760405162461bcd60e51b815260206004820152601c60248201527f496e69742068617320616c7265616479206265656e2063616c6c65640000000060448201526064016103ac565b6040805160a081018252600180825282518084018452600781526647454e4553495360c81b60208083019190915280840191825283850192909252600060608401819052845180840190955280855260808401949094529280526006905280517f54cdd369e4e8a8515e52ca72ec816c2101831ad1f18bf44102ed171459c9b4f8805460ff191691151591909117815591519091907f54cdd369e4e8a8515e52ca72ec816c2101831ad1f18bf44102ed171459c9b4f990610cbe9082611ec2565b50604082015160028201556060820151600382015560808201516004820190610ce79082611ec2565b50905050610d0833600060016040518060200160405280600081525061114f565b6007805460ff19166001179055565b6001600160a01b038516331480610d335750610d3385336102f1565b610d4f5760405162461bcd60e51b81526004016103ac90611f81565b6105b58585858585611343565b610d64610e69565b6001600160a01b038116610dc95760405162461bcd60e51b815260206004820152602660248201527f4f776e61626c653a206e6577206f776e657220697320746865207a65726f206160448201526564647265737360d01b60648201526084016103ac565b610dd2816110fd565b50565b606060028054610de490611d88565b80601f0160208091040260200160405190810160405280929190818152602001828054610e1090611d88565b8015610e5d5780601f10610e3257610100808354040283529160200191610e5d565b820191906000526020600020905b815481529060010190602001808311610e4057829003601f168201915b50505050509050919050565b6005546001600160a01b031633146107e55760405162461bcd60e51b815260206004820181905260248201527f4f776e61626c653a2063616c6c6572206973206e6f7420746865206f776e657260448201526064016103ac565b6000828152600460205260409020610edb8282611ec2565b50817f6bb7ff708619ba0610cba295a58592e0451dee2622938c8755667688daf3529b610f078461042e565b604051610f1491906117b0565b60405180910390a25050565b8151835114610f825760405162461bcd60e51b815260206004820152602860248201527f455243313135353a2069647320616e6420616d6f756e7473206c656e677468206044820152670dad2e6dac2e8c6d60c31b60648201526084016103ac565b6001600160a01b038416610fa85760405162461bcd60e51b81526004016103ac906120e6565b3360005b845181101561108f576000858281518110610fc957610fc9611fcf565b602002602001015190506000858381518110610fe757610fe7611fcf565b602090810291909101810151600084815280835260408082206001600160a01b038e1683529093529190912054909150818110156110375760405162461bcd60e51b81526004016103ac9061212b565b6000838152602081815260408083206001600160a01b038e8116855292528083208585039055908b16825281208054849290611074908490612014565b925050819055505050508061108890611ffb565b9050610fac565b50846001600160a01b0316866001600160a01b0316826001600160a01b03167f4a39dc06d4c0dbc64b70af90fd698a233a518aa5d07e595d983b8c0526c8f7fb87876040516110df929190612175565b60405180910390a46110f581878787878761146d565b505050505050565b600580546001600160a01b038381166001600160a01b0319831681179093556040519116919082907f8be0079c531659141344cd1fd0a4f28419497f9722a3daafe3b4186f6b6457e090600090a35050565b6001600160a01b0384166111af5760405162461bcd60e51b815260206004820152602160248201527f455243313135353a206d696e7420746f20746865207a65726f206164647265736044820152607360f81b60648201526084016103ac565b3360006111bb856115c8565b905060006111c8856115c8565b90506000868152602081815260408083206001600160a01b038b168452909152812080548792906111fa908490612014565b909155505060408051878152602081018790526001600160a01b03808a1692600092918716917fc3d58168c5ae7397731d063d5bbf3d657854427343f4c083240f7aacaa2d0f62910160405180910390a461125a83600089898989611613565b50505050505050565b816001600160a01b0316836001600160a01b0316036112d65760405162461bcd60e51b815260206004820152602960248201527f455243313135353a2073657474696e6720617070726f76616c20737461747573604482015268103337b91039b2b63360b91b60648201526084016103ac565b6001600160a01b03838116600081815260016020908152604080832094871680845294825291829020805460ff191686151590811790915591519182527f17307eab39ab6107e8899845ad3d59bd9653f200f220920489ca2b5937696c31910160405180910390a3505050565b6001600160a01b0384166113695760405162461bcd60e51b81526004016103ac906120e6565b336000611375856115c8565b90506000611382856115c8565b90506000868152602081815260408083206001600160a01b038c168452909152902054858110156113c55760405162461bcd60e51b81526004016103ac9061212b565b6000878152602081815260408083206001600160a01b038d8116855292528083208985039055908a16825281208054889290611402908490612014565b909155505060408051888152602081018890526001600160a01b03808b16928c821692918816917fc3d58168c5ae7397731d063d5bbf3d657854427343f4c083240f7aacaa2d0f62910160405180910390a4611462848a8a8a8a8a611613565b505050505050505050565b6001600160a01b0384163b156110f55760405163bc197c8160e01b81526001600160a01b0385169063bc197c81906114b190899089908890889088906004016121a3565b6020604051808303816000875af19250505080156114ec575060408051601f3d908101601f191682019092526114e9918101906121f5565b60015b611598576114f8612212565b806308c379a003611531575061150c61222e565b806115175750611533565b8060405162461bcd60e51b81526004016103ac91906117b0565b505b60405162461bcd60e51b815260206004820152603460248201527f455243313135353a207472616e7366657220746f206e6f6e2d455243313135356044820152732932b1b2b4bb32b91034b6b83632b6b2b73a32b960611b60648201526084016103ac565b6001600160e01b0319811663bc197c8160e01b1461125a5760405162461bcd60e51b81526004016103ac906122b7565b6040805160018082528183019092526060916000919060208083019080368337019050509050828160008151811061160257611602611fcf565b602090810291909101015292915050565b6001600160a01b0384163b156110f55760405163f23a6e6160e01b81526001600160a01b0385169063f23a6e619061165790899089908890889088906004016122ff565b6020604051808303816000875af1925050508015611692575060408051601f3d908101601f1916820190925261168f918101906121f5565b60015b61169e576114f8612212565b6001600160e01b0319811663f23a6e6160e01b1461125a5760405162461bcd60e51b81526004016103ac906122b7565b80356001600160a01b03811681146116e557600080fd5b919050565b600080604083850312156116fd57600080fd5b611706836116ce565b946020939093013593505050565b6001600160e01b031981168114610dd257600080fd5b60006020828403121561173c57600080fd5b813561050781611714565b60006020828403121561175957600080fd5b5035919050565b60005b8381101561177b578181015183820152602001611763565b50506000910152565b6000815180845261179c816020860160208601611760565b601f01601f19169290920160200192915050565b6020815260006105076020830184611784565b634e487b7160e01b600052604160045260246000fd5b601f8201601f191681016001600160401b03811182821017156117fe576117fe6117c3565b6040525050565b600082601f83011261181657600080fd5b81356001600160401b0381111561182f5761182f6117c3565b604051611846601f8301601f1916602001826117d9565b81815284602083860101111561185b57600080fd5b816020850160208301376000918101602001919091529392505050565b6000806040838503121561188b57600080fd5b8235915060208301356001600160401b038111156118a857600080fd5b6118b485828601611805565b9150509250929050565b60006001600160401b038211156118d7576118d76117c3565b5060051b60200190565b600082601f8301126118f257600080fd5b813560206118ff826118be565b60405161190c82826117d9565b83815260059390931b850182019282810191508684111561192c57600080fd5b8286015b848110156119475780358352918301918301611930565b509695505050505050565b600080600080600060a0868803121561196a57600080fd5b611973866116ce565b9450611981602087016116ce565b935060408601356001600160401b038082111561199d57600080fd5b6119a989838a016118e1565b945060608801359150808211156119bf57600080fd5b6119cb89838a016118e1565b935060808801359150808211156119e157600080fd5b506119ee88828901611805565b9150509295509295909350565b600080600060608486031215611a1057600080fd5b833592506020840135915060408401356001600160401b03811115611a3457600080fd5b611a4086828701611805565b9150509250925092565b600060208284031215611a5c57600080fd5b610507826116ce565b60008060408385031215611a7857600080fd5b82356001600160401b0380821115611a8f57600080fd5b818501915085601f830112611aa357600080fd5b81356020611ab0826118be565b604051611abd82826117d9565b83815260059390931b8501820192828101915089841115611add57600080fd5b948201945b83861015611b0257611af3866116ce565b82529482019490820190611ae2565b96505086013592505080821115611b1857600080fd5b506118b4858286016118e1565b600081518084526020808501945080840160005b83811015611b5557815187529582019590820190600101611b39565b509495945050505050565b6020815260006105076020830184611b25565b600080600060608486031215611b8857600080fd5b611b91846116ce565b95602085013595506040909401359392505050565b60008060408385031215611bb957600080fd5b611bc2836116ce565b915060208301358015158114611bd757600080fd5b809150509250929050565b60008083601f840112611bf457600080fd5b5081356001600160401b03811115611c0b57600080fd5b602083019150836020828501011115611c2357600080fd5b9250929050565b60008060008060008060808789031215611c4357600080fd5b863595506020870135945060408701356001600160401b0380821115611c6857600080fd5b611c748a838b01611be2565b90965094506060890135915080821115611c8d57600080fd5b50611c9a89828a01611be2565b979a9699509497509295939492505050565b851515815260a060208201526000611cc760a0830187611784565b8560408401528460608401528281036080840152611ce58185611784565b98975050505050505050565b60008060408385031215611d0457600080fd5b611d0d836116ce565b9150611d1b602084016116ce565b90509250929050565b600080600080600060a08688031215611d3c57600080fd5b611d45866116ce565b9450611d53602087016116ce565b9350604086013592506060860135915060808601356001600160401b03811115611d7c57600080fd5b6119ee88828901611805565b600181811c90821680611d9c57607f821691505b602082108103611dbc57634e487b7160e01b600052602260045260246000fd5b50919050565b6000808454611dd081611d88565b60018281168015611de85760018114611dfd57611e2c565b60ff1984168752821515830287019450611e2c565b8860005260208060002060005b85811015611e235781548a820152908401908201611e0a565b50505082870194505b505050508351611e40818360208801611760565b01949350505050565b602080825260149082015273151bdad95b88191bd95cc81b9bdd08195e1a5cdd60621b604082015260600190565b601f821115611ebd57600081815260208120601f850160051c81016020861015611e9e5750805b601f850160051c820191505b818110156110f557828155600101611eaa565b505050565b81516001600160401b03811115611edb57611edb6117c3565b611eef81611ee98454611d88565b84611e77565b602080601f831160018114611f245760008415611f0c5750858301515b600019600386901b1c1916600185901b1785556110f5565b600085815260208120601f198616915b82811015611f5357888601518255948401946001909101908401611f34565b5085821015611f715787850151600019600388901b60f8161c191681555b5050505050600190811b01905550565b6020808252602e908201527f455243313135353a2063616c6c6572206973206e6f7420746f6b656e206f776e60408201526d195c881bdc88185c1c1c9bdd995960921b606082015260800190565b634e487b7160e01b600052603260045260246000fd5b634e487b7160e01b600052601160045260246000fd5b60006001820161200d5761200d611fe5565b5060010190565b808201808211156103d8576103d8611fe5565b6001600160401b0383111561203e5761203e6117c3565b6120528361204c8354611d88565b83611e77565b6000601f841160018114612086576000851561206e5750838201355b600019600387901b1c1916600186901b1783556105b5565b600083815260209020601f19861690835b828110156120b75786850135825560209485019460019092019101612097565b50868210156120d45760001960f88860031b161c19848701351681555b505060018560011b0183555050505050565b60208082526025908201527f455243313135353a207472616e7366657220746f20746865207a65726f206164604082015264647265737360d81b606082015260800190565b6020808252602a908201527f455243313135353a20696e73756666696369656e742062616c616e636520666f60408201526939103a3930b739b332b960b11b606082015260800190565b6040815260006121886040830185611b25565b828103602084015261219a8185611b25565b95945050505050565b6001600160a01b0386811682528516602082015260a0604082018190526000906121cf90830186611b25565b82810360608401526121e18186611b25565b90508281036080840152611ce58185611784565b60006020828403121561220757600080fd5b815161050781611714565b600060033d111561222b5760046000803e5060005160e01c5b90565b600060443d101561223c5790565b6040516003193d81016004833e81513d6001600160401b03816024840111818411171561226b57505050505090565b82850191508151818111156122835750505050505090565b843d870101602082850101111561229d5750505050505090565b6122ac602082860101876117d9565b509095945050505050565b60208082526028908201527f455243313135353a204552433131353552656365697665722072656a656374656040820152676420746f6b656e7360c01b606082015260800190565b6001600160a01b03868116825285166020820152604081018490526060810183905260a06080820181905260009061233990830184611784565b97965050505050505056fea26469706673582212209cd95a93dc3b7d4a6ed97155a0d3fe732894695b9fc877ad6521d2eefb8f17ff64736f6c63430008120033",
  "linkReferences": {},
  "deployedLinkReferences": {}
}