{
  "_format": "hh-sol-artifact-1",
  "contractName": "Tokenize",
  "sourceName": "contracts/Tokenize.sol",
  "abi": [
    {
      "inputs": [],
      "stateMutability": "nonpayable",
      "type": "constructor"
    },
    {
      "anonymous": false,
      "inputs": [
        {
          "indexed": true,
          "internalType": "address",
          "name": "account",
          "type": "address"
        },
        {
          "indexed": true,
          "internalType": "address",
          "name": "operator",
          "type": "address"
        },
        {
          "indexed": false,
          "internalType": "bool",
          "name": "approved",
          "type": "bool"
        }
      ],
      "name": "ApprovalForAll",
      "type": "event"
    },
    {
      "anonymous": false,
      "inputs": [
        {
          "indexed": true,
          "internalType": "address",
          "name": "previousOwner",
          "type": "address"
        },
        {
          "indexed": true,
          "internalType": "address",
          "name": "newOwner",
          "type": "address"
        }
      ],
      "name": "OwnershipTransferred",
      "type": "event"
    },
    {
      "anonymous": false,
      "inputs": [
        {
          "indexed": true,
          "internalType": "uint256",
          "name": "tokenId",
          "type": "uint256"
        },
        {
          "indexed": false,
          "internalType": "string",
          "name": "tokenName",
          "type": "string"
        },
        {
          "indexed": false,
          "internalType": "uint16",
          "name": "totalSupply",
          "type": "uint16"
        },
        {
          "indexed": false,
          "internalType": "string",
          "name": "uri",
          "type": "string"
        }
      ],
      "name": "TokenMinted",
      "type": "event"
    },
    {
      "anonymous": false,
      "inputs": [
        {
          "indexed": true,
          "internalType": "address",
          "name": "operator",
          "type": "address"
        },
        {
          "indexed": true,
          "internalType": "address",
          "name": "from",
          "type": "address"
        },
        {
          "indexed": true,
          "internalType": "address",
          "name": "to",
          "type": "address"
        },
        {
          "indexed": false,
          "internalType": "uint256[]",
          "name": "ids",
          "type": "uint256[]"
        },
        {
          "indexed": false,
          "internalType": "uint256[]",
          "name": "values",
          "type": "uint256[]"
        }
      ],
      "name": "TransferBatch",
      "type": "event"
    },
    {
      "anonymous": false,
      "inputs": [
        {
          "indexed": true,
          "internalType": "address",
          "name": "operator",
          "type": "address"
        },
        {
          "indexed": true,
          "internalType": "address",
          "name": "from",
          "type": "address"
        },
        {
          "indexed": true,
          "internalType": "address",
          "name": "to",
          "type": "address"
        },
        {
          "indexed": false,
          "internalType": "uint256",
          "name": "id",
          "type": "uint256"
        },
        {
          "indexed": false,
          "internalType": "uint256",
          "name": "value",
          "type": "uint256"
        }
      ],
      "name": "TransferSingle",
      "type": "event"
    },
    {
      "anonymous": false,
      "inputs": [
        {
          "indexed": false,
          "internalType": "string",
          "name": "value",
          "type": "string"
        },
        {
          "indexed": true,
          "internalType": "uint256",
          "name": "id",
          "type": "uint256"
        }
      ],
      "name": "URI",
      "type": "event"
    },
    {
      "inputs": [
        {
          "internalType": "uint256",
          "name": "",
          "type": "uint256"
        }
      ],
      "name": "_gfvTokens",
      "outputs": [
        {
          "internalType": "string",
          "name": "tokenName",
          "type": "string"
        },
        {
          "internalType": "uint256",
          "name": "tokenId",
          "type": "uint256"
        },
        {
          "internalType": "uint16",
          "name": "totalSupply",
          "type": "uint16"
        },
        {
          "internalType": "string",
          "name": "tokenURI",
          "type": "string"
        }
      ],
      "stateMutability": "view",
      "type": "function"
    },
    {
      "inputs": [
        {
          "internalType": "address",
          "name": "account",
          "type": "address"
        },
        {
          "internalType": "uint256",
          "name": "id",
          "type": "uint256"
        }
      ],
      "name": "balanceOf",
      "outputs": [
        {
          "internalType": "uint256",
          "name": "",
          "type": "uint256"
        }
      ],
      "stateMutability": "view",
      "type": "function"
    },
    {
      "inputs": [
        {
          "internalType": "address[]",
          "name": "accounts",
          "type": "address[]"
        },
        {
          "internalType": "uint256[]",
          "name": "ids",
          "type": "uint256[]"
        }
      ],
      "name": "balanceOfBatch",
      "outputs": [
        {
          "internalType": "uint256[]",
          "name": "",
          "type": "uint256[]"
        }
      ],
      "stateMutability": "view",
      "type": "function"
    },
    {
      "inputs": [],
      "name": "init",
      "outputs": [],
      "stateMutability": "nonpayable",
      "type": "function"
    },
    {
      "inputs": [
        {
          "internalType": "address",
          "name": "account",
          "type": "address"
        },
        {
          "internalType": "address",
          "name": "operator",
          "type": "address"
        }
      ],
      "name": "isApprovedForAll",
      "outputs": [
        {
          "internalType": "bool",
          "name": "",
          "type": "bool"
        }
      ],
      "stateMutability": "view",
      "type": "function"
    },
    {
      "inputs": [
        {
          "internalType": "address",
          "name": "_to",
          "type": "address"
        },
        {
          "internalType": "uint16",
          "name": "_totalSupply",
          "type": "uint16"
        },
        {
          "internalType": "string",
          "name": "_tokenName",
          "type": "string"
        },
        {
          "internalType": "string",
          "name": "_tokenURI",
          "type": "string"
        }
      ],
      "name": "mintToken",
      "outputs": [],
      "stateMutability": "nonpayable",
      "type": "function"
    },
    {
      "inputs": [],
      "name": "owner",
      "outputs": [
        {
          "internalType": "address",
          "name": "",
          "type": "address"
        }
      ],
      "stateMutability": "view",
      "type": "function"
    },
    {
      "inputs": [],
      "name": "renounceOwnership",
      "outputs": [],
      "stateMutability": "nonpayable",
      "type": "function"
    },
    {
      "inputs": [
        {
          "internalType": "address",
          "name": "from",
          "type": "address"
        },
        {
          "internalType": "address",
          "name": "to",
          "type": "address"
        },
        {
          "internalType": "uint256[]",
          "name": "ids",
          "type": "uint256[]"
        },
        {
          "internalType": "uint256[]",
          "name": "amounts",
          "type": "uint256[]"
        },
        {
          "internalType": "bytes",
          "name": "data",
          "type": "bytes"
        }
      ],
      "name": "safeBatchTransferFrom",
      "outputs": [],
      "stateMutability": "nonpayable",
      "type": "function"
    },
    {
      "inputs": [
        {
          "internalType": "address",
          "name": "from",
          "type": "address"
        },
        {
          "internalType": "address",
          "name": "to",
          "type": "address"
        },
        {
          "internalType": "uint256",
          "name": "id",
          "type": "uint256"
        },
        {
          "internalType": "uint256",
          "name": "amount",
          "type": "uint256"
        },
        {
          "internalType": "bytes",
          "name": "data",
          "type": "bytes"
        }
      ],
      "name": "safeTransferFrom",
      "outputs": [],
      "stateMutability": "nonpayable",
      "type": "function"
    },
    {
      "inputs": [
        {
          "internalType": "address",
          "name": "operator",
          "type": "address"
        },
        {
          "internalType": "bool",
          "name": "approved",
          "type": "bool"
        }
      ],
      "name": "setApprovalForAll",
      "outputs": [],
      "stateMutability": "nonpayable",
      "type": "function"
    },
    {
      "inputs": [
        {
          "internalType": "bytes4",
          "name": "interfaceId",
          "type": "bytes4"
        }
      ],
      "name": "supportsInterface",
      "outputs": [
        {
          "internalType": "bool",
          "name": "",
          "type": "bool"
        }
      ],
      "stateMutability": "view",
      "type": "function"
    },
    {
      "inputs": [
        {
          "internalType": "address",
          "name": "newOwner",
          "type": "address"
        }
      ],
      "name": "transferOwnership",
      "outputs": [],
      "stateMutability": "nonpayable",
      "type": "function"
    },
    {
      "inputs": [
        {
          "internalType": "uint256",
          "name": "tokenId",
          "type": "uint256"
        }
      ],
      "name": "uri",
      "outputs": [
        {
          "internalType": "string",
          "name": "",
          "type": "string"
        }
      ],
      "stateMutability": "view",
      "type": "function"
    }
  ],
  "bytecode": "0x60a0604052600060809081526003906200001a908262000168565b506008805460ff191690553480156200003257600080fd5b506040805160208101909152600081526200004d816200005f565b50620000593362000071565b62000234565b60026200006d828262000168565b5050565b600580546001600160a01b038381166001600160a01b0319831681179093556040519116919082907f8be0079c531659141344cd1fd0a4f28419497f9722a3daafe3b4186f6b6457e090600090a35050565b634e487b7160e01b600052604160045260246000fd5b600181811c90821680620000ee57607f821691505b6020821081036200010f57634e487b7160e01b600052602260045260246000fd5b50919050565b601f8211156200016357600081815260208120601f850160051c810160208610156200013e5750805b601f850160051c820191505b818110156200015f578281556001016200014a565b5050505b505050565b81516001600160401b03811115620001845762000184620000c3565b6200019c81620001958454620000d9565b8462000115565b602080601f831160018114620001d45760008415620001bb5750858301515b600019600386901b1c1916600185901b1785556200015f565b600085815260208120601f198616915b828110156200020557888601518255948401946001909101908401620001e4565b5085821015620002245787850151600019600388901b60f8161c191681555b5050505050600190811b01905550565b611e7180620002446000396000f3fe608060405234801561001057600080fd5b50600436106100e95760003560e01c8063a22cb4651161008c578063e2e4e45911610066578063e2e4e459146101ed578063e985e9c514610200578063f242432a1461023c578063f2fde38b1461024f57600080fd5b8063a22cb465146101af578063d658f585146101c2578063e1c7392a146101e557600080fd5b80632eb2c2d6116100c85780632eb2c2d6146101575780634e1273f41461016c578063715018a61461018c5780638da5cb5b1461019457600080fd5b8062fdd58e146100ee57806301ffc9a7146101145780630e89341c14610137575b600080fd5b6101016100fc36600461138b565b610262565b6040519081526020015b60405180910390f35b6101276101223660046113cb565b6102fb565b604051901515815260200161010b565b61014a6101453660046113e8565b61034b565b60405161010b9190611451565b61016a6101653660046115b0565b61042b565b005b61017f61017a36600461165a565b610477565b60405161010b9190611760565b61016a6105a1565b6005546040516001600160a01b03909116815260200161010b565b61016a6101bd366004611773565b6105b5565b6101d56101d03660046113e8565b6105c4565b60405161010b94939291906117af565b61016a61071d565b61016a6101fb3660046117ef565b61087b565b61012761020e36600461187d565b6001600160a01b03918216600090815260016020908152604080832093909416825291909152205460ff1690565b61016a61024a3660046118b0565b6109b8565b61016a61025d366004611915565b6109fd565b60006001600160a01b0383166102d25760405162461bcd60e51b815260206004820152602a60248201527f455243313135353a2061646472657373207a65726f206973206e6f742061207660448201526930b634b21037bbb732b960b11b60648201526084015b60405180910390fd5b506000818152602081815260408083206001600160a01b03861684529091529020545b92915050565b60006001600160e01b03198216636cdb3d1360e11b148061032c57506001600160e01b031982166303a24d0760e21b145b806102f557506301ffc9a760e01b6001600160e01b03198316146102f5565b60008181526004602052604081208054606092919061036990611930565b80601f016020809104026020016040519081016040528092919081815260200182805461039590611930565b80156103e25780601f106103b7576101008083540402835291602001916103e2565b820191906000526020600020905b8154815290600101906020018083116103c557829003601f168201915b505050505090506000815111610400576103fb83610a76565b610424565b60038160405160200161041492919061196a565b6040516020818303038152906040525b9392505050565b6001600160a01b0385163314806104475750610447853361020e565b6104635760405162461bcd60e51b81526004016102c9906119f1565b6104708585858585610b0a565b5050505050565b606081518351146104dc5760405162461bcd60e51b815260206004820152602960248201527f455243313135353a206163636f756e747320616e6420696473206c656e677468604482015268040dad2e6dac2e8c6d60bb1b60648201526084016102c9565b6000835167ffffffffffffffff8111156104f8576104f8611464565b604051908082528060200260200182016040528015610521578160200160208202803683370190505b50905060005b84518110156105995761056c85828151811061054557610545611a3f565b602002602001015185838151811061055f5761055f611a3f565b6020026020010151610262565b82828151811061057e5761057e611a3f565b602090810291909101015261059281611a6b565b9050610527565b509392505050565b6105a9610ce7565b6105b36000610d41565b565b6105c0338383610d93565b5050565b600781815481106105d457600080fd5b90600052602060002090600402016000915090508060000180546105f790611930565b80601f016020809104026020016040519081016040528092919081815260200182805461062390611930565b80156106705780601f1061064557610100808354040283529160200191610670565b820191906000526020600020905b81548152906001019060200180831161065357829003601f168201915b50505050600183015460028401546003850180549495929461ffff90921693509061069a90611930565b80601f01602080910402602001604051908101604052809291908181526020018280546106c690611930565b80156107135780601f106106e857610100808354040283529160200191610713565b820191906000526020600020905b8154815290600101906020018083116106f657829003601f168201915b5050505050905084565b610725610ce7565b60085460ff16156107785760405162461bcd60e51b815260206004820152601c60248201527f496e69742068617320616c7265616479206265656e2063616c6c65640000000060448201526064016102c9565b6040805160c0810182526007608082018181526647454e4553495360c81b60a08401528252600060208084018290526001848601819052855191820190955281815260608401528154938401825552805190916004027fa66cc928b5edb82af9bd49922954155ab7b0942694bea4ce44661d9a8736c688019081906107fd9082611acf565b5060208201516001820155604082015160028201805461ffff191661ffff909216919091179055606082015160038201906108389082611acf565b50505061086c73f39fd6e51aad88f6f4ce6ab8827279cfffb922666000600160405180602001604052806000815250610e73565b6008805460ff19166001179055565b610883610ce7565b610891600680546001019055565b600061089c60065490565b604080516080810182528581526020810183905261ffff87169181019190915260608101849052600780546001810182556000919091528151929350909160049091027fa66cc928b5edb82af9bd49922954155ab7b0942694bea4ce44661d9a8736c6880190819061090e9082611acf565b5060208201516001820155604082015160028201805461ffff191661ffff909216919091179055606082015160038201906109499082611acf565b5050506109568183610f87565b61097585828661ffff1660405180602001604052806000815250610e73565b807ffca8ae9e19a495b0cccf48aed69638ef5b19e7c0e20490e8db67f4f7dc5ddf978486856040516109a993929190611b8f565b60405180910390a25050505050565b6001600160a01b0385163314806109d457506109d4853361020e565b6109f05760405162461bcd60e51b81526004016102c9906119f1565b6104708585858585610fe4565b610a05610ce7565b6001600160a01b038116610a6a5760405162461bcd60e51b815260206004820152602660248201527f4f776e61626c653a206e6577206f776e657220697320746865207a65726f206160448201526564647265737360d01b60648201526084016102c9565b610a7381610d41565b50565b606060028054610a8590611930565b80601f0160208091040260200160405190810160405280929190818152602001828054610ab190611930565b8015610afe5780601f10610ad357610100808354040283529160200191610afe565b820191906000526020600020905b815481529060010190602001808311610ae157829003601f168201915b50505050509050919050565b8151835114610b6c5760405162461bcd60e51b815260206004820152602860248201527f455243313135353a2069647320616e6420616d6f756e7473206c656e677468206044820152670dad2e6dac2e8c6d60c31b60648201526084016102c9565b6001600160a01b038416610b925760405162461bcd60e51b81526004016102c990611bc8565b3360005b8451811015610c79576000858281518110610bb357610bb3611a3f565b602002602001015190506000858381518110610bd157610bd1611a3f565b602090810291909101810151600084815280835260408082206001600160a01b038e168352909352919091205490915081811015610c215760405162461bcd60e51b81526004016102c990611c0d565b6000838152602081815260408083206001600160a01b038e8116855292528083208585039055908b16825281208054849290610c5e908490611c57565b9250508190555050505080610c7290611a6b565b9050610b96565b50846001600160a01b0316866001600160a01b0316826001600160a01b03167f4a39dc06d4c0dbc64b70af90fd698a233a518aa5d07e595d983b8c0526c8f7fb8787604051610cc9929190611c6a565b60405180910390a4610cdf81878787878761110e565b505050505050565b6005546001600160a01b031633146105b35760405162461bcd60e51b815260206004820181905260248201527f4f776e61626c653a2063616c6c6572206973206e6f7420746865206f776e657260448201526064016102c9565b600580546001600160a01b038381166001600160a01b0319831681179093556040519116919082907f8be0079c531659141344cd1fd0a4f28419497f9722a3daafe3b4186f6b6457e090600090a35050565b816001600160a01b0316836001600160a01b031603610e065760405162461bcd60e51b815260206004820152602960248201527f455243313135353a2073657474696e6720617070726f76616c20737461747573604482015268103337b91039b2b63360b91b60648201526084016102c9565b6001600160a01b03838116600081815260016020908152604080832094871680845294825291829020805460ff191686151590811790915591519182527f17307eab39ab6107e8899845ad3d59bd9653f200f220920489ca2b5937696c31910160405180910390a3505050565b6001600160a01b038416610ed35760405162461bcd60e51b815260206004820152602160248201527f455243313135353a206d696e7420746f20746865207a65726f206164647265736044820152607360f81b60648201526084016102c9565b336000610edf85611269565b90506000610eec85611269565b90506000868152602081815260408083206001600160a01b038b16845290915281208054879290610f1e908490611c57565b909155505060408051878152602081018790526001600160a01b03808a1692600092918716917fc3d58168c5ae7397731d063d5bbf3d657854427343f4c083240f7aacaa2d0f62910160405180910390a4610f7e836000898989896112b4565b50505050505050565b6000828152600460205260409020610f9f8282611acf565b50817f6bb7ff708619ba0610cba295a58592e0451dee2622938c8755667688daf3529b610fcb8461034b565b604051610fd89190611451565b60405180910390a25050565b6001600160a01b03841661100a5760405162461bcd60e51b81526004016102c990611bc8565b33600061101685611269565b9050600061102385611269565b90506000868152602081815260408083206001600160a01b038c168452909152902054858110156110665760405162461bcd60e51b81526004016102c990611c0d565b6000878152602081815260408083206001600160a01b038d8116855292528083208985039055908a168252812080548892906110a3908490611c57565b909155505060408051888152602081018890526001600160a01b03808b16928c821692918816917fc3d58168c5ae7397731d063d5bbf3d657854427343f4c083240f7aacaa2d0f62910160405180910390a4611103848a8a8a8a8a6112b4565b505050505050505050565b6001600160a01b0384163b15610cdf5760405163bc197c8160e01b81526001600160a01b0385169063bc197c81906111529089908990889088908890600401611c98565b6020604051808303816000875af192505050801561118d575060408051601f3d908101601f1916820190925261118a91810190611cf6565b60015b61123957611199611d13565b806308c379a0036111d257506111ad611d2f565b806111b857506111d4565b8060405162461bcd60e51b81526004016102c99190611451565b505b60405162461bcd60e51b815260206004820152603460248201527f455243313135353a207472616e7366657220746f206e6f6e2d455243313135356044820152732932b1b2b4bb32b91034b6b83632b6b2b73a32b960611b60648201526084016102c9565b6001600160e01b0319811663bc197c8160e01b14610f7e5760405162461bcd60e51b81526004016102c990611db9565b604080516001808252818301909252606091600091906020808301908036833701905050905082816000815181106112a3576112a3611a3f565b602090810291909101015292915050565b6001600160a01b0384163b15610cdf5760405163f23a6e6160e01b81526001600160a01b0385169063f23a6e61906112f89089908990889088908890600401611e01565b6020604051808303816000875af1925050508015611333575060408051601f3d908101601f1916820190925261133091810190611cf6565b60015b61133f57611199611d13565b6001600160e01b0319811663f23a6e6160e01b14610f7e5760405162461bcd60e51b81526004016102c990611db9565b80356001600160a01b038116811461138657600080fd5b919050565b6000806040838503121561139e57600080fd5b6113a78361136f565b946020939093013593505050565b6001600160e01b031981168114610a7357600080fd5b6000602082840312156113dd57600080fd5b8135610424816113b5565b6000602082840312156113fa57600080fd5b5035919050565b60005b8381101561141c578181015183820152602001611404565b50506000910152565b6000815180845261143d816020860160208601611401565b601f01601f19169290920160200192915050565b6020815260006104246020830184611425565b634e487b7160e01b600052604160045260246000fd5b601f8201601f1916810167ffffffffffffffff811182821017156114a0576114a0611464565b6040525050565b600067ffffffffffffffff8211156114c1576114c1611464565b5060051b60200190565b600082601f8301126114dc57600080fd5b813560206114e9826114a7565b6040516114f6828261147a565b83815260059390931b850182019282810191508684111561151657600080fd5b8286015b84811015611531578035835291830191830161151a565b509695505050505050565b600082601f83011261154d57600080fd5b813567ffffffffffffffff81111561156757611567611464565b60405161157e601f8301601f19166020018261147a565b81815284602083860101111561159357600080fd5b816020850160208301376000918101602001919091529392505050565b600080600080600060a086880312156115c857600080fd5b6115d18661136f565b94506115df6020870161136f565b9350604086013567ffffffffffffffff808211156115fc57600080fd5b61160889838a016114cb565b9450606088013591508082111561161e57600080fd5b61162a89838a016114cb565b9350608088013591508082111561164057600080fd5b5061164d8882890161153c565b9150509295509295909350565b6000806040838503121561166d57600080fd5b823567ffffffffffffffff8082111561168557600080fd5b818501915085601f83011261169957600080fd5b813560206116a6826114a7565b6040516116b3828261147a565b83815260059390931b85018201928281019150898411156116d357600080fd5b948201945b838610156116f8576116e98661136f565b825294820194908201906116d8565b9650508601359250508082111561170e57600080fd5b5061171b858286016114cb565b9150509250929050565b600081518084526020808501945080840160005b8381101561175557815187529582019590820190600101611739565b509495945050505050565b6020815260006104246020830184611725565b6000806040838503121561178657600080fd5b61178f8361136f565b9150602083013580151581146117a457600080fd5b809150509250929050565b6080815260006117c26080830187611425565b85602084015261ffff8516604084015282810360608401526117e48185611425565b979650505050505050565b6000806000806080858703121561180557600080fd5b61180e8561136f565b9350602085013561ffff8116811461182557600080fd5b9250604085013567ffffffffffffffff8082111561184257600080fd5b61184e8883890161153c565b9350606087013591508082111561186457600080fd5b506118718782880161153c565b91505092959194509250565b6000806040838503121561189057600080fd5b6118998361136f565b91506118a76020840161136f565b90509250929050565b600080600080600060a086880312156118c857600080fd5b6118d18661136f565b94506118df6020870161136f565b93506040860135925060608601359150608086013567ffffffffffffffff81111561190957600080fd5b61164d8882890161153c565b60006020828403121561192757600080fd5b6104248261136f565b600181811c9082168061194457607f821691505b60208210810361196457634e487b7160e01b600052602260045260246000fd5b50919050565b600080845461197881611930565b6001828116801561199057600181146119a5576119d4565b60ff19841687528215158302870194506119d4565b8860005260208060002060005b858110156119cb5781548a8201529084019082016119b2565b50505082870194505b5050505083516119e8818360208801611401565b01949350505050565b6020808252602e908201527f455243313135353a2063616c6c6572206973206e6f7420746f6b656e206f776e60408201526d195c881bdc88185c1c1c9bdd995960921b606082015260800190565b634e487b7160e01b600052603260045260246000fd5b634e487b7160e01b600052601160045260246000fd5b600060018201611a7d57611a7d611a55565b5060010190565b601f821115611aca57600081815260208120601f850160051c81016020861015611aab5750805b601f850160051c820191505b81811015610cdf57828155600101611ab7565b505050565b815167ffffffffffffffff811115611ae957611ae9611464565b611afd81611af78454611930565b84611a84565b602080601f831160018114611b325760008415611b1a5750858301515b600019600386901b1c1916600185901b178555610cdf565b600085815260208120601f198616915b82811015611b6157888601518255948401946001909101908401611b42565b5085821015611b7f5787850151600019600388901b60f8161c191681555b5050505050600190811b01905550565b606081526000611ba26060830186611425565b61ffff851660208401528281036040840152611bbe8185611425565b9695505050505050565b60208082526025908201527f455243313135353a207472616e7366657220746f20746865207a65726f206164604082015264647265737360d81b606082015260800190565b6020808252602a908201527f455243313135353a20696e73756666696369656e742062616c616e636520666f60408201526939103a3930b739b332b960b11b606082015260800190565b808201808211156102f5576102f5611a55565b604081526000611c7d6040830185611725565b8281036020840152611c8f8185611725565b95945050505050565b6001600160a01b0386811682528516602082015260a060408201819052600090611cc490830186611725565b8281036060840152611cd68186611725565b90508281036080840152611cea8185611425565b98975050505050505050565b600060208284031215611d0857600080fd5b8151610424816113b5565b600060033d1115611d2c5760046000803e5060005160e01c5b90565b600060443d1015611d3d5790565b6040516003193d81016004833e81513d67ffffffffffffffff8160248401118184111715611d6d57505050505090565b8285019150815181811115611d855750505050505090565b843d8701016020828501011115611d9f5750505050505090565b611dae6020828601018761147a565b509095945050505050565b60208082526028908201527f455243313135353a204552433131353552656365697665722072656a656374656040820152676420746f6b656e7360c01b606082015260800190565b6001600160a01b03868116825285166020820152604081018490526060810183905260a0608082018190526000906117e49083018461142556fea2646970667358221220cfb7b29f864dab42a0a3f0f6738245261238a69697d79e57466f1c2c97e89a7764736f6c63430008120033",
  "linkReferences": {},
  "deployedLinkReferences": {}
}