{
  "_format": "hh-sol-artifact-1",
  "contractName": "Tokenize",
  "sourceName": "contracts/Tokenize.sol",
  "abi": [
    {
      "inputs": [],
      "stateMutability": "nonpayable",
      "type": "constructor"
    },
    {
      "anonymous": false,
      "inputs": [
        {
          "indexed": true,
          "internalType": "address",
          "name": "account",
          "type": "address"
        },
        {
          "indexed": true,
          "internalType": "address",
          "name": "operator",
          "type": "address"
        },
        {
          "indexed": false,
          "internalType": "bool",
          "name": "approved",
          "type": "bool"
        }
      ],
      "name": "ApprovalForAll",
      "type": "event"
    },
    {
      "anonymous": false,
      "inputs": [
        {
          "indexed": true,
          "internalType": "address",
          "name": "previousOwner",
          "type": "address"
        },
        {
          "indexed": true,
          "internalType": "address",
          "name": "newOwner",
          "type": "address"
        }
      ],
      "name": "OwnershipTransferred",
      "type": "event"
    },
    {
      "anonymous": false,
      "inputs": [
        {
          "indexed": false,
          "internalType": "address",
          "name": "to",
          "type": "address"
        },
        {
          "indexed": false,
          "internalType": "uint256",
          "name": "tokenId",
          "type": "uint256"
        },
        {
          "indexed": false,
          "internalType": "uint256",
          "name": "amount",
          "type": "uint256"
        }
      ],
      "name": "TokenMinted",
      "type": "event"
    },
    {
      "anonymous": false,
      "inputs": [
        {
          "indexed": true,
          "internalType": "address",
          "name": "operator",
          "type": "address"
        },
        {
          "indexed": true,
          "internalType": "address",
          "name": "from",
          "type": "address"
        },
        {
          "indexed": true,
          "internalType": "address",
          "name": "to",
          "type": "address"
        },
        {
          "indexed": false,
          "internalType": "uint256[]",
          "name": "ids",
          "type": "uint256[]"
        },
        {
          "indexed": false,
          "internalType": "uint256[]",
          "name": "values",
          "type": "uint256[]"
        }
      ],
      "name": "TransferBatch",
      "type": "event"
    },
    {
      "anonymous": false,
      "inputs": [
        {
          "indexed": true,
          "internalType": "address",
          "name": "operator",
          "type": "address"
        },
        {
          "indexed": true,
          "internalType": "address",
          "name": "from",
          "type": "address"
        },
        {
          "indexed": true,
          "internalType": "address",
          "name": "to",
          "type": "address"
        },
        {
          "indexed": false,
          "internalType": "uint256",
          "name": "id",
          "type": "uint256"
        },
        {
          "indexed": false,
          "internalType": "uint256",
          "name": "value",
          "type": "uint256"
        }
      ],
      "name": "TransferSingle",
      "type": "event"
    },
    {
      "anonymous": false,
      "inputs": [
        {
          "indexed": false,
          "internalType": "string",
          "name": "value",
          "type": "string"
        },
        {
          "indexed": true,
          "internalType": "uint256",
          "name": "id",
          "type": "uint256"
        }
      ],
      "name": "URI",
      "type": "event"
    },
    {
      "inputs": [
        {
          "internalType": "uint256",
          "name": "",
          "type": "uint256"
        }
      ],
      "name": "_gfvTokens",
      "outputs": [
        {
          "internalType": "bool",
          "name": "exists",
          "type": "bool"
        },
        {
          "internalType": "string",
          "name": "tokenName",
          "type": "string"
        },
        {
          "internalType": "uint256",
          "name": "totalSupply",
          "type": "uint256"
        },
        {
          "internalType": "uint256",
          "name": "sharePrice",
          "type": "uint256"
        },
        {
          "internalType": "string",
          "name": "tokenURI",
          "type": "string"
        }
      ],
      "stateMutability": "view",
      "type": "function"
    },
    {
      "inputs": [
        {
          "internalType": "address",
          "name": "_to",
          "type": "address"
        },
        {
          "internalType": "uint256",
          "name": "_tokenId",
          "type": "uint256"
        },
        {
          "internalType": "uint256",
          "name": "_amount",
          "type": "uint256"
        }
      ],
      "name": "_mintToken",
      "outputs": [],
      "stateMutability": "nonpayable",
      "type": "function"
    },
    {
      "inputs": [
        {
          "internalType": "address",
          "name": "",
          "type": "address"
        }
      ],
      "name": "_mintTokenFunctionAuthorizedContracts",
      "outputs": [
        {
          "internalType": "bool",
          "name": "",
          "type": "bool"
        }
      ],
      "stateMutability": "view",
      "type": "function"
    },
    {
      "inputs": [
        {
          "internalType": "address",
          "name": "contractAddress",
          "type": "address"
        }
      ],
      "name": "authorizeContract",
      "outputs": [],
      "stateMutability": "nonpayable",
      "type": "function"
    },
    {
      "inputs": [
        {
          "internalType": "address",
          "name": "account",
          "type": "address"
        },
        {
          "internalType": "uint256",
          "name": "id",
          "type": "uint256"
        }
      ],
      "name": "balanceOf",
      "outputs": [
        {
          "internalType": "uint256",
          "name": "",
          "type": "uint256"
        }
      ],
      "stateMutability": "view",
      "type": "function"
    },
    {
      "inputs": [
        {
          "internalType": "address[]",
          "name": "accounts",
          "type": "address[]"
        },
        {
          "internalType": "uint256[]",
          "name": "ids",
          "type": "uint256[]"
        }
      ],
      "name": "balanceOfBatch",
      "outputs": [
        {
          "internalType": "uint256[]",
          "name": "",
          "type": "uint256[]"
        }
      ],
      "stateMutability": "view",
      "type": "function"
    },
    {
      "inputs": [
        {
          "internalType": "uint256",
          "name": "_tokenId",
          "type": "uint256"
        }
      ],
      "name": "getGfvInfoForTokenId",
      "outputs": [
        {
          "components": [
            {
              "internalType": "bool",
              "name": "exists",
              "type": "bool"
            },
            {
              "internalType": "string",
              "name": "tokenName",
              "type": "string"
            },
            {
              "internalType": "uint256",
              "name": "totalSupply",
              "type": "uint256"
            },
            {
              "internalType": "uint256",
              "name": "sharePrice",
              "type": "uint256"
            },
            {
              "internalType": "string",
              "name": "tokenURI",
              "type": "string"
            }
          ],
          "internalType": "struct Tokenize.GfvInfo",
          "name": "",
          "type": "tuple"
        }
      ],
      "stateMutability": "view",
      "type": "function"
    },
    {
      "inputs": [],
      "name": "init",
      "outputs": [],
      "stateMutability": "nonpayable",
      "type": "function"
    },
    {
      "inputs": [
        {
          "internalType": "uint256",
          "name": "_tokenId",
          "type": "uint256"
        },
        {
          "internalType": "uint256",
          "name": "_sharePrice",
          "type": "uint256"
        },
        {
          "internalType": "string",
          "name": "_uri",
          "type": "string"
        },
        {
          "internalType": "string",
          "name": "_tokenName",
          "type": "string"
        }
      ],
      "name": "initGfvInfoForATokenId",
      "outputs": [],
      "stateMutability": "nonpayable",
      "type": "function"
    },
    {
      "inputs": [
        {
          "internalType": "address",
          "name": "account",
          "type": "address"
        },
        {
          "internalType": "address",
          "name": "operator",
          "type": "address"
        }
      ],
      "name": "isApprovedForAll",
      "outputs": [
        {
          "internalType": "bool",
          "name": "",
          "type": "bool"
        }
      ],
      "stateMutability": "view",
      "type": "function"
    },
    {
      "inputs": [
        {
          "internalType": "address",
          "name": "_to",
          "type": "address"
        },
        {
          "internalType": "uint256",
          "name": "_tokenId",
          "type": "uint256"
        },
        {
          "internalType": "uint256",
          "name": "_amount",
          "type": "uint256"
        }
      ],
      "name": "mintTokenEmergency",
      "outputs": [],
      "stateMutability": "nonpayable",
      "type": "function"
    },
    {
      "inputs": [],
      "name": "owner",
      "outputs": [
        {
          "internalType": "address",
          "name": "",
          "type": "address"
        }
      ],
      "stateMutability": "view",
      "type": "function"
    },
    {
      "inputs": [],
      "name": "renounceOwnership",
      "outputs": [],
      "stateMutability": "nonpayable",
      "type": "function"
    },
    {
      "inputs": [
        {
          "internalType": "address",
          "name": "contractAddress",
          "type": "address"
        }
      ],
      "name": "revokeContract",
      "outputs": [],
      "stateMutability": "nonpayable",
      "type": "function"
    },
    {
      "inputs": [
        {
          "internalType": "address",
          "name": "from",
          "type": "address"
        },
        {
          "internalType": "address",
          "name": "to",
          "type": "address"
        },
        {
          "internalType": "uint256[]",
          "name": "ids",
          "type": "uint256[]"
        },
        {
          "internalType": "uint256[]",
          "name": "amounts",
          "type": "uint256[]"
        },
        {
          "internalType": "bytes",
          "name": "data",
          "type": "bytes"
        }
      ],
      "name": "safeBatchTransferFrom",
      "outputs": [],
      "stateMutability": "nonpayable",
      "type": "function"
    },
    {
      "inputs": [
        {
          "internalType": "address",
          "name": "from",
          "type": "address"
        },
        {
          "internalType": "address",
          "name": "to",
          "type": "address"
        },
        {
          "internalType": "uint256",
          "name": "id",
          "type": "uint256"
        },
        {
          "internalType": "uint256",
          "name": "amount",
          "type": "uint256"
        },
        {
          "internalType": "bytes",
          "name": "data",
          "type": "bytes"
        }
      ],
      "name": "safeTransferFrom",
      "outputs": [],
      "stateMutability": "nonpayable",
      "type": "function"
    },
    {
      "inputs": [
        {
          "internalType": "address",
          "name": "operator",
          "type": "address"
        },
        {
          "internalType": "bool",
          "name": "approved",
          "type": "bool"
        }
      ],
      "name": "setApprovalForAll",
      "outputs": [],
      "stateMutability": "nonpayable",
      "type": "function"
    },
    {
      "inputs": [
        {
          "internalType": "bytes4",
          "name": "interfaceId",
          "type": "bytes4"
        }
      ],
      "name": "supportsInterface",
      "outputs": [
        {
          "internalType": "bool",
          "name": "",
          "type": "bool"
        }
      ],
      "stateMutability": "view",
      "type": "function"
    },
    {
      "inputs": [
        {
          "internalType": "address",
          "name": "newOwner",
          "type": "address"
        }
      ],
      "name": "transferOwnership",
      "outputs": [],
      "stateMutability": "nonpayable",
      "type": "function"
    },
    {
      "inputs": [
        {
          "internalType": "uint256",
          "name": "_tokenId",
          "type": "uint256"
        },
        {
          "internalType": "uint256",
          "name": "_newSharePrice",
          "type": "uint256"
        },
        {
          "internalType": "string",
          "name": "_newURI",
          "type": "string"
        }
      ],
      "name": "updateSharePriceAndUri",
      "outputs": [],
      "stateMutability": "nonpayable",
      "type": "function"
    },
    {
      "inputs": [
        {
          "internalType": "uint256",
          "name": "_tokenId",
          "type": "uint256"
        },
        {
          "internalType": "string",
          "name": "_newURI",
          "type": "string"
        }
      ],
      "name": "updateTokenURI",
      "outputs": [],
      "stateMutability": "nonpayable",
      "type": "function"
    },
    {
      "inputs": [
        {
          "internalType": "uint256",
          "name": "tokenId",
          "type": "uint256"
        }
      ],
      "name": "uri",
      "outputs": [
        {
          "internalType": "string",
          "name": "",
          "type": "string"
        }
      ],
      "stateMutability": "view",
      "type": "function"
    }
  ],
  "bytecode": "0x60a0604052600060809081526003906200001a908262000168565b506007805460ff191690553480156200003257600080fd5b506040805160208101909152600081526200004d816200005f565b50620000593362000071565b62000234565b60026200006d828262000168565b5050565b600580546001600160a01b038381166001600160a01b0319831681179093556040519116919082907f8be0079c531659141344cd1fd0a4f28419497f9722a3daafe3b4186f6b6457e090600090a35050565b634e487b7160e01b600052604160045260246000fd5b600181811c90821680620000ee57607f821691505b6020821081036200010f57634e487b7160e01b600052602260045260246000fd5b50919050565b601f8211156200016357600081815260208120601f850160051c810160208610156200013e5750805b601f850160051c820191505b818110156200015f578281556001016200014a565b5050505b505050565b81516001600160401b03811115620001845762000184620000c3565b6200019c81620001958454620000d9565b8462000115565b602080601f831160018114620001d45760008415620001bb5750858301515b600019600386901b1c1916600185901b1785556200015f565b600085815260208120601f198616915b828110156200020557888601518255948401946001909101908401620001e4565b5085821015620002245787850151600019600388901b60f8161c191681555b5050505050600190811b01905550565b6125c780620002446000396000f3fe608060405234801561001057600080fd5b50600436106101415760003560e01c80637b9df715116100b8578063cc2e3ee11161007c578063cc2e3ee1146102cf578063d658f585146102e2578063e1c7392a14610306578063e985e9c51461030e578063f242432a1461034a578063f2fde38b1461035d57600080fd5b80637b9df7151461025b5780638da5cb5b1461026e57806393c737b114610289578063a22cb465146102a9578063b3f5b566146102bc57600080fd5b80633465ce4a1161010a5780633465ce4a146101d7578063486b7fce146101ea5780634e1273f41461020d57806367561d931461022d578063715018a61461024057806371c4399f1461024857600080fd5b8062fdd58e1461014657806301ffc9a71461016c5780630e89341c1461018f57806318e97fd1146101af5780632eb2c2d6146101c4575b600080fd5b6101596101543660046118de565b610370565b6040519081526020015b60405180910390f35b61017f61017a36600461191e565b610409565b6040519015158152602001610163565b6101a261019d36600461193b565b610459565b60405161016391906119a4565b6101c26101bd366004611a6c565b610539565b005b6101c26101d2366004611b46565b61059b565b6101c26101e5366004611bef565b6105e7565b61017f6101f8366004611c3e565b60086020526000908152604090205460ff1681565b61022061021b366004611c59565b610640565b6040516101639190611d54565b6101c261023b366004611c3e565b610769565b6101c26107fe565b6101c2610256366004611d67565b610812565b6101c2610269366004611d67565b6108db565b6005546040516001600160a01b039091168152602001610163565b61029c61029736600461193b565b61093a565b6040516101639190611d9a565b6101c26102b7366004611dfc565b610b03565b6101c26102ca366004611e80565b610b12565b6101c26102dd366004611c3e565b610bc2565b6102f56102f036600461193b565b610c53565b604051610163959493929190611f02565b6101c2610d96565b61017f61031c366004611f47565b6001600160a01b03918216600090815260016020908152604080832093909416825291909152205460ff1690565b6101c2610358366004611f7a565b610f0b565b6101c261036b366004611c3e565b610f50565b60006001600160a01b0383166103e05760405162461bcd60e51b815260206004820152602a60248201527f455243313135353a2061646472657373207a65726f206973206e6f742061207660448201526930b634b21037bbb732b960b11b60648201526084015b60405180910390fd5b506000818152602081815260408083206001600160a01b03861684529091529020545b92915050565b60006001600160e01b03198216636cdb3d1360e11b148061043a57506001600160e01b031982166303a24d0760e21b145b8061040357506301ffc9a760e01b6001600160e01b0319831614610403565b60008181526004602052604081208054606092919061047790611fde565b80601f01602080910402602001604051908101604052809291908181526020018280546104a390611fde565b80156104f05780601f106104c5576101008083540402835291602001916104f0565b820191906000526020600020905b8154815290600101906020018083116104d357829003601f168201915b50505050509050600081511161050e5761050983610fc9565b610532565b600381604051602001610522929190612018565b6040516020818303038152906040525b9392505050565b61054161105d565b60008281526006602052604090205460ff1661056f5760405162461bcd60e51b81526004016103d79061209f565b61057982826110b7565b6000828152600660205260409020600481016105958382612118565b50505050565b6001600160a01b0385163314806105b757506105b7853361031c565b6105d35760405162461bcd60e51b81526004016103d7906121d7565b6105e08585858585611114565b5050505050565b6105ef61105d565b60008381526006602052604090205460ff1661061d5760405162461bcd60e51b81526004016103d79061209f565b600083815260066020526040902060038101839055600481016105e08382612118565b606081518351146106a55760405162461bcd60e51b815260206004820152602960248201527f455243313135353a206163636f756e747320616e6420696473206c656e677468604482015268040dad2e6dac2e8c6d60bb1b60648201526084016103d7565b600083516001600160401b038111156106c0576106c06119b7565b6040519080825280602002602001820160405280156106e9578160200160208202803683370190505b50905060005b84518110156107615761073485828151811061070d5761070d612225565b602002602001015185838151811061072757610727612225565b6020026020010151610370565b82828151811061074657610746612225565b602090810291909101015261075a81612251565b90506106ef565b509392505050565b61077161105d565b6001600160a01b03811660009081526008602052604090205460ff16156107da5760405162461bcd60e51b815260206004820152601e60248201527f436f6e747261637420697320616c726561647920617574686f72697a6564000060448201526064016103d7565b6001600160a01b03166000908152600860205260409020805460ff19166001179055565b61080661105d565b61081060006112f1565b565b61081a61105d565b60008281526006602052604090205460ff166108485760405162461bcd60e51b81526004016103d79061209f565b61086383838360405180602001604052806000815250611343565b60008281526006602052604081206002810180549192849261088690849061226a565b9091555050604080516001600160a01b0386168152602081018590529081018390527f96234cb3d6c373a1aaa06497a540bc166d4b0359243a088eaf95e21d7253d0be9060600160405180910390a150505050565b3360009081526008602052604090205460ff1661081a5760405162461bcd60e51b815260206004820152601860248201527f43616c6c6572206973206e6f7420617574686f72697a6564000000000000000060448201526064016103d7565b61096e6040518060a00160405280600015158152602001606081526020016000815260200160008152602001606081525090565b60008281526006602052604090205460ff1661099c5760405162461bcd60e51b81526004016103d79061209f565b600082815260066020908152604091829020825160a08101909352805460ff161515835260018101805491928401916109d490611fde565b80601f0160208091040260200160405190810160405280929190818152602001828054610a0090611fde565b8015610a4d5780601f10610a2257610100808354040283529160200191610a4d565b820191906000526020600020905b815481529060010190602001808311610a3057829003601f168201915b505050505081526020016002820154815260200160038201548152602001600482018054610a7a90611fde565b80601f0160208091040260200160405190810160405280929190818152602001828054610aa690611fde565b8015610af35780601f10610ac857610100808354040283529160200191610af3565b820191906000526020600020905b815481529060010190602001808311610ad657829003601f168201915b5050505050815250509050919050565b610b0e338383611457565b5050565b610b1a61105d565b60008681526006602052604090205460ff1615610b795760405162461bcd60e51b815260206004820152601960248201527f546f6b656e20616c726561647920696e697469616c697a65640000000000000060448201526064016103d7565b6000868152600660205260409020805460ff191660011781556003810186905560048101610ba885878361227d565b5060018101610bb883858361227d565b5050505050505050565b610bca61105d565b6001600160a01b03811660009081526008602052604090205460ff16610c325760405162461bcd60e51b815260206004820152601a60248201527f436f6e7472616374206973206e6f7420617574686f72697a656400000000000060448201526064016103d7565b6001600160a01b03166000908152600860205260409020805460ff19169055565b6006602052600090815260409020805460018201805460ff9092169291610c7990611fde565b80601f0160208091040260200160405190810160405280929190818152602001828054610ca590611fde565b8015610cf25780601f10610cc757610100808354040283529160200191610cf2565b820191906000526020600020905b815481529060010190602001808311610cd557829003601f168201915b505050505090806002015490806003015490806004018054610d1390611fde565b80601f0160208091040260200160405190810160405280929190818152602001828054610d3f90611fde565b8015610d8c5780601f10610d6157610100808354040283529160200191610d8c565b820191906000526020600020905b815481529060010190602001808311610d6f57829003601f168201915b5050505050905085565b610d9e61105d565b60075460ff1615610df15760405162461bcd60e51b815260206004820152601c60248201527f496e69742068617320616c7265616479206265656e2063616c6c65640000000060448201526064016103d7565b6040805160a081018252600180825282518084018452600781526647454e4553495360c81b60208083019190915280840191825283850192909252600060608401819052845180840190955280855260808401949094529280526006905280517f54cdd369e4e8a8515e52ca72ec816c2101831ad1f18bf44102ed171459c9b4f8805460ff191691151591909117815591519091907f54cdd369e4e8a8515e52ca72ec816c2101831ad1f18bf44102ed171459c9b4f990610eb29082612118565b50604082015160028201556060820151600382015560808201516004820190610edb9082612118565b50905050610efc336000600160405180602001604052806000815250611343565b6007805460ff19166001179055565b6001600160a01b038516331480610f275750610f27853361031c565b610f435760405162461bcd60e51b81526004016103d7906121d7565b6105e08585858585611537565b610f5861105d565b6001600160a01b038116610fbd5760405162461bcd60e51b815260206004820152602660248201527f4f776e61626c653a206e6577206f776e657220697320746865207a65726f206160448201526564647265737360d01b60648201526084016103d7565b610fc6816112f1565b50565b606060028054610fd890611fde565b80601f016020809104026020016040519081016040528092919081815260200182805461100490611fde565b80156110515780601f1061102657610100808354040283529160200191611051565b820191906000526020600020905b81548152906001019060200180831161103457829003601f168201915b50505050509050919050565b6005546001600160a01b031633146108105760405162461bcd60e51b815260206004820181905260248201527f4f776e61626c653a2063616c6c6572206973206e6f7420746865206f776e657260448201526064016103d7565b60008281526004602052604090206110cf8282612118565b50817f6bb7ff708619ba0610cba295a58592e0451dee2622938c8755667688daf3529b6110fb84610459565b60405161110891906119a4565b60405180910390a25050565b81518351146111765760405162461bcd60e51b815260206004820152602860248201527f455243313135353a2069647320616e6420616d6f756e7473206c656e677468206044820152670dad2e6dac2e8c6d60c31b60648201526084016103d7565b6001600160a01b03841661119c5760405162461bcd60e51b81526004016103d79061233c565b3360005b84518110156112835760008582815181106111bd576111bd612225565b6020026020010151905060008583815181106111db576111db612225565b602090810291909101810151600084815280835260408082206001600160a01b038e16835290935291909120549091508181101561122b5760405162461bcd60e51b81526004016103d790612381565b6000838152602081815260408083206001600160a01b038e8116855292528083208585039055908b1682528120805484929061126890849061226a565b925050819055505050508061127c90612251565b90506111a0565b50846001600160a01b0316866001600160a01b0316826001600160a01b03167f4a39dc06d4c0dbc64b70af90fd698a233a518aa5d07e595d983b8c0526c8f7fb87876040516112d39291906123cb565b60405180910390a46112e9818787878787611661565b505050505050565b600580546001600160a01b038381166001600160a01b0319831681179093556040519116919082907f8be0079c531659141344cd1fd0a4f28419497f9722a3daafe3b4186f6b6457e090600090a35050565b6001600160a01b0384166113a35760405162461bcd60e51b815260206004820152602160248201527f455243313135353a206d696e7420746f20746865207a65726f206164647265736044820152607360f81b60648201526084016103d7565b3360006113af856117bc565b905060006113bc856117bc565b90506000868152602081815260408083206001600160a01b038b168452909152812080548792906113ee90849061226a565b909155505060408051878152602081018790526001600160a01b03808a1692600092918716917fc3d58168c5ae7397731d063d5bbf3d657854427343f4c083240f7aacaa2d0f62910160405180910390a461144e83600089898989611807565b50505050505050565b816001600160a01b0316836001600160a01b0316036114ca5760405162461bcd60e51b815260206004820152602960248201527f455243313135353a2073657474696e6720617070726f76616c20737461747573604482015268103337b91039b2b63360b91b60648201526084016103d7565b6001600160a01b03838116600081815260016020908152604080832094871680845294825291829020805460ff191686151590811790915591519182527f17307eab39ab6107e8899845ad3d59bd9653f200f220920489ca2b5937696c31910160405180910390a3505050565b6001600160a01b03841661155d5760405162461bcd60e51b81526004016103d79061233c565b336000611569856117bc565b90506000611576856117bc565b90506000868152602081815260408083206001600160a01b038c168452909152902054858110156115b95760405162461bcd60e51b81526004016103d790612381565b6000878152602081815260408083206001600160a01b038d8116855292528083208985039055908a168252812080548892906115f690849061226a565b909155505060408051888152602081018890526001600160a01b03808b16928c821692918816917fc3d58168c5ae7397731d063d5bbf3d657854427343f4c083240f7aacaa2d0f62910160405180910390a4611656848a8a8a8a8a611807565b505050505050505050565b6001600160a01b0384163b156112e95760405163bc197c8160e01b81526001600160a01b0385169063bc197c81906116a590899089908890889088906004016123f0565b6020604051808303816000875af19250505080156116e0575060408051601f3d908101601f191682019092526116dd91810190612442565b60015b61178c576116ec61245f565b806308c379a003611725575061170061247b565b8061170b5750611727565b8060405162461bcd60e51b81526004016103d791906119a4565b505b60405162461bcd60e51b815260206004820152603460248201527f455243313135353a207472616e7366657220746f206e6f6e2d455243313135356044820152732932b1b2b4bb32b91034b6b83632b6b2b73a32b960611b60648201526084016103d7565b6001600160e01b0319811663bc197c8160e01b1461144e5760405162461bcd60e51b81526004016103d790612504565b604080516001808252818301909252606091600091906020808301908036833701905050905082816000815181106117f6576117f6612225565b602090810291909101015292915050565b6001600160a01b0384163b156112e95760405163f23a6e6160e01b81526001600160a01b0385169063f23a6e619061184b908990899088908890889060040161254c565b6020604051808303816000875af1925050508015611886575060408051601f3d908101601f1916820190925261188391810190612442565b60015b611892576116ec61245f565b6001600160e01b0319811663f23a6e6160e01b1461144e5760405162461bcd60e51b81526004016103d790612504565b80356001600160a01b03811681146118d957600080fd5b919050565b600080604083850312156118f157600080fd5b6118fa836118c2565b946020939093013593505050565b6001600160e01b031981168114610fc657600080fd5b60006020828403121561193057600080fd5b813561053281611908565b60006020828403121561194d57600080fd5b5035919050565b60005b8381101561196f578181015183820152602001611957565b50506000910152565b60008151808452611990816020860160208601611954565b601f01601f19169290920160200192915050565b6020815260006105326020830184611978565b634e487b7160e01b600052604160045260246000fd5b601f8201601f191681016001600160401b03811182821017156119f2576119f26119b7565b6040525050565b600082601f830112611a0a57600080fd5b81356001600160401b03811115611a2357611a236119b7565b604051611a3a601f8301601f1916602001826119cd565b818152846020838601011115611a4f57600080fd5b816020850160208301376000918101602001919091529392505050565b60008060408385031215611a7f57600080fd5b8235915060208301356001600160401b03811115611a9c57600080fd5b611aa8858286016119f9565b9150509250929050565b60006001600160401b03821115611acb57611acb6119b7565b5060051b60200190565b600082601f830112611ae657600080fd5b81356020611af382611ab2565b604051611b0082826119cd565b83815260059390931b8501820192828101915086841115611b2057600080fd5b8286015b84811015611b3b5780358352918301918301611b24565b509695505050505050565b600080600080600060a08688031215611b5e57600080fd5b611b67866118c2565b9450611b75602087016118c2565b935060408601356001600160401b0380821115611b9157600080fd5b611b9d89838a01611ad5565b94506060880135915080821115611bb357600080fd5b611bbf89838a01611ad5565b93506080880135915080821115611bd557600080fd5b50611be2888289016119f9565b9150509295509295909350565b600080600060608486031215611c0457600080fd5b833592506020840135915060408401356001600160401b03811115611c2857600080fd5b611c34868287016119f9565b9150509250925092565b600060208284031215611c5057600080fd5b610532826118c2565b60008060408385031215611c6c57600080fd5b82356001600160401b0380821115611c8357600080fd5b818501915085601f830112611c9757600080fd5b81356020611ca482611ab2565b604051611cb182826119cd565b83815260059390931b8501820192828101915089841115611cd157600080fd5b948201945b83861015611cf657611ce7866118c2565b82529482019490820190611cd6565b96505086013592505080821115611d0c57600080fd5b50611aa885828601611ad5565b600081518084526020808501945080840160005b83811015611d4957815187529582019590820190600101611d2d565b509495945050505050565b6020815260006105326020830184611d19565b600080600060608486031215611d7c57600080fd5b611d85846118c2565b95602085013595506040909401359392505050565b602081528151151560208201526000602083015160a06040840152611dc260c0840182611978565b905060408401516060840152606084015160808401526080840151601f198483030160a0850152611df38282611978565b95945050505050565b60008060408385031215611e0f57600080fd5b611e18836118c2565b915060208301358015158114611e2d57600080fd5b809150509250929050565b60008083601f840112611e4a57600080fd5b5081356001600160401b03811115611e6157600080fd5b602083019150836020828501011115611e7957600080fd5b9250929050565b60008060008060008060808789031215611e9957600080fd5b863595506020870135945060408701356001600160401b0380821115611ebe57600080fd5b611eca8a838b01611e38565b90965094506060890135915080821115611ee357600080fd5b50611ef089828a01611e38565b979a9699509497509295939492505050565b851515815260a060208201526000611f1d60a0830187611978565b8560408401528460608401528281036080840152611f3b8185611978565b98975050505050505050565b60008060408385031215611f5a57600080fd5b611f63836118c2565b9150611f71602084016118c2565b90509250929050565b600080600080600060a08688031215611f9257600080fd5b611f9b866118c2565b9450611fa9602087016118c2565b9350604086013592506060860135915060808601356001600160401b03811115611fd257600080fd5b611be2888289016119f9565b600181811c90821680611ff257607f821691505b60208210810361201257634e487b7160e01b600052602260045260246000fd5b50919050565b600080845461202681611fde565b6001828116801561203e576001811461205357612082565b60ff1984168752821515830287019450612082565b8860005260208060002060005b858110156120795781548a820152908401908201612060565b50505082870194505b505050508351612096818360208801611954565b01949350505050565b602080825260149082015273151bdad95b88191bd95cc81b9bdd08195e1a5cdd60621b604082015260600190565b601f82111561211357600081815260208120601f850160051c810160208610156120f45750805b601f850160051c820191505b818110156112e957828155600101612100565b505050565b81516001600160401b03811115612131576121316119b7565b6121458161213f8454611fde565b846120cd565b602080601f83116001811461217a57600084156121625750858301515b600019600386901b1c1916600185901b1785556112e9565b600085815260208120601f198616915b828110156121a95788860151825594840194600190910190840161218a565b50858210156121c75787850151600019600388901b60f8161c191681555b5050505050600190811b01905550565b6020808252602e908201527f455243313135353a2063616c6c6572206973206e6f7420746f6b656e206f776e60408201526d195c881bdc88185c1c1c9bdd995960921b606082015260800190565b634e487b7160e01b600052603260045260246000fd5b634e487b7160e01b600052601160045260246000fd5b6000600182016122635761226361223b565b5060010190565b808201808211156104035761040361223b565b6001600160401b03831115612294576122946119b7565b6122a8836122a28354611fde565b836120cd565b6000601f8411600181146122dc57600085156122c45750838201355b600019600387901b1c1916600186901b1783556105e0565b600083815260209020601f19861690835b8281101561230d57868501358255602094850194600190920191016122ed565b508682101561232a5760001960f88860031b161c19848701351681555b505060018560011b0183555050505050565b60208082526025908201527f455243313135353a207472616e7366657220746f20746865207a65726f206164604082015264647265737360d81b606082015260800190565b6020808252602a908201527f455243313135353a20696e73756666696369656e742062616c616e636520666f60408201526939103a3930b739b332b960b11b606082015260800190565b6040815260006123de6040830185611d19565b8281036020840152611df38185611d19565b6001600160a01b0386811682528516602082015260a06040820181905260009061241c90830186611d19565b828103606084015261242e8186611d19565b90508281036080840152611f3b8185611978565b60006020828403121561245457600080fd5b815161053281611908565b600060033d11156124785760046000803e5060005160e01c5b90565b600060443d10156124895790565b6040516003193d81016004833e81513d6001600160401b0381602484011181841117156124b857505050505090565b82850191508151818111156124d05750505050505090565b843d87010160208285010111156124ea5750505050505090565b6124f9602082860101876119cd565b509095945050505050565b60208082526028908201527f455243313135353a204552433131353552656365697665722072656a656374656040820152676420746f6b656e7360c01b606082015260800190565b6001600160a01b03868116825285166020820152604081018490526060810183905260a06080820181905260009061258690830184611978565b97965050505050505056fea2646970667358221220292feda33d49db38055dc238da427c5f35035019e711d6c07efcd0ee6443523664736f6c63430008120033",
  "linkReferences": {},
  "deployedLinkReferences": {}
}