{
  "_format": "hh-sol-artifact-1",
  "contractName": "Tokenize",
  "sourceName": "contracts/Tokenize.sol",
  "abi": [
    {
      "inputs": [],
      "stateMutability": "nonpayable",
      "type": "constructor"
    },
    {
      "anonymous": false,
      "inputs": [
        {
          "indexed": true,
          "internalType": "address",
          "name": "account",
          "type": "address"
        },
        {
          "indexed": true,
          "internalType": "address",
          "name": "operator",
          "type": "address"
        },
        {
          "indexed": false,
          "internalType": "bool",
          "name": "approved",
          "type": "bool"
        }
      ],
      "name": "ApprovalForAll",
      "type": "event"
    },
    {
      "anonymous": false,
      "inputs": [
        {
          "indexed": true,
          "internalType": "address",
          "name": "contractAddress",
          "type": "address"
        }
      ],
      "name": "ContractAuthorized",
      "type": "event"
    },
    {
      "anonymous": false,
      "inputs": [
        {
          "indexed": true,
          "internalType": "address",
          "name": "contractAddress",
          "type": "address"
        }
      ],
      "name": "ContractRevoked",
      "type": "event"
    },
    {
      "anonymous": false,
      "inputs": [
        {
          "indexed": true,
          "internalType": "address",
          "name": "previousOwner",
          "type": "address"
        },
        {
          "indexed": true,
          "internalType": "address",
          "name": "newOwner",
          "type": "address"
        }
      ],
      "name": "OwnershipTransferred",
      "type": "event"
    },
    {
      "anonymous": false,
      "inputs": [
        {
          "indexed": false,
          "internalType": "address",
          "name": "to",
          "type": "address"
        },
        {
          "indexed": false,
          "internalType": "uint256",
          "name": "tokenId",
          "type": "uint256"
        },
        {
          "indexed": false,
          "internalType": "uint256",
          "name": "amount",
          "type": "uint256"
        }
      ],
      "name": "TokenMinted",
      "type": "event"
    },
    {
      "anonymous": false,
      "inputs": [
        {
          "indexed": true,
          "internalType": "address",
          "name": "operator",
          "type": "address"
        },
        {
          "indexed": true,
          "internalType": "address",
          "name": "from",
          "type": "address"
        },
        {
          "indexed": true,
          "internalType": "address",
          "name": "to",
          "type": "address"
        },
        {
          "indexed": false,
          "internalType": "uint256[]",
          "name": "ids",
          "type": "uint256[]"
        },
        {
          "indexed": false,
          "internalType": "uint256[]",
          "name": "values",
          "type": "uint256[]"
        }
      ],
      "name": "TransferBatch",
      "type": "event"
    },
    {
      "anonymous": false,
      "inputs": [
        {
          "indexed": true,
          "internalType": "address",
          "name": "operator",
          "type": "address"
        },
        {
          "indexed": true,
          "internalType": "address",
          "name": "from",
          "type": "address"
        },
        {
          "indexed": true,
          "internalType": "address",
          "name": "to",
          "type": "address"
        },
        {
          "indexed": false,
          "internalType": "uint256",
          "name": "id",
          "type": "uint256"
        },
        {
          "indexed": false,
          "internalType": "uint256",
          "name": "value",
          "type": "uint256"
        }
      ],
      "name": "TransferSingle",
      "type": "event"
    },
    {
      "anonymous": false,
      "inputs": [
        {
          "indexed": false,
          "internalType": "string",
          "name": "value",
          "type": "string"
        },
        {
          "indexed": true,
          "internalType": "uint256",
          "name": "id",
          "type": "uint256"
        }
      ],
      "name": "URI",
      "type": "event"
    },
    {
      "inputs": [
        {
          "internalType": "uint256",
          "name": "",
          "type": "uint256"
        }
      ],
      "name": "_gfvTokens",
      "outputs": [
        {
          "internalType": "bool",
          "name": "exists",
          "type": "bool"
        },
        {
          "internalType": "string",
          "name": "tokenName",
          "type": "string"
        },
        {
          "internalType": "uint256",
          "name": "totalSupply",
          "type": "uint256"
        },
        {
          "internalType": "uint256",
          "name": "sharePrice",
          "type": "uint256"
        },
        {
          "internalType": "string",
          "name": "tokenURI",
          "type": "string"
        }
      ],
      "stateMutability": "view",
      "type": "function"
    },
    {
      "inputs": [
        {
          "internalType": "address",
          "name": "_to",
          "type": "address"
        },
        {
          "internalType": "uint256",
          "name": "_tokenId",
          "type": "uint256"
        },
        {
          "internalType": "uint256",
          "name": "_amount",
          "type": "uint256"
        }
      ],
      "name": "_mintToken",
      "outputs": [],
      "stateMutability": "nonpayable",
      "type": "function"
    },
    {
      "inputs": [
        {
          "internalType": "address",
          "name": "",
          "type": "address"
        }
      ],
      "name": "_mintTokenFunctionAuthorizedContracts",
      "outputs": [
        {
          "internalType": "bool",
          "name": "",
          "type": "bool"
        }
      ],
      "stateMutability": "view",
      "type": "function"
    },
    {
      "inputs": [
        {
          "internalType": "address",
          "name": "contractAddress",
          "type": "address"
        }
      ],
      "name": "authorizeContract",
      "outputs": [],
      "stateMutability": "nonpayable",
      "type": "function"
    },
    {
      "inputs": [
        {
          "internalType": "address",
          "name": "account",
          "type": "address"
        },
        {
          "internalType": "uint256",
          "name": "id",
          "type": "uint256"
        }
      ],
      "name": "balanceOf",
      "outputs": [
        {
          "internalType": "uint256",
          "name": "",
          "type": "uint256"
        }
      ],
      "stateMutability": "view",
      "type": "function"
    },
    {
      "inputs": [
        {
          "internalType": "address[]",
          "name": "accounts",
          "type": "address[]"
        },
        {
          "internalType": "uint256[]",
          "name": "ids",
          "type": "uint256[]"
        }
      ],
      "name": "balanceOfBatch",
      "outputs": [
        {
          "internalType": "uint256[]",
          "name": "",
          "type": "uint256[]"
        }
      ],
      "stateMutability": "view",
      "type": "function"
    },
    {
      "inputs": [
        {
          "internalType": "uint256",
          "name": "_tokenId",
          "type": "uint256"
        }
      ],
      "name": "getGfvInfoForTokenId",
      "outputs": [
        {
          "components": [
            {
              "internalType": "bool",
              "name": "exists",
              "type": "bool"
            },
            {
              "internalType": "string",
              "name": "tokenName",
              "type": "string"
            },
            {
              "internalType": "uint256",
              "name": "totalSupply",
              "type": "uint256"
            },
            {
              "internalType": "uint256",
              "name": "sharePrice",
              "type": "uint256"
            },
            {
              "internalType": "string",
              "name": "tokenURI",
              "type": "string"
            }
          ],
          "internalType": "struct Tokenize.GfvInfo",
          "name": "",
          "type": "tuple"
        }
      ],
      "stateMutability": "view",
      "type": "function"
    },
    {
      "inputs": [],
      "name": "init",
      "outputs": [],
      "stateMutability": "nonpayable",
      "type": "function"
    },
    {
      "inputs": [
        {
          "internalType": "uint256",
          "name": "_tokenId",
          "type": "uint256"
        },
        {
          "internalType": "uint256",
          "name": "_sharePrice",
          "type": "uint256"
        },
        {
          "internalType": "string",
          "name": "_uri",
          "type": "string"
        },
        {
          "internalType": "string",
          "name": "_tokenName",
          "type": "string"
        }
      ],
      "name": "initGfvInfoForATokenId",
      "outputs": [],
      "stateMutability": "nonpayable",
      "type": "function"
    },
    {
      "inputs": [
        {
          "internalType": "address",
          "name": "account",
          "type": "address"
        },
        {
          "internalType": "address",
          "name": "operator",
          "type": "address"
        }
      ],
      "name": "isApprovedForAll",
      "outputs": [
        {
          "internalType": "bool",
          "name": "",
          "type": "bool"
        }
      ],
      "stateMutability": "view",
      "type": "function"
    },
    {
      "inputs": [
        {
          "internalType": "address",
          "name": "_to",
          "type": "address"
        },
        {
          "internalType": "uint256",
          "name": "_tokenId",
          "type": "uint256"
        },
        {
          "internalType": "uint256",
          "name": "_amount",
          "type": "uint256"
        }
      ],
      "name": "mintTokenEmergency",
      "outputs": [],
      "stateMutability": "nonpayable",
      "type": "function"
    },
    {
      "inputs": [],
      "name": "owner",
      "outputs": [
        {
          "internalType": "address",
          "name": "",
          "type": "address"
        }
      ],
      "stateMutability": "view",
      "type": "function"
    },
    {
      "inputs": [],
      "name": "renounceOwnership",
      "outputs": [],
      "stateMutability": "nonpayable",
      "type": "function"
    },
    {
      "inputs": [
        {
          "internalType": "address",
          "name": "contractAddress",
          "type": "address"
        }
      ],
      "name": "revokeContract",
      "outputs": [],
      "stateMutability": "nonpayable",
      "type": "function"
    },
    {
      "inputs": [
        {
          "internalType": "address",
          "name": "from",
          "type": "address"
        },
        {
          "internalType": "address",
          "name": "to",
          "type": "address"
        },
        {
          "internalType": "uint256[]",
          "name": "ids",
          "type": "uint256[]"
        },
        {
          "internalType": "uint256[]",
          "name": "amounts",
          "type": "uint256[]"
        },
        {
          "internalType": "bytes",
          "name": "data",
          "type": "bytes"
        }
      ],
      "name": "safeBatchTransferFrom",
      "outputs": [],
      "stateMutability": "nonpayable",
      "type": "function"
    },
    {
      "inputs": [
        {
          "internalType": "address",
          "name": "from",
          "type": "address"
        },
        {
          "internalType": "address",
          "name": "to",
          "type": "address"
        },
        {
          "internalType": "uint256",
          "name": "id",
          "type": "uint256"
        },
        {
          "internalType": "uint256",
          "name": "amount",
          "type": "uint256"
        },
        {
          "internalType": "bytes",
          "name": "data",
          "type": "bytes"
        }
      ],
      "name": "safeTransferFrom",
      "outputs": [],
      "stateMutability": "nonpayable",
      "type": "function"
    },
    {
      "inputs": [
        {
          "internalType": "address",
          "name": "operator",
          "type": "address"
        },
        {
          "internalType": "bool",
          "name": "approved",
          "type": "bool"
        }
      ],
      "name": "setApprovalForAll",
      "outputs": [],
      "stateMutability": "nonpayable",
      "type": "function"
    },
    {
      "inputs": [
        {
          "internalType": "bytes4",
          "name": "interfaceId",
          "type": "bytes4"
        }
      ],
      "name": "supportsInterface",
      "outputs": [
        {
          "internalType": "bool",
          "name": "",
          "type": "bool"
        }
      ],
      "stateMutability": "view",
      "type": "function"
    },
    {
      "inputs": [
        {
          "internalType": "address",
          "name": "newOwner",
          "type": "address"
        }
      ],
      "name": "transferOwnership",
      "outputs": [],
      "stateMutability": "nonpayable",
      "type": "function"
    },
    {
      "inputs": [
        {
          "internalType": "uint256",
          "name": "_tokenId",
          "type": "uint256"
        },
        {
          "internalType": "uint256",
          "name": "_newSharePrice",
          "type": "uint256"
        },
        {
          "internalType": "string",
          "name": "_newURI",
          "type": "string"
        }
      ],
      "name": "updateSharePriceAndUri",
      "outputs": [],
      "stateMutability": "nonpayable",
      "type": "function"
    },
    {
      "inputs": [
        {
          "internalType": "uint256",
          "name": "_tokenId",
          "type": "uint256"
        },
        {
          "internalType": "string",
          "name": "_newURI",
          "type": "string"
        }
      ],
      "name": "updateTokenURI",
      "outputs": [],
      "stateMutability": "nonpayable",
      "type": "function"
    },
    {
      "inputs": [
        {
          "internalType": "uint256",
          "name": "tokenId",
          "type": "uint256"
        }
      ],
      "name": "uri",
      "outputs": [
        {
          "internalType": "string",
          "name": "",
          "type": "string"
        }
      ],
      "stateMutability": "view",
      "type": "function"
    }
  ],
  "bytecode": "0x6080604052604051806020016040528060008152506003908162000024919062000412565b506000600760006101000a81548160ff0219169083151502179055503480156200004d57600080fd5b50604051806020016040528060008152506200006f81620000b260201b60201c565b506200009062000084620000c760201b60201c565b620000cf60201b60201c565b620000ac6769bcd6ecfc492bf360c01b6200019560201b60201c565b620004f9565b8060029081620000c3919062000412565b5050565b600033905090565b6000600560009054906101000a900473ffffffffffffffffffffffffffffffffffffffff16905081600560006101000a81548173ffffffffffffffffffffffffffffffffffffffff021916908373ffffffffffffffffffffffffffffffffffffffff1602179055508173ffffffffffffffffffffffffffffffffffffffff168173ffffffffffffffffffffffffffffffffffffffff167f8be0079c531659141344cd1fd0a4f28419497f9722a3daafe3b4186f6b6457e060405160405180910390a35050565b50565b600081519050919050565b7f4e487b7100000000000000000000000000000000000000000000000000000000600052604160045260246000fd5b7f4e487b7100000000000000000000000000000000000000000000000000000000600052602260045260246000fd5b600060028204905060018216806200021a57607f821691505b60208210810362000230576200022f620001d2565b5b50919050565b60008190508160005260206000209050919050565b60006020601f8301049050919050565b600082821b905092915050565b6000600883026200029a7fffffffffffffffffffffffffffffffffffffffffffffffffffffffffffffffff826200025b565b620002a686836200025b565b95508019841693508086168417925050509392505050565b6000819050919050565b6000819050919050565b6000620002f3620002ed620002e784620002be565b620002c8565b620002be565b9050919050565b6000819050919050565b6200030f83620002d2565b620003276200031e82620002fa565b84845462000268565b825550505050565b600090565b6200033e6200032f565b6200034b81848462000304565b505050565b5b8181101562000373576200036760008262000334565b60018101905062000351565b5050565b601f821115620003c2576200038c8162000236565b62000397846200024b565b81016020851015620003a7578190505b620003bf620003b6856200024b565b83018262000350565b50505b505050565b600082821c905092915050565b6000620003e760001984600802620003c7565b1980831691505092915050565b6000620004028383620003d4565b9150826002028217905092915050565b6200041d8262000198565b67ffffffffffffffff811115620004395762000438620001a3565b5b62000445825462000201565b6200045282828562000377565b600060209050601f8311600181146200048a576000841562000475578287015190505b620004818582620003f4565b865550620004f1565b601f1984166200049a8662000236565b60005b82811015620004c4578489015182556001820191506020850194506020810190506200049d565b86831015620004e45784890151620004e0601f891682620003d4565b8355505b6001600288020188555050505b505050505050565b614dd580620005096000396000f3fe608060405234801561001057600080fd5b50600436106101415760003560e01c80637b9df715116100b8578063cc2e3ee11161007c578063cc2e3ee11461036e578063d658f5851461038a578063e1c7392a146103be578063e985e9c5146103c8578063f242432a146103f8578063f2fde38b1461041457610141565b80637b9df715146102cc5780638da5cb5b146102e857806393c737b114610306578063a22cb46514610336578063b3f5b5661461035257610141565b80633465ce4a1161010a5780633465ce4a1461020e578063486b7fce1461022a5780634e1273f41461025a57806367561d931461028a578063715018a6146102a657806371c4399f146102b057610141565b8062fdd58e1461014657806301ffc9a7146101765780630e89341c146101a657806318e97fd1146101d65780632eb2c2d6146101f2575b600080fd5b610160600480360381019061015b9190612fa1565b610430565b60405161016d9190612ff0565b60405180910390f35b610190600480360381019061018b9190613063565b6104f8565b60405161019d91906130ab565b60405180910390f35b6101c060048036038101906101bb91906130c6565b6105da565b6040516101cd9190613183565b60405180910390f35b6101f060048036038101906101eb91906132da565b6106bf565b005b61020c6004803603810190610207919061349f565b610852565b005b6102286004803603810190610223919061356e565b6108f3565b005b610244600480360381019061023f91906135dd565b610a71565b60405161025191906130ab565b60405180910390f35b610274600480360381019061026f91906136cd565b610a91565b6040516102819190613803565b60405180910390f35b6102a4600480360381019061029f91906135dd565b610baa565b005b6102ae610da5565b005b6102ca60048036038101906102c59190613825565b610db9565b005b6102e660048036038101906102e19190613825565b610fca565b005b6102f0611287565b6040516102fd9190613887565b60405180910390f35b610320600480360381019061031b91906130c6565b6112b1565b60405161032d9190613978565b60405180910390f35b610350600480360381019061034b91906139c6565b611520565b005b61036c60048036038101906103679190613a61565b611536565b005b610388600480360381019061038391906135dd565b61178a565b005b6103a4600480360381019061039f91906130c6565b611984565b6040516103b5959493929190613b08565b60405180910390f35b6103c6611ad7565b005b6103e260048036038101906103dd9190613b69565b611d2b565b6040516103ef91906130ab565b60405180910390f35b610412600480360381019061040d9190613ba9565b611dbf565b005b61042e600480360381019061042991906135dd565b611e60565b005b60008073ffffffffffffffffffffffffffffffffffffffff168373ffffffffffffffffffffffffffffffffffffffff16036104a0576040517f08c379a000000000000000000000000000000000000000000000000000000000815260040161049790613cb2565b60405180910390fd5b60008083815260200190815260200160002060008473ffffffffffffffffffffffffffffffffffffffff1673ffffffffffffffffffffffffffffffffffffffff16815260200190815260200160002054905092915050565b60007fd9b67a26000000000000000000000000000000000000000000000000000000007bffffffffffffffffffffffffffffffffffffffffffffffffffffffff1916827bffffffffffffffffffffffffffffffffffffffffffffffffffffffff191614806105c357507f0e89341c000000000000000000000000000000000000000000000000000000007bffffffffffffffffffffffffffffffffffffffffffffffffffffffff1916827bffffffffffffffffffffffffffffffffffffffffffffffffffffffff1916145b806105d357506105d282611ee3565b5b9050919050565b606060006004600084815260200190815260200160002080546105fc90613d01565b80601f016020809104026020016040519081016040528092919081815260200182805461062890613d01565b80156106755780601f1061064a57610100808354040283529160200191610675565b820191906000526020600020905b81548152906001019060200180831161065857829003601f168201915b5050505050905060008151116106935761068e83611f4d565b6106b7565b6003816040516020016106a7929190613e06565b6040516020818303038152906040525b915050919050565b6106d367a28b00726173d2a560c01b611fe1565b6106db611fe4565b6106ef67496623039556079560c01b611fe1565b6107036707d73792195afb1360c01b611fe1565b610717670b80fd09482b988960c01b611fe1565b61072b67297bbdc7cd32db8c60c01b611fe1565b61073f676214a3cf1fd4b3c260c01b611fe1565b6006600083815260200190815260200160002060000160009054906101000a900460ff166107a2576040517f08c379a000000000000000000000000000000000000000000000000000000000815260040161079990613e76565b60405180910390fd5b6107b667afa14d47073de93060c01b611fe1565b6107ca67792c725144e806e560c01b611fe1565b6107de67f52551b4d89b65a960c01b611fe1565b6107e88282612062565b6107fc676fd1f225b017581060c01b611fe1565b610810673fb97e807c4e58ce60c01b611fe1565b600060066000848152602001908152602001600020905061083b6762dfe08782f6357860c01b611fe1565b8181600401908161084c919061402d565b50505050565b61085a6120c7565b73ffffffffffffffffffffffffffffffffffffffff168573ffffffffffffffffffffffffffffffffffffffff1614806108a0575061089f8561089a6120c7565b611d2b565b5b6108df576040517f08c379a00000000000000000000000000000000000000000000000000000000081526004016108d690614171565b60405180910390fd5b6108ec85858585856120cf565b5050505050565b6109076739be01632a0f466a60c01b611fe1565b61090f611fe4565b61092266131992ae8ab72f60c01b611fe1565b6109366714df577c881adef360c01b611fe1565b61094a6724cafe1b4fe881ae60c01b611fe1565b61095e67f169949e671d381060c01b611fe1565b61097267e37e314f241495d660c01b611fe1565b6006600084815260200190815260200160002060000160009054906101000a900460ff166109d5576040517f08c379a00000000000000000000000000000000000000000000000000000000081526004016109cc90613e76565b60405180910390fd5b6109e96722d4e911a57a5f6360c01b611fe1565b6109fd679c949da99f611dce60c01b611fe1565b610a11674736c0a1bb843b9860c01b611fe1565b6000600660008581526020019081526020016000209050610a3c6752b5a74032e8506b60c01b611fe1565b828160030181905550610a59671349a7885a25fa5560c01b611fe1565b81816004019081610a6a919061402d565b5050505050565b60086020528060005260406000206000915054906101000a900460ff1681565b60608151835114610ad7576040517f08c379a0000000000000000000000000000000000000000000000000000000008152600401610ace90614203565b60405180910390fd5b6000835167ffffffffffffffff811115610af457610af36131af565b5b604051908082528060200260200182016040528015610b225781602001602082028036833780820191505090505b50905060005b8451811015610b9f57610b6f858281518110610b4757610b46614223565b5b6020026020010151858381518110610b6257610b61614223565b5b6020026020010151610430565b828281518110610b8257610b81614223565b5b60200260200101818152505080610b9890614281565b9050610b28565b508091505092915050565b610bbe6727e9c6ab24bdafb260c01b611fe1565b610bc6611fe4565b610bda670723ac242752453260c01b611fe1565b610bee67f83ee209bcc1028560c01b611fe1565b610c0267d29a260a266517a160c01b611fe1565b610c1667269826daa24a3e6c60c01b611fe1565b610c2a67664820d35b1d7bf760c01b611fe1565b600860008273ffffffffffffffffffffffffffffffffffffffff1673ffffffffffffffffffffffffffffffffffffffff16815260200190815260200160002060009054906101000a900460ff1615610cb7576040517f08c379a0000000000000000000000000000000000000000000000000000000008152600401610cae90614315565b60405180910390fd5b610ccb678e235568a3614d2660c01b611fe1565b610cdf670ffc40c2ca19101960c01b611fe1565b6001600860008373ffffffffffffffffffffffffffffffffffffffff1673ffffffffffffffffffffffffffffffffffffffff16815260200190815260200160002060006101000a81548160ff021916908315150217905550610d4b6725d4f8149b739e4c60c01b611fe1565b610d5f674bc5abee8b5c6f6660c01b611fe1565b8073ffffffffffffffffffffffffffffffffffffffff167f8983a1f3c3cb45c24c8226b5b805e3b6eb49686530b808534b2a920129eff65160405160405180910390a250565b610dad611fe4565b610db760006123f0565b565b610dcd67f429856fb9e7d10360c01b611fe1565b610dd5611fe4565b610de967d8d0a01e9761c7a060c01b611fe1565b610dfd67f66d137589d798a560c01b611fe1565b610e116786076f51aec4854360c01b611fe1565b610e25672522e941429f45af60c01b611fe1565b610e396780844489a51caf8460c01b611fe1565b6006600083815260200190815260200160002060000160009054906101000a900460ff16610e9c576040517f08c379a0000000000000000000000000000000000000000000000000000000008152600401610e9390613e76565b60405180910390fd5b610eb06770209fe3e821a39f60c01b611fe1565b610ec467963ef2c8df489c0960c01b611fe1565b610ed8671be682147fc150b060c01b611fe1565b610ef3838383604051806020016040528060008152506124b6565b610f0767083e0266e96d50e560c01b611fe1565b610f1b6725b8c06d058bd4ae60c01b611fe1565b6000600660008481526020019081526020016000209050610f46679a3df5554c070a9c60c01b611fe1565b81816002016000828254610f5a9190614335565b92505081905550610f7567585484d15771ac6f60c01b611fe1565b610f896783dcb9198696a4c760c01b611fe1565b7f96234cb3d6c373a1aaa06497a540bc166d4b0359243a088eaf95e21d7253d0be848484604051610fbc93929190614369565b60405180910390a150505050565b610fde676782bbdc40eddb3260c01b611fe1565b610ff267f2eec5f5673e054660c01b611fe1565b6110066777f935b3972b364a60c01b611fe1565b61101a674287c8d72460941d60c01b611fe1565b600860003373ffffffffffffffffffffffffffffffffffffffff1673ffffffffffffffffffffffffffffffffffffffff16815260200190815260200160002060009054906101000a900460ff166110a6576040517f08c379a000000000000000000000000000000000000000000000000000000000815260040161109d906143ec565b60405180910390fd5b6110ba6776e0ce1bdfddcc8160c01b611fe1565b6110ce67f0a504b3c41f405b60c01b611fe1565b6110e26713faaecfa62002a660c01b611fe1565b6110f6679fb9abe74ef32ef860c01b611fe1565b6006600083815260200190815260200160002060000160009054906101000a900460ff16611159576040517f08c379a000000000000000000000000000000000000000000000000000000000815260040161115090613e76565b60405180910390fd5b61116d675761fe2b66dbfebc60c01b611fe1565b611181677291138167471ec860c01b611fe1565b611195675a8b119a71d5b42c60c01b611fe1565b6111b0838383604051806020016040528060008152506124b6565b6111c46742ee128952c068f860c01b611fe1565b6111d867b169f229ac7b2f6560c01b611fe1565b600060066000848152602001908152602001600020905061120367f9902fd1efa4b14260c01b611fe1565b818160020160008282546112179190614335565b9250508190555061123267115d03a39122f4fb60c01b611fe1565b6112466784b71404bf3fe3f460c01b611fe1565b7f96234cb3d6c373a1aaa06497a540bc166d4b0359243a088eaf95e21d7253d0be84848460405161127993929190614369565b60405180910390a150505050565b6000600560009054906101000a900473ffffffffffffffffffffffffffffffffffffffff16905090565b6112b9612ec8565b6112cd67302ef43e141545e760c01b611fe1565b6112e1670837f1ff4d04678260c01b611fe1565b6112f56763f4c6c188cbab2e60c01b611fe1565b61130967bcedebc26af99c8960c01b611fe1565b6006600083815260200190815260200160002060000160009054906101000a900460ff1661136c576040517f08c379a000000000000000000000000000000000000000000000000000000000815260040161136390613e76565b60405180910390fd5b61138067ff637ac5fd80a37e60c01b611fe1565b61139467964a62101b165b4660c01b611fe1565b6113a867271f714dbcf4e5a360c01b611fe1565b600660008381526020019081526020016000206040518060a00160405290816000820160009054906101000a900460ff161515151581526020016001820180546113f190613d01565b80601f016020809104026020016040519081016040528092919081815260200182805461141d90613d01565b801561146a5780601f1061143f5761010080835404028352916020019161146a565b820191906000526020600020905b81548152906001019060200180831161144d57829003601f168201915b50505050508152602001600282015481526020016003820154815260200160048201805461149790613d01565b80601f01602080910402602001604051908101604052809291908181526020018280546114c390613d01565b80156115105780601f106114e557610100808354040283529160200191611510565b820191906000526020600020905b8154815290600101906020018083116114f357829003601f168201915b5050505050815250509050919050565b61153261152b6120c7565b8383612666565b5050565b61154a6710f7d18695962b6a60c01b611fe1565b611552611fe4565b61156667df2ccd41376135e760c01b611fe1565b61157a67d97984c912f1b7b660c01b611fe1565b61158e6759ea8dcda0bd853d60c01b611fe1565b6115a267a8c849ffb285a10660c01b611fe1565b6115b6674cec2a19b1972dac60c01b611fe1565b6006600087815260200190815260200160002060000160009054906101000a900460ff161561161a576040517f08c379a000000000000000000000000000000000000000000000000000000000815260040161161190614458565b60405180910390fd5b61162e679cb93b08ee4253a160c01b611fe1565b61164267bbcc5d8e308fcb5c60c01b611fe1565b611656676dd405f1efbe090060c01b611fe1565b6000600660008881526020019081526020016000209050611681670384c3f7e3435a7d60c01b611fe1565b60018160000160006101000a81548160ff0219169083151502179055506116b2670da7c4b457ba2a8460c01b611fe1565b8581600301819055506116cf67a09366db7aa5644260c01b611fe1565b84848260040191826116e2929190614483565b506116f7672bccbab6d889dbf560c01b611fe1565b828282600101918261170a929190614483565b5061171f671c89b68baf6a123b60c01b611fe1565b6117336706dc0108183cc2af60c01b611fe1565b6117818786868080601f016020809104026020016040519081016040528093929190818152602001838380828437600081840152601f19601f82011690508083019250505050505050612062565b50505050505050565b61179e676eabf3e8a38c04b760c01b611fe1565b6117a6611fe4565b6117ba6741805d30b2146ba860c01b611fe1565b6117ce6770a552f92720a88660c01b611fe1565b6117e267702ba9212b8c47cc60c01b611fe1565b6117f6673a5437d40046c61d60c01b611fe1565b61180a6739b27931400b0cc560c01b611fe1565b600860008273ffffffffffffffffffffffffffffffffffffffff1673ffffffffffffffffffffffffffffffffffffffff16815260200190815260200160002060009054906101000a900460ff16611896576040517f08c379a000000000000000000000000000000000000000000000000000000000815260040161188d9061459f565b60405180910390fd5b6118aa6734439f9baa820c5560c01b611fe1565b6118be67fb706dcc9e529ab260c01b611fe1565b6000600860008373ffffffffffffffffffffffffffffffffffffffff1673ffffffffffffffffffffffffffffffffffffffff16815260200190815260200160002060006101000a81548160ff02191690831515021790555061192a67cde867a4d77cf94c60c01b611fe1565b61193e675cdc4958579f45ff60c01b611fe1565b8073ffffffffffffffffffffffffffffffffffffffff167f38cef8c286dbc5b3cb3edbc03ac9ab70b4ee28e1620b6c1530f5ae1070cf4aab60405160405180910390a250565b60066020528060005260406000206000915090508060000160009054906101000a900460ff16908060010180546119ba90613d01565b80601f01602080910402602001604051908101604052809291908181526020018280546119e690613d01565b8015611a335780601f10611a0857610100808354040283529160200191611a33565b820191906000526020600020905b815481529060010190602001808311611a1657829003601f168201915b505050505090806002015490806003015490806004018054611a5490613d01565b80601f0160208091040260200160405190810160405280929190818152602001828054611a8090613d01565b8015611acd5780601f10611aa257610100808354040283529160200191611acd565b820191906000526020600020905b815481529060010190602001808311611ab057829003601f168201915b5050505050905085565b611aeb67997d5b538650325560c01b611fe1565b611af3611fe4565b611b0767fccedb743c77c48160c01b611fe1565b611b1b6736c7e97dbd39bdb360c01b611fe1565b611b2f675ff297a92264a5f660c01b611fe1565b611b436707f2e2129d8bea9e60c01b611fe1565b611b576732b184616399a96160c01b611fe1565b600760009054906101000a900460ff1615611ba7576040517f08c379a0000000000000000000000000000000000000000000000000000000008152600401611b9e9061460b565b60405180910390fd5b611bbb67adabffa296570aa660c01b611fe1565b611bcf6701eeb8033440144c60c01b611fe1565b6040518060a001604052806001151581526020016040518060400160405280600781526020017f47454e455349530000000000000000000000000000000000000000000000000081525081526020016001815260200160008152602001604051806020016040528060008152508152506006600080815260200190815260200160002060008201518160000160006101000a81548160ff0219169083151502179055506020820151816001019081611c87919061402d565b5060408201518160020155606082015181600301556080820151816004019081611cb1919061402d565b50905050611cc967a9862b9876bd58c460c01b611fe1565b611cdd67d1d0389920b0c70060c01b611fe1565b611cfa3360006001604051806020016040528060008152506124b6565b611d0e671010fe6a8088e70760c01b611fe1565b6001600760006101000a81548160ff021916908315150217905550565b6000600160008473ffffffffffffffffffffffffffffffffffffffff1673ffffffffffffffffffffffffffffffffffffffff16815260200190815260200160002060008373ffffffffffffffffffffffffffffffffffffffff1673ffffffffffffffffffffffffffffffffffffffff16815260200190815260200160002060009054906101000a900460ff16905092915050565b611dc76120c7565b73ffffffffffffffffffffffffffffffffffffffff168573ffffffffffffffffffffffffffffffffffffffff161480611e0d5750611e0c85611e076120c7565b611d2b565b5b611e4c576040517f08c379a0000000000000000000000000000000000000000000000000000000008152600401611e4390614171565b60405180910390fd5b611e5985858585856127d2565b5050505050565b611e68611fe4565b600073ffffffffffffffffffffffffffffffffffffffff168173ffffffffffffffffffffffffffffffffffffffff1603611ed7576040517f08c379a0000000000000000000000000000000000000000000000000000000008152600401611ece9061469d565b60405180910390fd5b611ee0816123f0565b50565b60007f01ffc9a7000000000000000000000000000000000000000000000000000000007bffffffffffffffffffffffffffffffffffffffffffffffffffffffff1916827bffffffffffffffffffffffffffffffffffffffffffffffffffffffff1916149050919050565b606060028054611f5c90613d01565b80601f0160208091040260200160405190810160405280929190818152602001828054611f8890613d01565b8015611fd55780601f10611faa57610100808354040283529160200191611fd5565b820191906000526020600020905b815481529060010190602001808311611fb857829003601f168201915b50505050509050919050565b50565b611fec6120c7565b73ffffffffffffffffffffffffffffffffffffffff1661200a611287565b73ffffffffffffffffffffffffffffffffffffffff1614612060576040517f08c379a000000000000000000000000000000000000000000000000000000000815260040161205790614709565b60405180910390fd5b565b80600460008481526020019081526020016000209081612082919061402d565b50817f6bb7ff708619ba0610cba295a58592e0451dee2622938c8755667688daf3529b6120ae846105da565b6040516120bb9190613183565b60405180910390a25050565b600033905090565b8151835114612113576040517f08c379a000000000000000000000000000000000000000000000000000000000815260040161210a9061479b565b60405180910390fd5b600073ffffffffffffffffffffffffffffffffffffffff168473ffffffffffffffffffffffffffffffffffffffff1603612182576040517f08c379a00000000000000000000000000000000000000000000000000000000081526004016121799061482d565b60405180910390fd5b600061218c6120c7565b905061219c818787878787612a6d565b60005b845181101561234d5760008582815181106121bd576121bc614223565b5b6020026020010151905060008583815181106121dc576121db614223565b5b60200260200101519050600080600084815260200190815260200160002060008b73ffffffffffffffffffffffffffffffffffffffff1673ffffffffffffffffffffffffffffffffffffffff1681526020019081526020016000205490508181101561227d576040517f08c379a0000000000000000000000000000000000000000000000000000000008152600401612274906148bf565b60405180910390fd5b81810360008085815260200190815260200160002060008c73ffffffffffffffffffffffffffffffffffffffff1673ffffffffffffffffffffffffffffffffffffffff168152602001908152602001600020819055508160008085815260200190815260200160002060008b73ffffffffffffffffffffffffffffffffffffffff1673ffffffffffffffffffffffffffffffffffffffff16815260200190815260200160002060008282546123329190614335565b925050819055505050508061234690614281565b905061219f565b508473ffffffffffffffffffffffffffffffffffffffff168673ffffffffffffffffffffffffffffffffffffffff168273ffffffffffffffffffffffffffffffffffffffff167f4a39dc06d4c0dbc64b70af90fd698a233a518aa5d07e595d983b8c0526c8f7fb87876040516123c49291906148df565b60405180910390a46123da818787878787612a75565b6123e8818787878787612a7d565b505050505050565b6000600560009054906101000a900473ffffffffffffffffffffffffffffffffffffffff16905081600560006101000a81548173ffffffffffffffffffffffffffffffffffffffff021916908373ffffffffffffffffffffffffffffffffffffffff1602179055508173ffffffffffffffffffffffffffffffffffffffff168173ffffffffffffffffffffffffffffffffffffffff167f8be0079c531659141344cd1fd0a4f28419497f9722a3daafe3b4186f6b6457e060405160405180910390a35050565b600073ffffffffffffffffffffffffffffffffffffffff168473ffffffffffffffffffffffffffffffffffffffff1603612525576040517f08c379a000000000000000000000000000000000000000000000000000000000815260040161251c90614988565b60405180910390fd5b600061252f6120c7565b9050600061253c85612c54565b9050600061254985612c54565b905061255a83600089858589612a6d565b8460008088815260200190815260200160002060008973ffffffffffffffffffffffffffffffffffffffff1673ffffffffffffffffffffffffffffffffffffffff16815260200190815260200160002060008282546125b99190614335565b925050819055508673ffffffffffffffffffffffffffffffffffffffff16600073ffffffffffffffffffffffffffffffffffffffff168473ffffffffffffffffffffffffffffffffffffffff167fc3d58168c5ae7397731d063d5bbf3d657854427343f4c083240f7aacaa2d0f6289896040516126379291906149a8565b60405180910390a461264e83600089858589612a75565b61265d83600089898989612cce565b50505050505050565b8173ffffffffffffffffffffffffffffffffffffffff168373ffffffffffffffffffffffffffffffffffffffff16036126d4576040517f08c379a00000000000000000000000000000000000000000000000000000000081526004016126cb90614a43565b60405180910390fd5b80600160008573ffffffffffffffffffffffffffffffffffffffff1673ffffffffffffffffffffffffffffffffffffffff16815260200190815260200160002060008473ffffffffffffffffffffffffffffffffffffffff1673ffffffffffffffffffffffffffffffffffffffff16815260200190815260200160002060006101000a81548160ff0219169083151502179055508173ffffffffffffffffffffffffffffffffffffffff168373ffffffffffffffffffffffffffffffffffffffff167f17307eab39ab6107e8899845ad3d59bd9653f200f220920489ca2b5937696c31836040516127c591906130ab565b60405180910390a3505050565b600073ffffffffffffffffffffffffffffffffffffffff168473ffffffffffffffffffffffffffffffffffffffff1603612841576040517f08c379a00000000000000000000000000000000000000000000000000000000081526004016128389061482d565b60405180910390fd5b600061284b6120c7565b9050600061285885612c54565b9050600061286585612c54565b9050612875838989858589612a6d565b600080600088815260200190815260200160002060008a73ffffffffffffffffffffffffffffffffffffffff1673ffffffffffffffffffffffffffffffffffffffff1681526020019081526020016000205490508581101561290c576040517f08c379a0000000000000000000000000000000000000000000000000000000008152600401612903906148bf565b60405180910390fd5b85810360008089815260200190815260200160002060008b73ffffffffffffffffffffffffffffffffffffffff1673ffffffffffffffffffffffffffffffffffffffff168152602001908152602001600020819055508560008089815260200190815260200160002060008a73ffffffffffffffffffffffffffffffffffffffff1673ffffffffffffffffffffffffffffffffffffffff16815260200190815260200160002060008282546129c19190614335565b925050819055508773ffffffffffffffffffffffffffffffffffffffff168973ffffffffffffffffffffffffffffffffffffffff168573ffffffffffffffffffffffffffffffffffffffff167fc3d58168c5ae7397731d063d5bbf3d657854427343f4c083240f7aacaa2d0f628a8a604051612a3e9291906149a8565b60405180910390a4612a54848a8a86868a612a75565b612a62848a8a8a8a8a612cce565b505050505050505050565b505050505050565b505050505050565b612a9c8473ffffffffffffffffffffffffffffffffffffffff16612ea5565b15612c4c578373ffffffffffffffffffffffffffffffffffffffff1663bc197c8187878686866040518663ffffffff1660e01b8152600401612ae2959493929190614ab8565b6020604051808303816000875af1925050508015612b1e57506040513d601f19601f82011682018060405250810190612b1b9190614b35565b60015b612bc357612b2a614b6f565b806308c379a003612b865750612b3e614b91565b80612b495750612b88565b806040517f08c379a0000000000000000000000000000000000000000000000000000000008152600401612b7d9190613183565b60405180910390fd5b505b6040517f08c379a0000000000000000000000000000000000000000000000000000000008152600401612bba90614c93565b60405180910390fd5b63bc197c8160e01b7bffffffffffffffffffffffffffffffffffffffffffffffffffffffff1916817bffffffffffffffffffffffffffffffffffffffffffffffffffffffff191614612c4a576040517f08c379a0000000000000000000000000000000000000000000000000000000008152600401612c4190614d25565b60405180910390fd5b505b505050505050565b60606000600167ffffffffffffffff811115612c7357612c726131af565b5b604051908082528060200260200182016040528015612ca15781602001602082028036833780820191505090505b5090508281600081518110612cb957612cb8614223565b5b60200260200101818152505080915050919050565b612ced8473ffffffffffffffffffffffffffffffffffffffff16612ea5565b15612e9d578373ffffffffffffffffffffffffffffffffffffffff1663f23a6e6187878686866040518663ffffffff1660e01b8152600401612d33959493929190614d45565b6020604051808303816000875af1925050508015612d6f57506040513d601f19601f82011682018060405250810190612d6c9190614b35565b60015b612e1457612d7b614b6f565b806308c379a003612dd75750612d8f614b91565b80612d9a5750612dd9565b806040517f08c379a0000000000000000000000000000000000000000000000000000000008152600401612dce9190613183565b60405180910390fd5b505b6040517f08c379a0000000000000000000000000000000000000000000000000000000008152600401612e0b90614c93565b60405180910390fd5b63f23a6e6160e01b7bffffffffffffffffffffffffffffffffffffffffffffffffffffffff1916817bffffffffffffffffffffffffffffffffffffffffffffffffffffffff191614612e9b576040517f08c379a0000000000000000000000000000000000000000000000000000000008152600401612e9290614d25565b60405180910390fd5b505b505050505050565b6000808273ffffffffffffffffffffffffffffffffffffffff163b119050919050565b6040518060a00160405280600015158152602001606081526020016000815260200160008152602001606081525090565b6000604051905090565b600080fd5b600080fd5b600073ffffffffffffffffffffffffffffffffffffffff82169050919050565b6000612f3882612f0d565b9050919050565b612f4881612f2d565b8114612f5357600080fd5b50565b600081359050612f6581612f3f565b92915050565b6000819050919050565b612f7e81612f6b565b8114612f8957600080fd5b50565b600081359050612f9b81612f75565b92915050565b60008060408385031215612fb857612fb7612f03565b5b6000612fc685828601612f56565b9250506020612fd785828601612f8c565b9150509250929050565b612fea81612f6b565b82525050565b60006020820190506130056000830184612fe1565b92915050565b60007fffffffff0000000000000000000000000000000000000000000000000000000082169050919050565b6130408161300b565b811461304b57600080fd5b50565b60008135905061305d81613037565b92915050565b60006020828403121561307957613078612f03565b5b60006130878482850161304e565b91505092915050565b60008115159050919050565b6130a581613090565b82525050565b60006020820190506130c0600083018461309c565b92915050565b6000602082840312156130dc576130db612f03565b5b60006130ea84828501612f8c565b91505092915050565b600081519050919050565b600082825260208201905092915050565b60005b8381101561312d578082015181840152602081019050613112565b60008484015250505050565b6000601f19601f8301169050919050565b6000613155826130f3565b61315f81856130fe565b935061316f81856020860161310f565b61317881613139565b840191505092915050565b6000602082019050818103600083015261319d818461314a565b905092915050565b600080fd5b600080fd5b7f4e487b7100000000000000000000000000000000000000000000000000000000600052604160045260246000fd5b6131e782613139565b810181811067ffffffffffffffff82111715613206576132056131af565b5b80604052505050565b6000613219612ef9565b905061322582826131de565b919050565b600067ffffffffffffffff821115613245576132446131af565b5b61324e82613139565b9050602081019050919050565b82818337600083830152505050565b600061327d6132788461322a565b61320f565b905082815260208101848484011115613299576132986131aa565b5b6132a484828561325b565b509392505050565b600082601f8301126132c1576132c06131a5565b5b81356132d184826020860161326a565b91505092915050565b600080604083850312156132f1576132f0612f03565b5b60006132ff85828601612f8c565b925050602083013567ffffffffffffffff8111156133205761331f612f08565b5b61332c858286016132ac565b9150509250929050565b600067ffffffffffffffff821115613351576133506131af565b5b602082029050602081019050919050565b600080fd5b600061337a61337584613336565b61320f565b9050808382526020820190506020840283018581111561339d5761339c613362565b5b835b818110156133c657806133b28882612f8c565b84526020840193505060208101905061339f565b5050509392505050565b600082601f8301126133e5576133e46131a5565b5b81356133f5848260208601613367565b91505092915050565b600067ffffffffffffffff821115613419576134186131af565b5b61342282613139565b9050602081019050919050565b600061344261343d846133fe565b61320f565b90508281526020810184848401111561345e5761345d6131aa565b5b61346984828561325b565b509392505050565b600082601f830112613486576134856131a5565b5b813561349684826020860161342f565b91505092915050565b600080600080600060a086880312156134bb576134ba612f03565b5b60006134c988828901612f56565b95505060206134da88828901612f56565b945050604086013567ffffffffffffffff8111156134fb576134fa612f08565b5b613507888289016133d0565b935050606086013567ffffffffffffffff81111561352857613527612f08565b5b613534888289016133d0565b925050608086013567ffffffffffffffff81111561355557613554612f08565b5b61356188828901613471565b9150509295509295909350565b60008060006060848603121561358757613586612f03565b5b600061359586828701612f8c565b93505060206135a686828701612f8c565b925050604084013567ffffffffffffffff8111156135c7576135c6612f08565b5b6135d3868287016132ac565b9150509250925092565b6000602082840312156135f3576135f2612f03565b5b600061360184828501612f56565b91505092915050565b600067ffffffffffffffff821115613625576136246131af565b5b602082029050602081019050919050565b60006136496136448461360a565b61320f565b9050808382526020820190506020840283018581111561366c5761366b613362565b5b835b8181101561369557806136818882612f56565b84526020840193505060208101905061366e565b5050509392505050565b600082601f8301126136b4576136b36131a5565b5b81356136c4848260208601613636565b91505092915050565b600080604083850312156136e4576136e3612f03565b5b600083013567ffffffffffffffff81111561370257613701612f08565b5b61370e8582860161369f565b925050602083013567ffffffffffffffff81111561372f5761372e612f08565b5b61373b858286016133d0565b9150509250929050565b600081519050919050565b600082825260208201905092915050565b6000819050602082019050919050565b61377a81612f6b565b82525050565b600061378c8383613771565b60208301905092915050565b6000602082019050919050565b60006137b082613745565b6137ba8185613750565b93506137c583613761565b8060005b838110156137f65781516137dd8882613780565b97506137e883613798565b9250506001810190506137c9565b5085935050505092915050565b6000602082019050818103600083015261381d81846137a5565b905092915050565b60008060006060848603121561383e5761383d612f03565b5b600061384c86828701612f56565b935050602061385d86828701612f8c565b925050604061386e86828701612f8c565b9150509250925092565b61388181612f2d565b82525050565b600060208201905061389c6000830184613878565b92915050565b6138ab81613090565b82525050565b600082825260208201905092915050565b60006138cd826130f3565b6138d781856138b1565b93506138e781856020860161310f565b6138f081613139565b840191505092915050565b600060a08301600083015161391360008601826138a2565b506020830151848203602086015261392b82826138c2565b91505060408301516139406040860182613771565b5060608301516139536060860182613771565b506080830151848203608086015261396b82826138c2565b9150508091505092915050565b6000602082019050818103600083015261399281846138fb565b905092915050565b6139a381613090565b81146139ae57600080fd5b50565b6000813590506139c08161399a565b92915050565b600080604083850312156139dd576139dc612f03565b5b60006139eb85828601612f56565b92505060206139fc858286016139b1565b9150509250929050565b600080fd5b60008083601f840112613a2157613a206131a5565b5b8235905067ffffffffffffffff811115613a3e57613a3d613a06565b5b602083019150836001820283011115613a5a57613a59613362565b5b9250929050565b60008060008060008060808789031215613a7e57613a7d612f03565b5b6000613a8c89828a01612f8c565b9650506020613a9d89828a01612f8c565b955050604087013567ffffffffffffffff811115613abe57613abd612f08565b5b613aca89828a01613a0b565b9450945050606087013567ffffffffffffffff811115613aed57613aec612f08565b5b613af989828a01613a0b565b92509250509295509295509295565b600060a082019050613b1d600083018861309c565b8181036020830152613b2f818761314a565b9050613b3e6040830186612fe1565b613b4b6060830185612fe1565b8181036080830152613b5d818461314a565b90509695505050505050565b60008060408385031215613b8057613b7f612f03565b5b6000613b8e85828601612f56565b9250506020613b9f85828601612f56565b9150509250929050565b600080600080600060a08688031215613bc557613bc4612f03565b5b6000613bd388828901612f56565b9550506020613be488828901612f56565b9450506040613bf588828901612f8c565b9350506060613c0688828901612f8c565b925050608086013567ffffffffffffffff811115613c2757613c26612f08565b5b613c3388828901613471565b9150509295509295909350565b7f455243313135353a2061646472657373207a65726f206973206e6f742061207660008201527f616c6964206f776e657200000000000000000000000000000000000000000000602082015250565b6000613c9c602a836130fe565b9150613ca782613c40565b604082019050919050565b60006020820190508181036000830152613ccb81613c8f565b9050919050565b7f4e487b7100000000000000000000000000000000000000000000000000000000600052602260045260246000fd5b60006002820490506001821680613d1957607f821691505b602082108103613d2c57613d2b613cd2565b5b50919050565b600081905092915050565b60008190508160005260206000209050919050565b60008154613d5f81613d01565b613d698186613d32565b94506001821660008114613d845760018114613d9957613dcc565b60ff1983168652811515820286019350613dcc565b613da285613d3d565b60005b83811015613dc457815481890152600182019150602081019050613da5565b838801955050505b50505092915050565b6000613de0826130f3565b613dea8185613d32565b9350613dfa81856020860161310f565b80840191505092915050565b6000613e128285613d52565b9150613e1e8284613dd5565b91508190509392505050565b7f546f6b656e20646f6573206e6f74206578697374000000000000000000000000600082015250565b6000613e606014836130fe565b9150613e6b82613e2a565b602082019050919050565b60006020820190508181036000830152613e8f81613e53565b9050919050565b60006020601f8301049050919050565b600082821b905092915050565b600060088302613ee37fffffffffffffffffffffffffffffffffffffffffffffffffffffffffffffffff82613ea6565b613eed8683613ea6565b95508019841693508086168417925050509392505050565b6000819050919050565b6000613f2a613f25613f2084612f6b565b613f05565b612f6b565b9050919050565b6000819050919050565b613f4483613f0f565b613f58613f5082613f31565b848454613eb3565b825550505050565b600090565b613f6d613f60565b613f78818484613f3b565b505050565b5b81811015613f9c57613f91600082613f65565b600181019050613f7e565b5050565b601f821115613fe157613fb281613d3d565b613fbb84613e96565b81016020851015613fca578190505b613fde613fd685613e96565b830182613f7d565b50505b505050565b600082821c905092915050565b600061400460001984600802613fe6565b1980831691505092915050565b600061401d8383613ff3565b9150826002028217905092915050565b614036826130f3565b67ffffffffffffffff81111561404f5761404e6131af565b5b6140598254613d01565b614064828285613fa0565b600060209050601f8311600181146140975760008415614085578287015190505b61408f8582614011565b8655506140f7565b601f1984166140a586613d3d565b60005b828110156140cd578489015182556001820191506020850194506020810190506140a8565b868310156140ea57848901516140e6601f891682613ff3565b8355505b6001600288020188555050505b505050505050565b7f455243313135353a2063616c6c6572206973206e6f7420746f6b656e206f776e60008201527f6572206f7220617070726f766564000000000000000000000000000000000000602082015250565b600061415b602e836130fe565b9150614166826140ff565b604082019050919050565b6000602082019050818103600083015261418a8161414e565b9050919050565b7f455243313135353a206163636f756e747320616e6420696473206c656e67746860008201527f206d69736d617463680000000000000000000000000000000000000000000000602082015250565b60006141ed6029836130fe565b91506141f882614191565b604082019050919050565b6000602082019050818103600083015261421c816141e0565b9050919050565b7f4e487b7100000000000000000000000000000000000000000000000000000000600052603260045260246000fd5b7f4e487b7100000000000000000000000000000000000000000000000000000000600052601160045260246000fd5b600061428c82612f6b565b91507fffffffffffffffffffffffffffffffffffffffffffffffffffffffffffffffff82036142be576142bd614252565b5b600182019050919050565b7f436f6e747261637420697320616c726561647920617574686f72697a65640000600082015250565b60006142ff601e836130fe565b915061430a826142c9565b602082019050919050565b6000602082019050818103600083015261432e816142f2565b9050919050565b600061434082612f6b565b915061434b83612f6b565b925082820190508082111561436357614362614252565b5b92915050565b600060608201905061437e6000830186613878565b61438b6020830185612fe1565b6143986040830184612fe1565b949350505050565b7f43616c6c6572206973206e6f7420617574686f72697a65640000000000000000600082015250565b60006143d66018836130fe565b91506143e1826143a0565b602082019050919050565b60006020820190508181036000830152614405816143c9565b9050919050565b7f546f6b656e20616c726561647920696e697469616c697a656400000000000000600082015250565b60006144426019836130fe565b915061444d8261440c565b602082019050919050565b6000602082019050818103600083015261447181614435565b9050919050565b600082905092915050565b61448d8383614478565b67ffffffffffffffff8111156144a6576144a56131af565b5b6144b08254613d01565b6144bb828285613fa0565b6000601f8311600181146144ea57600084156144d8578287013590505b6144e28582614011565b86555061454a565b601f1984166144f886613d3d565b60005b82811015614520578489013582556001820191506020850194506020810190506144fb565b8683101561453d5784890135614539601f891682613ff3565b8355505b6001600288020188555050505b50505050505050565b7f436f6e7472616374206973206e6f7420617574686f72697a6564000000000000600082015250565b6000614589601a836130fe565b915061459482614553565b602082019050919050565b600060208201905081810360008301526145b88161457c565b9050919050565b7f496e69742068617320616c7265616479206265656e2063616c6c656400000000600082015250565b60006145f5601c836130fe565b9150614600826145bf565b602082019050919050565b60006020820190508181036000830152614624816145e8565b9050919050565b7f4f776e61626c653a206e6577206f776e657220697320746865207a65726f206160008201527f6464726573730000000000000000000000000000000000000000000000000000602082015250565b60006146876026836130fe565b91506146928261462b565b604082019050919050565b600060208201905081810360008301526146b68161467a565b9050919050565b7f4f776e61626c653a2063616c6c6572206973206e6f7420746865206f776e6572600082015250565b60006146f36020836130fe565b91506146fe826146bd565b602082019050919050565b60006020820190508181036000830152614722816146e6565b9050919050565b7f455243313135353a2069647320616e6420616d6f756e7473206c656e6774682060008201527f6d69736d61746368000000000000000000000000000000000000000000000000602082015250565b60006147856028836130fe565b915061479082614729565b604082019050919050565b600060208201905081810360008301526147b481614778565b9050919050565b7f455243313135353a207472616e7366657220746f20746865207a65726f20616460008201527f6472657373000000000000000000000000000000000000000000000000000000602082015250565b60006148176025836130fe565b9150614822826147bb565b604082019050919050565b600060208201905081810360008301526148468161480a565b9050919050565b7f455243313135353a20696e73756666696369656e742062616c616e636520666f60008201527f72207472616e7366657200000000000000000000000000000000000000000000602082015250565b60006148a9602a836130fe565b91506148b48261484d565b604082019050919050565b600060208201905081810360008301526148d88161489c565b9050919050565b600060408201905081810360008301526148f981856137a5565b9050818103602083015261490d81846137a5565b90509392505050565b7f455243313135353a206d696e7420746f20746865207a65726f2061646472657360008201527f7300000000000000000000000000000000000000000000000000000000000000602082015250565b60006149726021836130fe565b915061497d82614916565b604082019050919050565b600060208201905081810360008301526149a181614965565b9050919050565b60006040820190506149bd6000830185612fe1565b6149ca6020830184612fe1565b9392505050565b7f455243313135353a2073657474696e6720617070726f76616c2073746174757360008201527f20666f722073656c660000000000000000000000000000000000000000000000602082015250565b6000614a2d6029836130fe565b9150614a38826149d1565b604082019050919050565b60006020820190508181036000830152614a5c81614a20565b9050919050565b600081519050919050565b600082825260208201905092915050565b6000614a8a82614a63565b614a948185614a6e565b9350614aa481856020860161310f565b614aad81613139565b840191505092915050565b600060a082019050614acd6000830188613878565b614ada6020830187613878565b8181036040830152614aec81866137a5565b90508181036060830152614b0081856137a5565b90508181036080830152614b148184614a7f565b90509695505050505050565b600081519050614b2f81613037565b92915050565b600060208284031215614b4b57614b4a612f03565b5b6000614b5984828501614b20565b91505092915050565b60008160e01c9050919050565b600060033d1115614b8e5760046000803e614b8b600051614b62565b90505b90565b600060443d10614c1e57614ba3612ef9565b60043d036004823e80513d602482011167ffffffffffffffff82111715614bcb575050614c1e565b808201805167ffffffffffffffff811115614be95750505050614c1e565b80602083010160043d038501811115614c06575050505050614c1e565b614c15826020018501866131de565b82955050505050505b90565b7f455243313135353a207472616e7366657220746f206e6f6e2d4552433131353560008201527f526563656976657220696d706c656d656e746572000000000000000000000000602082015250565b6000614c7d6034836130fe565b9150614c8882614c21565b604082019050919050565b60006020820190508181036000830152614cac81614c70565b9050919050565b7f455243313135353a204552433131353552656365697665722072656a6563746560008201527f6420746f6b656e73000000000000000000000000000000000000000000000000602082015250565b6000614d0f6028836130fe565b9150614d1a82614cb3565b604082019050919050565b60006020820190508181036000830152614d3e81614d02565b9050919050565b600060a082019050614d5a6000830188613878565b614d676020830187613878565b614d746040830186612fe1565b614d816060830185612fe1565b8181036080830152614d938184614a7f565b9050969550505050505056fea2646970667358221220dba01859f11c07a1fe1bb056ff195a1921cea76ccca8d4bb6c87f9d93494ff0564736f6c63430008120033",
  "linkReferences": {},
  "deployedLinkReferences": {}
}