{
  "_format": "hh-sol-artifact-1",
  "contractName": "FundRaiser",
  "sourceName": "contracts/FundRaiser.sol",
  "abi": [
    {
      "inputs": [
        {
          "internalType": "contract IERC20",
          "name": "_acceptedToken",
          "type": "address"
        },
        {
          "internalType": "contract ITokenize",
          "name": "_tokenize",
          "type": "address"
        }
      ],
      "stateMutability": "nonpayable",
      "type": "constructor"
    },
    {
      "anonymous": false,
      "inputs": [
        {
          "indexed": true,
          "internalType": "address",
          "name": "previousOwner",
          "type": "address"
        },
        {
          "indexed": true,
          "internalType": "address",
          "name": "newOwner",
          "type": "address"
        }
      ],
      "name": "OwnershipTransferred",
      "type": "event"
    },
    {
      "anonymous": false,
      "inputs": [
        {
          "indexed": false,
          "internalType": "enum FundRaiser.WorkflowStatus",
          "name": "newStatus",
          "type": "uint8"
        }
      ],
      "name": "StatusChanged",
      "type": "event"
    },
    {
      "stateMutability": "payable",
      "type": "fallback"
    },
    {
      "inputs": [],
      "name": "MAX_TICKETS",
      "outputs": [
        {
          "internalType": "uint24",
          "name": "",
          "type": "uint24"
        }
      ],
      "stateMutability": "view",
      "type": "function"
    },
    {
      "inputs": [],
      "name": "TICKET_PRICE",
      "outputs": [
        {
          "internalType": "uint128",
          "name": "",
          "type": "uint128"
        }
      ],
      "stateMutability": "view",
      "type": "function"
    },
    {
      "inputs": [],
      "name": "acceptedToken",
      "outputs": [
        {
          "internalType": "contract IERC20",
          "name": "",
          "type": "address"
        }
      ],
      "stateMutability": "view",
      "type": "function"
    },
    {
      "inputs": [
        {
          "internalType": "address",
          "name": "_address",
          "type": "address"
        }
      ],
      "name": "addToWhitelist",
      "outputs": [],
      "stateMutability": "nonpayable",
      "type": "function"
    },
    {
      "inputs": [
        {
          "internalType": "uint24",
          "name": "numberOfTickets",
          "type": "uint24"
        }
      ],
      "name": "buyTicket",
      "outputs": [],
      "stateMutability": "nonpayable",
      "type": "function"
    },
    {
      "inputs": [],
      "name": "claimTokens",
      "outputs": [],
      "stateMutability": "nonpayable",
      "type": "function"
    },
    {
      "inputs": [],
      "name": "currentStatus",
      "outputs": [
        {
          "internalType": "enum FundRaiser.WorkflowStatus",
          "name": "",
          "type": "uint8"
        }
      ],
      "stateMutability": "view",
      "type": "function"
    },
    {
      "inputs": [],
      "name": "endFundraiser",
      "outputs": [],
      "stateMutability": "nonpayable",
      "type": "function"
    },
    {
      "inputs": [],
      "name": "owner",
      "outputs": [
        {
          "internalType": "address",
          "name": "",
          "type": "address"
        }
      ],
      "stateMutability": "view",
      "type": "function"
    },
    {
      "inputs": [],
      "name": "propertyId",
      "outputs": [
        {
          "internalType": "uint24",
          "name": "",
          "type": "uint24"
        }
      ],
      "stateMutability": "view",
      "type": "function"
    },
    {
      "inputs": [
        {
          "internalType": "address",
          "name": "_address",
          "type": "address"
        }
      ],
      "name": "removeFromWhitelist",
      "outputs": [],
      "stateMutability": "nonpayable",
      "type": "function"
    },
    {
      "inputs": [],
      "name": "renounceOwnership",
      "outputs": [],
      "stateMutability": "nonpayable",
      "type": "function"
    },
    {
      "inputs": [],
      "name": "requestRefund",
      "outputs": [],
      "stateMutability": "nonpayable",
      "type": "function"
    },
    {
      "inputs": [],
      "name": "startMinting",
      "outputs": [],
      "stateMutability": "nonpayable",
      "type": "function"
    },
    {
      "inputs": [
        {
          "internalType": "address",
          "name": "",
          "type": "address"
        }
      ],
      "name": "ticketOwners",
      "outputs": [
        {
          "internalType": "uint256",
          "name": "",
          "type": "uint256"
        }
      ],
      "stateMutability": "view",
      "type": "function"
    },
    {
      "inputs": [],
      "name": "ticketsSold",
      "outputs": [
        {
          "internalType": "uint256",
          "name": "",
          "type": "uint256"
        }
      ],
      "stateMutability": "view",
      "type": "function"
    },
    {
      "inputs": [],
      "name": "tokenize",
      "outputs": [
        {
          "internalType": "contract ITokenize",
          "name": "",
          "type": "address"
        }
      ],
      "stateMutability": "view",
      "type": "function"
    },
    {
      "inputs": [
        {
          "internalType": "address",
          "name": "newOwner",
          "type": "address"
        }
      ],
      "name": "transferOwnership",
      "outputs": [],
      "stateMutability": "nonpayable",
      "type": "function"
    },
    {
      "inputs": [
        {
          "internalType": "address",
          "name": "",
          "type": "address"
        }
      ],
      "name": "whitelist",
      "outputs": [
        {
          "internalType": "bool",
          "name": "",
          "type": "bool"
        }
      ],
      "stateMutability": "view",
      "type": "function"
    },
    {
      "stateMutability": "payable",
      "type": "receive"
    }
  ],
  "bytecode": "0x60806040526003805462ffffff60a01b1916600160a01b179055600060045534801561002a57600080fd5b50604051611352380380611352833981016040819052610049916100f9565b61005233610091565b60018055600280546001600160a01b039384166001600160a01b031991821617909155600380549290931691161790556005805460ff19169055610133565b600080546001600160a01b038381166001600160a01b0319831681178455604051919092169283917f8be0079c531659141344cd1fd0a4f28419497f9722a3daafe3b4186f6b6457e09190a35050565b6001600160a01b03811681146100f657600080fd5b50565b6000806040838503121561010c57600080fd5b8251610117816100e1565b6020840151909250610128816100e1565b809150509250929050565b611210806101426000396000f3fe6080604052600436106101185760003560e01c80639a65ea26116100a0578063e43252d711610064578063e43252d714610342578063ee7a3b8e14610362578063ef8a923514610399578063f2fde38b146103c0578063fca846dc146103e05761013e565b80639a65ea26146102a35780639b19251a146102b8578063bd46170c146102f8578063d5cef1331461030d578063d881a8a0146103225761013e565b806348c54b9d116100e757806348c54b9d14610223578063715018a61461023a5780638ab1d6811461024f5780638da5cb5b1461026f5780638f15024f1461028d5761013e565b80631a95f15f146101565780631f6ea78714610190578063451c3d80146101cb57806345cc13c3146102035761013e565b3661013e5760405162461bcd60e51b81526004016101359061100e565b60405180910390fd5b60405162461bcd60e51b81526004016101359061100e565b34801561016257600080fd5b50610173681b1ae4d6e2ef50000081565b6040516001600160801b0390911681526020015b60405180910390f35b34801561019c57600080fd5b506101bd6101ab366004611051565b60066020526000908152604090205481565b604051908152602001610187565b3480156101d757600080fd5b506002546101eb906001600160a01b031681565b6040516001600160a01b039091168152602001610187565b34801561020f57600080fd5b506003546101eb906001600160a01b031681565b34801561022f57600080fd5b506102386103f5565b005b34801561024657600080fd5b5061023861058d565b34801561025b57600080fd5b5061023861026a366004611051565b61059f565b34801561027b57600080fd5b506000546001600160a01b03166101eb565b34801561029957600080fd5b506101bd60045481565b3480156102af57600080fd5b50610238610641565b3480156102c457600080fd5b506102e86102d3366004611051565b60076020526000908152604090205460ff1681565b6040519015158152602001610187565b34801561030457600080fd5b506102386106f7565b34801561031957600080fd5b50610238610951565b34801561032e57600080fd5b5061023861033d366004611081565b610b99565b34801561034e57600080fd5b5061023861035d366004611051565b610def565b34801561036e57600080fd5b5060035461038590600160a01b900462ffffff1681565b60405162ffffff9091168152602001610187565b3480156103a557600080fd5b506005546103b39060ff1681565b60405161018791906110bc565b3480156103cc57600080fd5b506102386103db366004611051565b610e8f565b3480156103ec57600080fd5b5061038560c881565b6103fd610f05565b600260055460ff166002811115610416576104166110a6565b1461046f5760405162461bcd60e51b815260206004820152602360248201527f54686520746f6b656e206d696e74206973206e6f742079657420617661696c61604482015262626c6560e81b6064820152608401610135565b3360009081526007602052604090205460ff1661049e5760405162461bcd60e51b8152600401610135906110e4565b33600090815260066020526040902054806104fb5760405162461bcd60e51b815260206004820152601b60248201527f596f7520646f206e6f74206861766520616e79207469636b65747300000000006044820152606401610135565b600354604051637b9df71560e01b8152336004820152600160a01b820462ffffff166024820152604481018390526001600160a01b0390911690637b9df71590606401600060405180830381600087803b15801561055857600080fd5b505af115801561056c573d6000803e3d6000fd5b5050336000908152600660205260408120555061058b9150610f5e9050565b565b610595610f64565b61058b6000610fbe565b6105a7610f64565b6001600160a01b03811660009081526007602052604090205460ff166106205760405162461bcd60e51b815260206004820152602860248201527f5468652061646472657373206973206e6f742063757272656e746c79207768696044820152671d195b1a5cdd195960c21b6064820152608401610135565b6001600160a01b03166000908152600760205260409020805460ff19169055565b610649610f64565b600160055460ff166002811115610662576106626110a6565b146106af5760405162461bcd60e51b815260206004820152601c60248201527f46756e6472616973696e67206e6f742066696e697368656420796574000000006044820152606401610135565b6005805460ff191660029081179091556040517fafa725e7f44cadb687a7043853fa1a7e7b8f0da74ce87ec546e9420f04da8c1e916106ed916110bc565b60405180910390a1565b6106ff610f64565b600060055460ff166002811115610718576107186110a6565b146107655760405162461bcd60e51b815260206004820181905260248201527f46756e6472616973696e6720697320616c726561647920636f6d706c657465646044820152606401610135565b60045460c811156107b85760405162461bcd60e51b815260206004820152601860248201527f46756e6472616973696e67206e6f742066696e697368656400000000000000006044820152606401610135565b6005805460ff191660019081179091556040517fafa725e7f44cadb687a7043853fa1a7e7b8f0da74ce87ec546e9420f04da8c1e916107f6916110bc565b60405180910390a16002546040516370a0823160e01b81523060048201526000916001600160a01b0316906370a0823190602401602060405180830381865afa158015610847573d6000803e3d6000fd5b505050506040513d601f19601f8201168201806040525081019061086b919061111b565b6002549091506001600160a01b031663a9059cbb6108916000546001600160a01b031690565b6040516001600160e01b031960e084901b1681526001600160a01b039091166004820152602481018490526044016020604051808303816000875af11580156108de573d6000803e3d6000fd5b505050506040513d601f19601f820116820180604052508101906109029190611134565b61094e5760405162461bcd60e51b815260206004820152601d60248201527f4661696c656420746f207472616e736665722074686520746f6b656e730000006044820152606401610135565b50565b600060055460ff16600281111561096a5761096a6110a6565b146109b75760405162461bcd60e51b815260206004820181905260248201527f46756e6472616973696e6720697320616c726561647920636f6d706c657465646044820152606401610135565b60045460c811610a095760405162461bcd60e51b815260206004820152601a60248201527f416c6c207469636b6574732068617665206265656e20736f6c640000000000006044820152606401610135565b3360009081526007602052604090205460ff16610a385760405162461bcd60e51b8152600401610135906110e4565b3360009081526006602052604090205480610a955760405162461bcd60e51b815260206004820152601b60248201527f596f7520646f206e6f74206861766520616e79207469636b65747300000000006044820152606401610135565b6000610aaa681b1ae4d6e2ef5000008361116c565b60025460405163a9059cbb60e01b8152336004820152602481018390529192506001600160a01b03169063a9059cbb906044016020604051808303816000875af1158015610afc573d6000803e3d6000fd5b505050506040513d601f19601f82011682018060405250810190610b209190611134565b610b6c5760405162461bcd60e51b815260206004820152601b60248201527f4661696c656420746f20726566756e642074686520746f6b656e7300000000006044820152606401610135565b33600090815260066020526040812081905560048054849290610b90908490611189565b90915550505050565b610ba1610f05565b600060055460ff166002811115610bba57610bba6110a6565b14610bfb5760405162461bcd60e51b8152602060048201526011602482015270119d5b991c985a5cda5b99c8195b991959607a1b6044820152606401610135565b3360009081526007602052604090205460ff16610c2a5760405162461bcd60e51b8152600401610135906110e4565b60008162ffffff1611610c8b5760405162461bcd60e51b815260206004820152602360248201527f4174206c656173742031207469636b6574206d757374206265207075726368616044820152621cd95960ea1b6064820152608401610135565b60045460c890610ca19062ffffff84169061119c565b1115610cfe5760405162461bcd60e51b815260206004820152602660248201527f546865726520617265206e6f7420656e6f756768207469636b65747320617661604482015265696c61626c6560d01b6064820152608401610135565b6000610d1862ffffff8316681b1ae4d6e2ef5000006111af565b6002546040516323b872dd60e01b81523360048201523060248201526001600160801b03929092166044830181905292506001600160a01b0316906323b872dd906064016020604051808303816000875af1158015610d7b573d6000803e3d6000fd5b505050506040513d601f19601f82011682018060405250810190610d9f9190611134565b50336000908152600660205260408120805462ffffff85169290610dc490849061119c565b925050819055508162ffffff1660046000828254610de2919061119c565b9091555050600180555050565b610df7610f64565b6001600160a01b03811660009081526007602052604090205460ff1615610e6b5760405162461bcd60e51b815260206004820152602260248201527f546865206164647265737320697320616c72656164792077686974656c697374604482015261195960f21b6064820152608401610135565b6001600160a01b03166000908152600760205260409020805460ff19166001179055565b610e97610f64565b6001600160a01b038116610efc5760405162461bcd60e51b815260206004820152602660248201527f4f776e61626c653a206e6577206f776e657220697320746865207a65726f206160448201526564647265737360d01b6064820152608401610135565b61094e81610fbe565b600260015403610f575760405162461bcd60e51b815260206004820152601f60248201527f5265656e7472616e637947756172643a207265656e7472616e742063616c6c006044820152606401610135565b6002600155565b60018055565b6000546001600160a01b0316331461058b5760405162461bcd60e51b815260206004820181905260248201527f4f776e61626c653a2063616c6c6572206973206e6f7420746865206f776e65726044820152606401610135565b600080546001600160a01b038381166001600160a01b0319831681178455604051919092169283917f8be0079c531659141344cd1fd0a4f28419497f9722a3daafe3b4186f6b6457e09190a35050565b60208082526023908201527f5468697320636f6e747261637420646f6573206e6f74206163636570742065746040820152623432b960e91b606082015260800190565b60006020828403121561106357600080fd5b81356001600160a01b038116811461107a57600080fd5b9392505050565b60006020828403121561109357600080fd5b813562ffffff8116811461107a57600080fd5b634e487b7160e01b600052602160045260246000fd5b60208101600383106110de57634e487b7160e01b600052602160045260246000fd5b91905290565b6020808252601f908201527f596f75722061646472657373206973206e6f742077686974656c697374656400604082015260600190565b60006020828403121561112d57600080fd5b5051919050565b60006020828403121561114657600080fd5b8151801515811461107a57600080fd5b634e487b7160e01b600052601160045260246000fd5b808202811582820484141761118357611183611156565b92915050565b8181038181111561118357611183611156565b8082018082111561118357611183611156565b6001600160801b038181168382160280821691908281146111d2576111d2611156565b50509291505056fea26469706673582212201177f462cb56fef645e293a7e716fa81ec9e2418db193ef8800808cda84e44a464736f6c63430008120033",
  "linkReferences": {},
  "deployedLinkReferences": {}
}