{
  "_format": "hh-sol-artifact-1",
  "contractName": "FundRaiser",
  "sourceName": "contracts/FundRaiser.sol",
  "abi": [
    {
      "inputs": [
        {
          "internalType": "contract IERC20",
          "name": "_acceptedToken",
          "type": "address"
        },
        {
          "internalType": "contract ITokenize",
          "name": "_tokenize",
          "type": "address"
        }
      ],
      "stateMutability": "nonpayable",
      "type": "constructor"
    },
    {
      "anonymous": false,
      "inputs": [
        {
          "indexed": true,
          "internalType": "address",
          "name": "account",
          "type": "address"
        }
      ],
      "name": "AddedToWhitelist",
      "type": "event"
    },
    {
      "anonymous": false,
      "inputs": [
        {
          "indexed": true,
          "internalType": "address",
          "name": "previousOwner",
          "type": "address"
        },
        {
          "indexed": true,
          "internalType": "address",
          "name": "newOwner",
          "type": "address"
        }
      ],
      "name": "OwnershipTransferred",
      "type": "event"
    },
    {
      "anonymous": false,
      "inputs": [
        {
          "indexed": true,
          "internalType": "address",
          "name": "account",
          "type": "address"
        }
      ],
      "name": "RemovedFromWhitelist",
      "type": "event"
    },
    {
      "anonymous": false,
      "inputs": [
        {
          "indexed": false,
          "internalType": "enum FundRaiser.WorkflowStatus",
          "name": "newStatus",
          "type": "uint8"
        }
      ],
      "name": "StatusChanged",
      "type": "event"
    },
    {
      "stateMutability": "payable",
      "type": "fallback"
    },
    {
      "inputs": [],
      "name": "MAX_TICKETS",
      "outputs": [
        {
          "internalType": "uint24",
          "name": "",
          "type": "uint24"
        }
      ],
      "stateMutability": "view",
      "type": "function"
    },
    {
      "inputs": [],
      "name": "TICKET_PRICE",
      "outputs": [
        {
          "internalType": "uint128",
          "name": "",
          "type": "uint128"
        }
      ],
      "stateMutability": "view",
      "type": "function"
    },
    {
      "inputs": [],
      "name": "acceptedToken",
      "outputs": [
        {
          "internalType": "contract IERC20",
          "name": "",
          "type": "address"
        }
      ],
      "stateMutability": "view",
      "type": "function"
    },
    {
      "inputs": [
        {
          "internalType": "address",
          "name": "_address",
          "type": "address"
        }
      ],
      "name": "addToWhitelist",
      "outputs": [],
      "stateMutability": "nonpayable",
      "type": "function"
    },
    {
      "inputs": [
        {
          "internalType": "uint24",
          "name": "numberOfTickets",
          "type": "uint24"
        }
      ],
      "name": "buyTicket",
      "outputs": [],
      "stateMutability": "nonpayable",
      "type": "function"
    },
    {
      "inputs": [],
      "name": "claimTokens",
      "outputs": [],
      "stateMutability": "nonpayable",
      "type": "function"
    },
    {
      "inputs": [],
      "name": "currentStatus",
      "outputs": [
        {
          "internalType": "enum FundRaiser.WorkflowStatus",
          "name": "",
          "type": "uint8"
        }
      ],
      "stateMutability": "view",
      "type": "function"
    },
    {
      "inputs": [],
      "name": "endFundraiser",
      "outputs": [],
      "stateMutability": "nonpayable",
      "type": "function"
    },
    {
      "inputs": [],
      "name": "owner",
      "outputs": [
        {
          "internalType": "address",
          "name": "",
          "type": "address"
        }
      ],
      "stateMutability": "view",
      "type": "function"
    },
    {
      "inputs": [],
      "name": "propertyId",
      "outputs": [
        {
          "internalType": "uint24",
          "name": "",
          "type": "uint24"
        }
      ],
      "stateMutability": "view",
      "type": "function"
    },
    {
      "inputs": [
        {
          "internalType": "address",
          "name": "_address",
          "type": "address"
        }
      ],
      "name": "removeFromWhitelist",
      "outputs": [],
      "stateMutability": "nonpayable",
      "type": "function"
    },
    {
      "inputs": [],
      "name": "renounceOwnership",
      "outputs": [],
      "stateMutability": "nonpayable",
      "type": "function"
    },
    {
      "inputs": [],
      "name": "requestRefund",
      "outputs": [],
      "stateMutability": "nonpayable",
      "type": "function"
    },
    {
      "inputs": [],
      "name": "startFundraising",
      "outputs": [],
      "stateMutability": "nonpayable",
      "type": "function"
    },
    {
      "inputs": [],
      "name": "startMinting",
      "outputs": [],
      "stateMutability": "nonpayable",
      "type": "function"
    },
    {
      "inputs": [
        {
          "internalType": "address",
          "name": "",
          "type": "address"
        }
      ],
      "name": "ticketOwners",
      "outputs": [
        {
          "internalType": "uint256",
          "name": "",
          "type": "uint256"
        }
      ],
      "stateMutability": "view",
      "type": "function"
    },
    {
      "inputs": [],
      "name": "ticketsSold",
      "outputs": [
        {
          "internalType": "uint256",
          "name": "",
          "type": "uint256"
        }
      ],
      "stateMutability": "view",
      "type": "function"
    },
    {
      "inputs": [],
      "name": "tokenize",
      "outputs": [
        {
          "internalType": "contract ITokenize",
          "name": "",
          "type": "address"
        }
      ],
      "stateMutability": "view",
      "type": "function"
    },
    {
      "inputs": [
        {
          "internalType": "address",
          "name": "newOwner",
          "type": "address"
        }
      ],
      "name": "transferOwnership",
      "outputs": [],
      "stateMutability": "nonpayable",
      "type": "function"
    },
    {
      "inputs": [
        {
          "internalType": "address",
          "name": "",
          "type": "address"
        }
      ],
      "name": "whitelist",
      "outputs": [
        {
          "internalType": "bool",
          "name": "",
          "type": "bool"
        }
      ],
      "stateMutability": "view",
      "type": "function"
    },
    {
      "stateMutability": "payable",
      "type": "receive"
    }
  ],
  "bytecode": "0x60806040526001600360146101000a81548162ffffff021916908362ffffff16021790555060006004553480156200003657600080fd5b50604051620035493803806200354983398181016040528101906200005c91906200033d565b6200007c62000070620001ab60201b60201c565b620001b360201b60201c565b600180819055506200009f6725703627a3cd2f3c60c01b6200027760201b60201c565b620000bb675a600afe6d8bbe8a60c01b6200027760201b60201c565b81600260006101000a81548173ffffffffffffffffffffffffffffffffffffffff021916908373ffffffffffffffffffffffffffffffffffffffff1602179055506200011867341ed01b5ad5a4dd60c01b6200027760201b60201c565b80600360006101000a81548173ffffffffffffffffffffffffffffffffffffffff021916908373ffffffffffffffffffffffffffffffffffffffff16021790555062000175673c2c3474394f46a760c01b6200027760201b60201c565b6000600560006101000a81548160ff021916908360038111156200019e576200019d62000384565b5b02179055505050620003b3565b600033905090565b60008060009054906101000a900473ffffffffffffffffffffffffffffffffffffffff169050816000806101000a81548173ffffffffffffffffffffffffffffffffffffffff021916908373ffffffffffffffffffffffffffffffffffffffff1602179055508173ffffffffffffffffffffffffffffffffffffffff168173ffffffffffffffffffffffffffffffffffffffff167f8be0079c531659141344cd1fd0a4f28419497f9722a3daafe3b4186f6b6457e060405160405180910390a35050565b50565b600080fd5b600073ffffffffffffffffffffffffffffffffffffffff82169050919050565b6000620002ac826200027f565b9050919050565b6000620002c0826200029f565b9050919050565b620002d281620002b3565b8114620002de57600080fd5b50565b600081519050620002f281620002c7565b92915050565b600062000305826200029f565b9050919050565b6200031781620002f8565b81146200032357600080fd5b50565b60008151905062000337816200030c565b92915050565b600080604083850312156200035757620003566200027a565b5b60006200036785828601620002e1565b92505060206200037a8582860162000326565b9150509250929050565b7f4e487b7100000000000000000000000000000000000000000000000000000000600052602160045260246000fd5b61318680620003c36000396000f3fe6080604052600436106101235760003560e01c80639a65ea26116100a0578063e43252d711610064578063e43252d71461041b578063ee7a3b8e14610444578063ef8a92351461046f578063f2fde38b1461049a578063fca846dc146104c357610177565b80639a65ea26146103705780639b19251a14610387578063bd46170c146103c4578063d5cef133146103db578063d881a8a0146103f257610177565b8063715018a6116100e7578063715018a6146102c357806381ef1b18146102da5780638ab1d681146102f15780638da5cb5b1461031a5780638f15024f1461034557610177565b80631a95f15f146101ee5780631f6ea78714610219578063451c3d801461025657806345cc13c31461028157806348c54b9d146102ac57610177565b366101775761013c676113071a6d412db160c01b6104ee565b6040517f08c379a000000000000000000000000000000000000000000000000000000000815260040161016e906122ba565b60405180910390fd5b61018b67f678292d3125b59460c01b6104ee565b61019f670e01da5bfe5d938d60c01b6104ee565b6101b367b8f925a13cc51d3360c01b6104ee565b6040517f08c379a00000000000000000000000000000000000000000000000000000000081526004016101e5906122ba565b60405180910390fd5b3480156101fa57600080fd5b506102036104f1565b6040516102109190612305565b60405180910390f35b34801561022557600080fd5b50610240600480360381019061023b9190612383565b6104fe565b60405161024d91906123c9565b60405180910390f35b34801561026257600080fd5b5061026b610516565b6040516102789190612443565b60405180910390f35b34801561028d57600080fd5b5061029661053c565b6040516102a3919061247f565b60405180910390f35b3480156102b857600080fd5b506102c1610562565b005b3480156102cf57600080fd5b506102d8610974565b005b3480156102e657600080fd5b506102ef610988565b005b3480156102fd57600080fd5b5061031860048036038101906103139190612383565b610b41565b005b34801561032657600080fd5b5061032f610d3b565b60405161033c91906124a9565b60405180910390f35b34801561035157600080fd5b5061035a610d64565b60405161036791906123c9565b60405180910390f35b34801561037c57600080fd5b50610385610d6a565b005b34801561039357600080fd5b506103ae60048036038101906103a99190612383565b610f23565b6040516103bb91906124df565b60405180910390f35b3480156103d057600080fd5b506103d9610f43565b005b3480156103e757600080fd5b506103f0611396565b005b3480156103fe57600080fd5b5061041960048036038101906104149190612535565b6118f1565b005b34801561042757600080fd5b50610442600480360381019061043d9190612383565b611dea565b005b34801561045057600080fd5b50610459611fe5565b6040516104669190612571565b60405180910390f35b34801561047b57600080fd5b50610484611ffa565b6040516104919190612603565b60405180910390f35b3480156104a657600080fd5b506104c160048036038101906104bc9190612383565b61200d565b005b3480156104cf57600080fd5b506104d8612090565b6040516104e59190612571565b60405180910390f35b50565b681b1ae4d6e2ef50000081565b60066020528060005260406000206000915090505481565b600260009054906101000a900473ffffffffffffffffffffffffffffffffffffffff1681565b600360009054906101000a900473ffffffffffffffffffffffffffffffffffffffff1681565b61057667ad96359066b7cf9f60c01b6104ee565b61057e612095565b61059267db14005a2209a7dc60c01b6104ee565b6105a667ce046b0b400fedee60c01b6104ee565b6105ba67bbc79d68e417913060c01b6104ee565b6105ce678f4ca69608692ce360c01b6104ee565b6105e2678e65f408569cb7cb60c01b6104ee565b6003808111156105f5576105f461258c565b5b600560009054906101000a900460ff1660038111156106175761061661258c565b5b14610657576040517f08c379a000000000000000000000000000000000000000000000000000000000815260040161064e90612690565b60405180910390fd5b61066b67b9cbd2dcd4cfd99b60c01b6104ee565b61067f67ef44979c8ee6187a60c01b6104ee565b61069367d59864e605c6eb7f60c01b6104ee565b6106a7672618b5ea08c8a09560c01b6104ee565b600760003373ffffffffffffffffffffffffffffffffffffffff1673ffffffffffffffffffffffffffffffffffffffff16815260200190815260200160002060009054906101000a900460ff16610733576040517f08c379a000000000000000000000000000000000000000000000000000000000815260040161072a906126fc565b60405180910390fd5b61074767d86bbde57315e3f560c01b6104ee565b61075b6745235d2fee8d46f160c01b6104ee565b61076f67b1497c03b03e912560c01b6104ee565b6000600660003373ffffffffffffffffffffffffffffffffffffffff1673ffffffffffffffffffffffffffffffffffffffff1681526020019081526020016000205490506107c7676f2a562c13def8d860c01b6104ee565b6107db671c96de8c99b27bc660c01b6104ee565b6107ef674f7a9fbda339a1df60c01b6104ee565b60008111610832576040517f08c379a000000000000000000000000000000000000000000000000000000000815260040161082990612768565b60405180910390fd5b610846671be737515707058b60c01b6104ee565b61085a67bd45ca56e53811e960c01b6104ee565b61086e67b49b13986758efe560c01b6104ee565b600360009054906101000a900473ffffffffffffffffffffffffffffffffffffffff1673ffffffffffffffffffffffffffffffffffffffff16637b9df71533600360149054906101000a900462ffffff16846040518463ffffffff1660e01b81526004016108de939291906127b9565b600060405180830381600087803b1580156108f857600080fd5b505af115801561090c573d6000803e3d6000fd5b50505050610924670e02a39ccaa5290860c01b6104ee565b6000600660003373ffffffffffffffffffffffffffffffffffffffff1673ffffffffffffffffffffffffffffffffffffffff16815260200190815260200160002081905550506109726120e4565b565b61097c6120ed565b610986600061216b565b565b61099c6776ed6ec00af6059660c01b6104ee565b6109a46120ed565b6109b8675348aec27cfb232f60c01b6104ee565b6109cc6753236973d8a9e94460c01b6104ee565b6109e067a6458fc51c5585ba60c01b6104ee565b6109f46729716200a98fa32b60c01b6104ee565b610a0867832f19de3f5018ea60c01b6104ee565b60006003811115610a1c57610a1b61258c565b5b600560009054906101000a900460ff166003811115610a3e57610a3d61258c565b5b14610a7e576040517f08c379a0000000000000000000000000000000000000000000000000000000008152600401610a7590612862565b60405180910390fd5b610a9267a35215d6008f6d5960c01b6104ee565b610aa6673339c2813f4b68d060c01b6104ee565b6001600560006101000a81548160ff02191690836003811115610acc57610acb61258c565b5b0217905550610ae567f3482c962bce201b60c01b6104ee565b610af967997780774b3f3cd360c01b6104ee565b7fafa725e7f44cadb687a7043853fa1a7e7b8f0da74ce87ec546e9420f04da8c1e600560009054906101000a900460ff16604051610b379190612603565b60405180910390a1565b610b556790af7d0548672def60c01b6104ee565b610b5d6120ed565b610b7167d88a3c16d915afbd60c01b6104ee565b610b85675fecb5c4e28b852a60c01b6104ee565b610b99678f266020109c7bb960c01b6104ee565b610bad67a6054fbbe803652660c01b6104ee565b610bc1679d9c8fc7c5ce99ac60c01b6104ee565b600760008273ffffffffffffffffffffffffffffffffffffffff1673ffffffffffffffffffffffffffffffffffffffff16815260200190815260200160002060009054906101000a900460ff16610c4d576040517f08c379a0000000000000000000000000000000000000000000000000000000008152600401610c44906128f4565b60405180910390fd5b610c6167c252760c726848f160c01b6104ee565b610c7567a381e773e2cb803560c01b6104ee565b6000600760008373ffffffffffffffffffffffffffffffffffffffff1673ffffffffffffffffffffffffffffffffffffffff16815260200190815260200160002060006101000a81548160ff021916908315150217905550610ce1677401604be4aceed860c01b6104ee565b610cf5678a3170e2d50799fe60c01b6104ee565b8073ffffffffffffffffffffffffffffffffffffffff167fcdd2e9b91a56913d370075169cefa1602ba36be5301664f752192bb1709df75760405160405180910390a250565b60008060009054906101000a900473ffffffffffffffffffffffffffffffffffffffff16905090565b60045481565b610d7e67b61d6e794dd1da7b60c01b6104ee565b610d866120ed565b610d9a67a661a523b8971e2a60c01b6104ee565b610dae67befb11f77e20809260c01b6104ee565b610dc267542f5472efbec98060c01b6104ee565b610dd667c3339641b3ee222160c01b6104ee565b610dea67d7391cb6c79c770860c01b6104ee565b60026003811115610dfe57610dfd61258c565b5b600560009054906101000a900460ff166003811115610e2057610e1f61258c565b5b14610e60576040517f08c379a0000000000000000000000000000000000000000000000000000000008152600401610e5790612960565b60405180910390fd5b610e746787c964e49645e32c60c01b6104ee565b610e88676a18d1993713336f60c01b6104ee565b6003600560006101000a81548160ff02191690836003811115610eae57610ead61258c565b5b0217905550610ec767e338cd189eeaef8660c01b6104ee565b610edb67ef4e8c4d473dc9bd60c01b6104ee565b7fafa725e7f44cadb687a7043853fa1a7e7b8f0da74ce87ec546e9420f04da8c1e600560009054906101000a900460ff16604051610f199190612603565b60405180910390a1565b60076020528060005260406000206000915054906101000a900460ff1681565b610f57675d2a82e6e46c24c360c01b6104ee565b610f5f6120ed565b610f7367ec6ac7c49a6c65a460c01b6104ee565b610f8767bd7865c04d1a52be60c01b6104ee565b610f9b67fbfad95bbf0481d360c01b6104ee565b610faf67329a487262176d9260c01b6104ee565b610fc36710471f55c0ba922660c01b6104ee565b60016003811115610fd757610fd661258c565b5b600560009054906101000a900460ff166003811115610ff957610ff861258c565b5b14611039576040517f08c379a0000000000000000000000000000000000000000000000000000000008152600401611030906129cc565b60405180910390fd5b61104d67c06896d9ff1754d060c01b6104ee565b61106167baf7dca33b96356060c01b6104ee565b61107567bab5f323d179873d60c01b6104ee565b611089671f6a3024d7e4734a60c01b6104ee565b60c862ffffff1660045410156110d4576040517f08c379a00000000000000000000000000000000000000000000000000000000081526004016110cb90612a38565b60405180910390fd5b6110e867e0556afbd3ef82d460c01b6104ee565b6110fc6738f548e7915cb7f560c01b6104ee565b6002600560006101000a81548160ff021916908360038111156111225761112161258c565b5b021790555061113b67fa3c57762c1fe40a60c01b6104ee565b61114f67bc3d5cfb0765830d60c01b6104ee565b7fafa725e7f44cadb687a7043853fa1a7e7b8f0da74ce87ec546e9420f04da8c1e600560009054906101000a900460ff1660405161118d9190612603565b60405180910390a16111a967f9e345ad032195d560c01b6104ee565b6111bd67114821faaa9cbc8260c01b6104ee565b6000600260009054906101000a900473ffffffffffffffffffffffffffffffffffffffff1673ffffffffffffffffffffffffffffffffffffffff166370a08231306040518263ffffffff1660e01b815260040161121a91906124a9565b602060405180830381865afa158015611237573d6000803e3d6000fd5b505050506040513d601f19601f8201168201806040525081019061125b9190612a84565b905061127167601a7aee788d71e260c01b6104ee565b61128567b9333c641b7ed8d160c01b6104ee565b61129967692547efe133c50860c01b6104ee565b600260009054906101000a900473ffffffffffffffffffffffffffffffffffffffff1673ffffffffffffffffffffffffffffffffffffffff1663a9059cbb6112df610d3b565b836040518363ffffffff1660e01b81526004016112fd929190612ab1565b6020604051808303816000875af115801561131c573d6000803e3d6000fd5b505050506040513d601f19601f820116820180604052508101906113409190612b06565b61137f576040517f08c379a000000000000000000000000000000000000000000000000000000000815260040161137690612b7f565b60405180910390fd5b61139367ad298332a7275a9860c01b6104ee565b50565b6113aa679fe78a248589907a60c01b6104ee565b6113be67369d2aa73512115760c01b6104ee565b6113d2676629ad3656a787e260c01b6104ee565b6113e667aa985d2b1584f4e760c01b6104ee565b600160038111156113fa576113f961258c565b5b600560009054906101000a900460ff16600381111561141c5761141b61258c565b5b1461145c576040517f08c379a0000000000000000000000000000000000000000000000000000000008152600401611453906129cc565b60405180910390fd5b611470675e63411f8440f6e760c01b6104ee565b6114846794bed0367712c58760c01b6104ee565b61149867b0fd6e6d464ef3b160c01b6104ee565b6114ac67e81f32b2579c51b260c01b6104ee565b60c862ffffff16600454106114f6576040517f08c379a00000000000000000000000000000000000000000000000000000000081526004016114ed90612beb565b60405180910390fd5b61150a670945981b35df297260c01b6104ee565b61151e67afe3c39a94b8836260c01b6104ee565b6115326733935b3f4b175bf360c01b6104ee565b611546672dc9cd410940335a60c01b6104ee565b600760003373ffffffffffffffffffffffffffffffffffffffff1673ffffffffffffffffffffffffffffffffffffffff16815260200190815260200160002060009054906101000a900460ff166115d2576040517f08c379a00000000000000000000000000000000000000000000000000000000081526004016115c9906126fc565b60405180910390fd5b6115e66752b5270b944e791860c01b6104ee565b6115fa67645adec8705e0b0060c01b6104ee565b61160e67b7a88b6fcd5aedc360c01b6104ee565b6000600660003373ffffffffffffffffffffffffffffffffffffffff1673ffffffffffffffffffffffffffffffffffffffff16815260200190815260200160002054905061166667fe9c77fba097e48460c01b6104ee565b61167a670a864d9f71d9686c60c01b6104ee565b61168e67adc491fddd35c9ad60c01b6104ee565b600081116116d1576040517f08c379a00000000000000000000000000000000000000000000000000000000081526004016116c890612768565b60405180910390fd5b6116e567bff0e3e2293cce5960c01b6104ee565b6116f96782ea0965cf91acd860c01b6104ee565b61170d67b9c2b20f24c19dcb60c01b6104ee565b6000681b1ae4d6e2ef5000006fffffffffffffffffffffffffffffffff16826117369190612c3a565b905061174c675cdf0d8c7b896e0060c01b6104ee565b611760673f2ec9ab99508f3060c01b6104ee565b611774675b1794a365bece6f60c01b6104ee565b600260009054906101000a900473ffffffffffffffffffffffffffffffffffffffff1673ffffffffffffffffffffffffffffffffffffffff1663a9059cbb33836040518363ffffffff1660e01b81526004016117d1929190612ab1565b6020604051808303816000875af11580156117f0573d6000803e3d6000fd5b505050506040513d601f19601f820116820180604052508101906118149190612b06565b611853576040517f08c379a000000000000000000000000000000000000000000000000000000000815260040161184a90612cc8565b60405180910390fd5b611867678a893509dc89146c60c01b6104ee565b61187b67ab8a38c5a3e781ec60c01b6104ee565b6000600660003373ffffffffffffffffffffffffffffffffffffffff1673ffffffffffffffffffffffffffffffffffffffff168152602001908152602001600020819055506118d467d57736e8a2b5573460c01b6104ee565b81600460008282546118e69190612ce8565b925050819055505050565b611905671597bf808c66eff960c01b6104ee565b61190d612095565b611921677297cc73954ddea760c01b6104ee565b6119356784d6b9e662d9e00d60c01b6104ee565b611949670cb5cbb7551c006660c01b6104ee565b61195d67c64b863d3d0f824a60c01b6104ee565b6119716797585d4587d938ae60c01b6104ee565b600160038111156119855761198461258c565b5b600560009054906101000a900460ff1660038111156119a7576119a661258c565b5b146119e7576040517f08c379a00000000000000000000000000000000000000000000000000000000081526004016119de90612d68565b60405180910390fd5b6119fb671e1beda991230c0d60c01b6104ee565b611a0f674cce8332d9d6a41d60c01b6104ee565b611a23672ee6bac2c6d7490760c01b6104ee565b611a3767a1bc009be433a51d60c01b6104ee565b600760003373ffffffffffffffffffffffffffffffffffffffff1673ffffffffffffffffffffffffffffffffffffffff16815260200190815260200160002060009054906101000a900460ff16611ac3576040517f08c379a0000000000000000000000000000000000000000000000000000000008152600401611aba906126fc565b60405180910390fd5b611ad7675923aedf3597f06d60c01b6104ee565b611aeb67ec21fdf260373f5160c01b6104ee565b611aff67c0349837fa23b30660c01b6104ee565b611b13671d703554d98b6b1260c01b6104ee565b60008162ffffff1611611b5b576040517f08c379a0000000000000000000000000000000000000000000000000000000008152600401611b5290612dfa565b60405180910390fd5b611b6f6759a7a53c8bbee93260c01b6104ee565b611b83678d9816fe32788ca960c01b6104ee565b611b9767e2ede45b6f39e6f260c01b6104ee565b611bab673ddac45895f2ef0560c01b6104ee565b60c862ffffff168162ffffff16600454611bc59190612e1a565b1115611c06576040517f08c379a0000000000000000000000000000000000000000000000000000000008152600401611bfd90612ec0565b60405180910390fd5b611c1a67d9510c3502f4a0b260c01b6104ee565b611c2e67dc4151629eb66e2b60c01b6104ee565b611c42678d3e3d500ff7ac3960c01b6104ee565b60008162ffffff16681b1ae4d6e2ef500000611c5e9190612ee0565b6fffffffffffffffffffffffffffffffff169050611c8667023b00310c57bf3660c01b6104ee565b611c9a671bae9149d0ff77f760c01b6104ee565b600260009054906101000a900473ffffffffffffffffffffffffffffffffffffffff1673ffffffffffffffffffffffffffffffffffffffff166323b872dd3330846040518463ffffffff1660e01b8152600401611cf993929190612f1d565b6020604051808303816000875af1158015611d18573d6000803e3d6000fd5b505050506040513d601f19601f82011682018060405250810190611d3c9190612b06565b50611d5167c3a5677b5ea1c04360c01b6104ee565b8162ffffff16600660003373ffffffffffffffffffffffffffffffffffffffff1673ffffffffffffffffffffffffffffffffffffffff1681526020019081526020016000206000828254611da59190612e1a565b92505081905550611dc067f70232f1fb37330a60c01b6104ee565b8162ffffff1660046000828254611dd79190612e1a565b9250508190555050611de76120e4565b50565b611dfe678c767649245d44c660c01b6104ee565b611e066120ed565b611e1a67af597e0fc22de02e60c01b6104ee565b611e2e67b4a2a41c4690520360c01b6104ee565b611e4267911107064663cdb260c01b6104ee565b611e56672d2cced04cb264f060c01b6104ee565b611e6a670fe6fed52c68c17a60c01b6104ee565b600760008273ffffffffffffffffffffffffffffffffffffffff1673ffffffffffffffffffffffffffffffffffffffff16815260200190815260200160002060009054906101000a900460ff1615611ef7576040517f08c379a0000000000000000000000000000000000000000000000000000000008152600401611eee90612fc6565b60405180910390fd5b611f0b6762710b275cf5ac6e60c01b6104ee565b611f1f674fe011bf0d81b58e60c01b6104ee565b6001600760008373ffffffffffffffffffffffffffffffffffffffff1673ffffffffffffffffffffffffffffffffffffffff16815260200190815260200160002060006101000a81548160ff021916908315150217905550611f8b676a4d40373b6885ea60c01b6104ee565b611f9f671c1b2fec1b3f649560c01b6104ee565b8073ffffffffffffffffffffffffffffffffffffffff167fa850ae9193f515cbae8d35e8925bd2be26627fc91bce650b8652ed254e9cab0360405160405180910390a250565b600360149054906101000a900462ffffff1681565b600560009054906101000a900460ff1681565b6120156120ed565b600073ffffffffffffffffffffffffffffffffffffffff168173ffffffffffffffffffffffffffffffffffffffff1603612084576040517f08c379a000000000000000000000000000000000000000000000000000000000815260040161207b90613058565b60405180910390fd5b61208d8161216b565b50565b60c881565b6002600154036120da576040517f08c379a00000000000000000000000000000000000000000000000000000000081526004016120d1906130c4565b60405180910390fd5b6002600181905550565b60018081905550565b6120f561222f565b73ffffffffffffffffffffffffffffffffffffffff16612113610d3b565b73ffffffffffffffffffffffffffffffffffffffff1614612169576040517f08c379a000000000000000000000000000000000000000000000000000000000815260040161216090613130565b60405180910390fd5b565b60008060009054906101000a900473ffffffffffffffffffffffffffffffffffffffff169050816000806101000a81548173ffffffffffffffffffffffffffffffffffffffff021916908373ffffffffffffffffffffffffffffffffffffffff1602179055508173ffffffffffffffffffffffffffffffffffffffff168173ffffffffffffffffffffffffffffffffffffffff167f8be0079c531659141344cd1fd0a4f28419497f9722a3daafe3b4186f6b6457e060405160405180910390a35050565b600033905090565b600082825260208201905092915050565b7f5468697320636f6e747261637420646f6573206e6f742061636365707420657460008201527f6865720000000000000000000000000000000000000000000000000000000000602082015250565b60006122a4602383612237565b91506122af82612248565b604082019050919050565b600060208201905081810360008301526122d381612297565b9050919050565b60006fffffffffffffffffffffffffffffffff82169050919050565b6122ff816122da565b82525050565b600060208201905061231a60008301846122f6565b92915050565b600080fd5b600073ffffffffffffffffffffffffffffffffffffffff82169050919050565b600061235082612325565b9050919050565b61236081612345565b811461236b57600080fd5b50565b60008135905061237d81612357565b92915050565b60006020828403121561239957612398612320565b5b60006123a78482850161236e565b91505092915050565b6000819050919050565b6123c3816123b0565b82525050565b60006020820190506123de60008301846123ba565b92915050565b6000819050919050565b60006124096124046123ff84612325565b6123e4565b612325565b9050919050565b600061241b826123ee565b9050919050565b600061242d82612410565b9050919050565b61243d81612422565b82525050565b60006020820190506124586000830184612434565b92915050565b600061246982612410565b9050919050565b6124798161245e565b82525050565b60006020820190506124946000830184612470565b92915050565b6124a381612345565b82525050565b60006020820190506124be600083018461249a565b92915050565b60008115159050919050565b6124d9816124c4565b82525050565b60006020820190506124f460008301846124d0565b92915050565b600062ffffff82169050919050565b612512816124fa565b811461251d57600080fd5b50565b60008135905061252f81612509565b92915050565b60006020828403121561254b5761254a612320565b5b600061255984828501612520565b91505092915050565b61256b816124fa565b82525050565b60006020820190506125866000830184612562565b92915050565b7f4e487b7100000000000000000000000000000000000000000000000000000000600052602160045260246000fd5b600481106125cc576125cb61258c565b5b50565b60008190506125dd826125bb565b919050565b60006125ed826125cf565b9050919050565b6125fd816125e2565b82525050565b600060208201905061261860008301846125f4565b92915050565b7f54686520746f6b656e206d696e74206973206e6f742079657420617661696c6160008201527f626c650000000000000000000000000000000000000000000000000000000000602082015250565b600061267a602383612237565b91506126858261261e565b604082019050919050565b600060208201905081810360008301526126a98161266d565b9050919050565b7f596f75722061646472657373206973206e6f742077686974656c697374656400600082015250565b60006126e6601f83612237565b91506126f1826126b0565b602082019050919050565b60006020820190508181036000830152612715816126d9565b9050919050565b7f596f7520646f206e6f74206861766520616e79207469636b6574730000000000600082015250565b6000612752601b83612237565b915061275d8261271c565b602082019050919050565b6000602082019050818103600083015261278181612745565b9050919050565b60006127a361279e612799846124fa565b6123e4565b6123b0565b9050919050565b6127b381612788565b82525050565b60006060820190506127ce600083018661249a565b6127db60208301856127aa565b6127e860408301846123ba565b949350505050565b7f43616e6e6f742073746172742066756e6472616973696e672066726f6d20637560008201527f7272656e74207374617475730000000000000000000000000000000000000000602082015250565b600061284c602c83612237565b9150612857826127f0565b604082019050919050565b6000602082019050818103600083015261287b8161283f565b9050919050565b7f5468652061646472657373206973206e6f742063757272656e746c792077686960008201527f74656c6973746564000000000000000000000000000000000000000000000000602082015250565b60006128de602883612237565b91506128e982612882565b604082019050919050565b6000602082019050818103600083015261290d816128d1565b9050919050565b7f46756e6472616973696e67206e6f742066696e69736865642079657400000000600082015250565b600061294a601c83612237565b915061295582612914565b602082019050919050565b600060208201905081810360008301526129798161293d565b9050919050565b7f46756e6472616973696e6720697320616c726561647920636f6d706c65746564600082015250565b60006129b6602083612237565b91506129c182612980565b602082019050919050565b600060208201905081810360008301526129e5816129a9565b9050919050565b7f46756e6472616973696e67206e6f742066696e69736865640000000000000000600082015250565b6000612a22601883612237565b9150612a2d826129ec565b602082019050919050565b60006020820190508181036000830152612a5181612a15565b9050919050565b612a61816123b0565b8114612a6c57600080fd5b50565b600081519050612a7e81612a58565b92915050565b600060208284031215612a9a57612a99612320565b5b6000612aa884828501612a6f565b91505092915050565b6000604082019050612ac6600083018561249a565b612ad360208301846123ba565b9392505050565b612ae3816124c4565b8114612aee57600080fd5b50565b600081519050612b0081612ada565b92915050565b600060208284031215612b1c57612b1b612320565b5b6000612b2a84828501612af1565b91505092915050565b7f4661696c656420746f207472616e736665722074686520746f6b656e73000000600082015250565b6000612b69601d83612237565b9150612b7482612b33565b602082019050919050565b60006020820190508181036000830152612b9881612b5c565b9050919050565b7f416c6c207469636b6574732068617665206265656e20736f6c64000000000000600082015250565b6000612bd5601a83612237565b9150612be082612b9f565b602082019050919050565b60006020820190508181036000830152612c0481612bc8565b9050919050565b7f4e487b7100000000000000000000000000000000000000000000000000000000600052601160045260246000fd5b6000612c45826123b0565b9150612c50836123b0565b9250828202612c5e816123b0565b91508282048414831517612c7557612c74612c0b565b5b5092915050565b7f4661696c656420746f20726566756e642074686520746f6b656e730000000000600082015250565b6000612cb2601b83612237565b9150612cbd82612c7c565b602082019050919050565b60006020820190508181036000830152612ce181612ca5565b9050919050565b6000612cf3826123b0565b9150612cfe836123b0565b9250828203905081811115612d1657612d15612c0b565b5b92915050565b7f46756e6472616973696e6720656e646564000000000000000000000000000000600082015250565b6000612d52601183612237565b9150612d5d82612d1c565b602082019050919050565b60006020820190508181036000830152612d8181612d45565b9050919050565b7f4174206c656173742031207469636b6574206d7573742062652070757263686160008201527f7365640000000000000000000000000000000000000000000000000000000000602082015250565b6000612de4602383612237565b9150612def82612d88565b604082019050919050565b60006020820190508181036000830152612e1381612dd7565b9050919050565b6000612e25826123b0565b9150612e30836123b0565b9250828201905080821115612e4857612e47612c0b565b5b92915050565b7f546865726520617265206e6f7420656e6f756768207469636b6574732061766160008201527f696c61626c650000000000000000000000000000000000000000000000000000602082015250565b6000612eaa602683612237565b9150612eb582612e4e565b604082019050919050565b60006020820190508181036000830152612ed981612e9d565b9050919050565b6000612eeb826122da565b9150612ef6836122da565b9250828202612f04816122da565b9150808214612f1657612f15612c0b565b5b5092915050565b6000606082019050612f32600083018661249a565b612f3f602083018561249a565b612f4c60408301846123ba565b949350505050565b7f546865206164647265737320697320616c72656164792077686974656c69737460008201527f6564000000000000000000000000000000000000000000000000000000000000602082015250565b6000612fb0602283612237565b9150612fbb82612f54565b604082019050919050565b60006020820190508181036000830152612fdf81612fa3565b9050919050565b7f4f776e61626c653a206e6577206f776e657220697320746865207a65726f206160008201527f6464726573730000000000000000000000000000000000000000000000000000602082015250565b6000613042602683612237565b915061304d82612fe6565b604082019050919050565b6000602082019050818103600083015261307181613035565b9050919050565b7f5265656e7472616e637947756172643a207265656e7472616e742063616c6c00600082015250565b60006130ae601f83612237565b91506130b982613078565b602082019050919050565b600060208201905081810360008301526130dd816130a1565b9050919050565b7f4f776e61626c653a2063616c6c6572206973206e6f7420746865206f776e6572600082015250565b600061311a602083612237565b9150613125826130e4565b602082019050919050565b600060208201905081810360008301526131498161310d565b905091905056fea2646970667358221220f1492c4cccf88233039d39b3b152f10f0ff27e7906a671c3b1c256a64e75d6d064736f6c63430008120033",
  "linkReferences": {},
  "deployedLinkReferences": {}
}