{
  "_format": "hh-sol-artifact-1",
  "contractName": "FundRaiser",
  "sourceName": "contracts/FundRaiser.sol",
  "abi": [
    {
      "inputs": [
        {
          "internalType": "contract IERC20",
          "name": "_acceptedToken",
          "type": "address"
        },
        {
          "internalType": "contract ITokenize",
          "name": "_tokenize",
          "type": "address"
        }
      ],
      "stateMutability": "nonpayable",
      "type": "constructor"
    },
    {
      "anonymous": false,
      "inputs": [
        {
          "indexed": true,
          "internalType": "address",
          "name": "account",
          "type": "address"
        }
      ],
      "name": "AddedToWhitelist",
      "type": "event"
    },
    {
      "anonymous": false,
      "inputs": [
        {
          "indexed": true,
          "internalType": "address",
          "name": "previousOwner",
          "type": "address"
        },
        {
          "indexed": true,
          "internalType": "address",
          "name": "newOwner",
          "type": "address"
        }
      ],
      "name": "OwnershipTransferred",
      "type": "event"
    },
    {
      "anonymous": false,
      "inputs": [
        {
          "indexed": true,
          "internalType": "address",
          "name": "account",
          "type": "address"
        }
      ],
      "name": "RemovedFromWhitelist",
      "type": "event"
    },
    {
      "anonymous": false,
      "inputs": [
        {
          "indexed": false,
          "internalType": "enum FundRaiser.WorkflowStatus",
          "name": "newStatus",
          "type": "uint8"
        }
      ],
      "name": "StatusChanged",
      "type": "event"
    },
    {
      "stateMutability": "payable",
      "type": "fallback"
    },
    {
      "inputs": [],
      "name": "MAX_TICKETS",
      "outputs": [
        {
          "internalType": "uint24",
          "name": "",
          "type": "uint24"
        }
      ],
      "stateMutability": "view",
      "type": "function"
    },
    {
      "inputs": [],
      "name": "TICKET_PRICE",
      "outputs": [
        {
          "internalType": "uint128",
          "name": "",
          "type": "uint128"
        }
      ],
      "stateMutability": "view",
      "type": "function"
    },
    {
      "inputs": [],
      "name": "acceptedToken",
      "outputs": [
        {
          "internalType": "contract IERC20",
          "name": "",
          "type": "address"
        }
      ],
      "stateMutability": "view",
      "type": "function"
    },
    {
      "inputs": [
        {
          "internalType": "address",
          "name": "_address",
          "type": "address"
        }
      ],
      "name": "addToWhitelist",
      "outputs": [],
      "stateMutability": "nonpayable",
      "type": "function"
    },
    {
      "inputs": [
        {
          "internalType": "uint24",
          "name": "numberOfTickets",
          "type": "uint24"
        }
      ],
      "name": "buyTicket",
      "outputs": [],
      "stateMutability": "nonpayable",
      "type": "function"
    },
    {
      "inputs": [],
      "name": "claimTokens",
      "outputs": [],
      "stateMutability": "nonpayable",
      "type": "function"
    },
    {
      "inputs": [],
      "name": "currentStatus",
      "outputs": [
        {
          "internalType": "enum FundRaiser.WorkflowStatus",
          "name": "",
          "type": "uint8"
        }
      ],
      "stateMutability": "view",
      "type": "function"
    },
    {
      "inputs": [],
      "name": "endFundraiser",
      "outputs": [],
      "stateMutability": "nonpayable",
      "type": "function"
    },
    {
      "inputs": [],
      "name": "owner",
      "outputs": [
        {
          "internalType": "address",
          "name": "",
          "type": "address"
        }
      ],
      "stateMutability": "view",
      "type": "function"
    },
    {
      "inputs": [],
      "name": "propertyId",
      "outputs": [
        {
          "internalType": "uint24",
          "name": "",
          "type": "uint24"
        }
      ],
      "stateMutability": "view",
      "type": "function"
    },
    {
      "inputs": [
        {
          "internalType": "address",
          "name": "_address",
          "type": "address"
        }
      ],
      "name": "removeFromWhitelist",
      "outputs": [],
      "stateMutability": "nonpayable",
      "type": "function"
    },
    {
      "inputs": [],
      "name": "renounceOwnership",
      "outputs": [],
      "stateMutability": "nonpayable",
      "type": "function"
    },
    {
      "inputs": [],
      "name": "requestRefund",
      "outputs": [],
      "stateMutability": "nonpayable",
      "type": "function"
    },
    {
      "inputs": [],
      "name": "startMinting",
      "outputs": [],
      "stateMutability": "nonpayable",
      "type": "function"
    },
    {
      "inputs": [
        {
          "internalType": "address",
          "name": "",
          "type": "address"
        }
      ],
      "name": "ticketOwners",
      "outputs": [
        {
          "internalType": "uint256",
          "name": "",
          "type": "uint256"
        }
      ],
      "stateMutability": "view",
      "type": "function"
    },
    {
      "inputs": [],
      "name": "ticketsSold",
      "outputs": [
        {
          "internalType": "uint256",
          "name": "",
          "type": "uint256"
        }
      ],
      "stateMutability": "view",
      "type": "function"
    },
    {
      "inputs": [],
      "name": "tokenize",
      "outputs": [
        {
          "internalType": "contract ITokenize",
          "name": "",
          "type": "address"
        }
      ],
      "stateMutability": "view",
      "type": "function"
    },
    {
      "inputs": [
        {
          "internalType": "address",
          "name": "newOwner",
          "type": "address"
        }
      ],
      "name": "transferOwnership",
      "outputs": [],
      "stateMutability": "nonpayable",
      "type": "function"
    },
    {
      "inputs": [
        {
          "internalType": "address",
          "name": "",
          "type": "address"
        }
      ],
      "name": "whitelist",
      "outputs": [
        {
          "internalType": "bool",
          "name": "",
          "type": "bool"
        }
      ],
      "stateMutability": "view",
      "type": "function"
    },
    {
      "stateMutability": "payable",
      "type": "receive"
    }
  ],
  "bytecode": "0x60806040526003805462ffffff60a01b1916600160a01b179055600060045534801561002a57600080fd5b506040516113a23803806113a2833981016040819052610049916100f9565b61005233610091565b60018055600280546001600160a01b039384166001600160a01b031991821617909155600380549290931691161790556005805460ff19169055610133565b600080546001600160a01b038381166001600160a01b0319831681178455604051919092169283917f8be0079c531659141344cd1fd0a4f28419497f9722a3daafe3b4186f6b6457e09190a35050565b6001600160a01b03811681146100f657600080fd5b50565b6000806040838503121561010c57600080fd5b8251610117816100e1565b6020840151909250610128816100e1565b809150509250929050565b611260806101426000396000f3fe6080604052600436106101185760003560e01c80639a65ea26116100a0578063e43252d711610064578063e43252d714610342578063ee7a3b8e14610362578063ef8a923514610399578063f2fde38b146103c0578063fca846dc146103e05761013e565b80639a65ea26146102a35780639b19251a146102b8578063bd46170c146102f8578063d5cef1331461030d578063d881a8a0146103225761013e565b806348c54b9d116100e757806348c54b9d14610223578063715018a61461023a5780638ab1d6811461024f5780638da5cb5b1461026f5780638f15024f1461028d5761013e565b80631a95f15f146101565780631f6ea78714610190578063451c3d80146101cb57806345cc13c3146102035761013e565b3661013e5760405162461bcd60e51b81526004016101359061105e565b60405180910390fd5b60405162461bcd60e51b81526004016101359061105e565b34801561016257600080fd5b50610173681b1ae4d6e2ef50000081565b6040516001600160801b0390911681526020015b60405180910390f35b34801561019c57600080fd5b506101bd6101ab3660046110a1565b60066020526000908152604090205481565b604051908152602001610187565b3480156101d757600080fd5b506002546101eb906001600160a01b031681565b6040516001600160a01b039091168152602001610187565b34801561020f57600080fd5b506003546101eb906001600160a01b031681565b34801561022f57600080fd5b506102386103f5565b005b34801561024657600080fd5b5061023861058d565b34801561025b57600080fd5b5061023861026a3660046110a1565b61059f565b34801561027b57600080fd5b506000546001600160a01b03166101eb565b34801561029957600080fd5b506101bd60045481565b3480156102af57600080fd5b50610238610669565b3480156102c457600080fd5b506102e86102d33660046110a1565b60076020526000908152604090205460ff1681565b6040519015158152602001610187565b34801561030457600080fd5b5061023861071f565b34801561031957600080fd5b50610238610979565b34801561032e57600080fd5b5061023861033d3660046110d1565b610bc1565b34801561034e57600080fd5b5061023861035d3660046110a1565b610e17565b34801561036e57600080fd5b5060035461038590600160a01b900462ffffff1681565b60405162ffffff9091168152602001610187565b3480156103a557600080fd5b506005546103b39060ff1681565b604051610187919061110c565b3480156103cc57600080fd5b506102386103db3660046110a1565b610edf565b3480156103ec57600080fd5b5061038560c881565b6103fd610f55565b600260055460ff166002811115610416576104166110f6565b1461046f5760405162461bcd60e51b815260206004820152602360248201527f54686520746f6b656e206d696e74206973206e6f742079657420617661696c61604482015262626c6560e81b6064820152608401610135565b3360009081526007602052604090205460ff1661049e5760405162461bcd60e51b815260040161013590611134565b33600090815260066020526040902054806104fb5760405162461bcd60e51b815260206004820152601b60248201527f596f7520646f206e6f74206861766520616e79207469636b65747300000000006044820152606401610135565b600354604051637b9df71560e01b8152336004820152600160a01b820462ffffff166024820152604481018390526001600160a01b0390911690637b9df71590606401600060405180830381600087803b15801561055857600080fd5b505af115801561056c573d6000803e3d6000fd5b5050336000908152600660205260408120555061058b9150610fae9050565b565b610595610fb4565b61058b600061100e565b6105a7610fb4565b6001600160a01b03811660009081526007602052604090205460ff166106205760405162461bcd60e51b815260206004820152602860248201527f5468652061646472657373206973206e6f742063757272656e746c79207768696044820152671d195b1a5cdd195960c21b6064820152608401610135565b6001600160a01b038116600081815260076020526040808220805460ff19169055517fcdd2e9b91a56913d370075169cefa1602ba36be5301664f752192bb1709df7579190a250565b610671610fb4565b600160055460ff16600281111561068a5761068a6110f6565b146106d75760405162461bcd60e51b815260206004820152601c60248201527f46756e6472616973696e67206e6f742066696e697368656420796574000000006044820152606401610135565b6005805460ff191660029081179091556040517fafa725e7f44cadb687a7043853fa1a7e7b8f0da74ce87ec546e9420f04da8c1e916107159161110c565b60405180910390a1565b610727610fb4565b600060055460ff166002811115610740576107406110f6565b1461078d5760405162461bcd60e51b815260206004820181905260248201527f46756e6472616973696e6720697320616c726561647920636f6d706c657465646044820152606401610135565b60045460c811156107e05760405162461bcd60e51b815260206004820152601860248201527f46756e6472616973696e67206e6f742066696e697368656400000000000000006044820152606401610135565b6005805460ff191660019081179091556040517fafa725e7f44cadb687a7043853fa1a7e7b8f0da74ce87ec546e9420f04da8c1e9161081e9161110c565b60405180910390a16002546040516370a0823160e01b81523060048201526000916001600160a01b0316906370a0823190602401602060405180830381865afa15801561086f573d6000803e3d6000fd5b505050506040513d601f19601f82011682018060405250810190610893919061116b565b6002549091506001600160a01b031663a9059cbb6108b96000546001600160a01b031690565b6040516001600160e01b031960e084901b1681526001600160a01b039091166004820152602481018490526044016020604051808303816000875af1158015610906573d6000803e3d6000fd5b505050506040513d601f19601f8201168201806040525081019061092a9190611184565b6109765760405162461bcd60e51b815260206004820152601d60248201527f4661696c656420746f207472616e736665722074686520746f6b656e730000006044820152606401610135565b50565b600060055460ff166002811115610992576109926110f6565b146109df5760405162461bcd60e51b815260206004820181905260248201527f46756e6472616973696e6720697320616c726561647920636f6d706c657465646044820152606401610135565b60045460c811610a315760405162461bcd60e51b815260206004820152601a60248201527f416c6c207469636b6574732068617665206265656e20736f6c640000000000006044820152606401610135565b3360009081526007602052604090205460ff16610a605760405162461bcd60e51b815260040161013590611134565b3360009081526006602052604090205480610abd5760405162461bcd60e51b815260206004820152601b60248201527f596f7520646f206e6f74206861766520616e79207469636b65747300000000006044820152606401610135565b6000610ad2681b1ae4d6e2ef500000836111bc565b60025460405163a9059cbb60e01b8152336004820152602481018390529192506001600160a01b03169063a9059cbb906044016020604051808303816000875af1158015610b24573d6000803e3d6000fd5b505050506040513d601f19601f82011682018060405250810190610b489190611184565b610b945760405162461bcd60e51b815260206004820152601b60248201527f4661696c656420746f20726566756e642074686520746f6b656e7300000000006044820152606401610135565b33600090815260066020526040812081905560048054849290610bb89084906111d9565b90915550505050565b610bc9610f55565b600060055460ff166002811115610be257610be26110f6565b14610c235760405162461bcd60e51b8152602060048201526011602482015270119d5b991c985a5cda5b99c8195b991959607a1b6044820152606401610135565b3360009081526007602052604090205460ff16610c525760405162461bcd60e51b815260040161013590611134565b60008162ffffff1611610cb35760405162461bcd60e51b815260206004820152602360248201527f4174206c656173742031207469636b6574206d757374206265207075726368616044820152621cd95960ea1b6064820152608401610135565b60045460c890610cc99062ffffff8416906111ec565b1115610d265760405162461bcd60e51b815260206004820152602660248201527f546865726520617265206e6f7420656e6f756768207469636b65747320617661604482015265696c61626c6560d01b6064820152608401610135565b6000610d4062ffffff8316681b1ae4d6e2ef5000006111ff565b6002546040516323b872dd60e01b81523360048201523060248201526001600160801b03929092166044830181905292506001600160a01b0316906323b872dd906064016020604051808303816000875af1158015610da3573d6000803e3d6000fd5b505050506040513d601f19601f82011682018060405250810190610dc79190611184565b50336000908152600660205260408120805462ffffff85169290610dec9084906111ec565b925050819055508162ffffff1660046000828254610e0a91906111ec565b9091555050600180555050565b610e1f610fb4565b6001600160a01b03811660009081526007602052604090205460ff1615610e935760405162461bcd60e51b815260206004820152602260248201527f546865206164647265737320697320616c72656164792077686974656c697374604482015261195960f21b6064820152608401610135565b6001600160a01b038116600081815260076020526040808220805460ff19166001179055517fa850ae9193f515cbae8d35e8925bd2be26627fc91bce650b8652ed254e9cab039190a250565b610ee7610fb4565b6001600160a01b038116610f4c5760405162461bcd60e51b815260206004820152602660248201527f4f776e61626c653a206e6577206f776e657220697320746865207a65726f206160448201526564647265737360d01b6064820152608401610135565b6109768161100e565b600260015403610fa75760405162461bcd60e51b815260206004820152601f60248201527f5265656e7472616e637947756172643a207265656e7472616e742063616c6c006044820152606401610135565b6002600155565b60018055565b6000546001600160a01b0316331461058b5760405162461bcd60e51b815260206004820181905260248201527f4f776e61626c653a2063616c6c6572206973206e6f7420746865206f776e65726044820152606401610135565b600080546001600160a01b038381166001600160a01b0319831681178455604051919092169283917f8be0079c531659141344cd1fd0a4f28419497f9722a3daafe3b4186f6b6457e09190a35050565b60208082526023908201527f5468697320636f6e747261637420646f6573206e6f74206163636570742065746040820152623432b960e91b606082015260800190565b6000602082840312156110b357600080fd5b81356001600160a01b03811681146110ca57600080fd5b9392505050565b6000602082840312156110e357600080fd5b813562ffffff811681146110ca57600080fd5b634e487b7160e01b600052602160045260246000fd5b602081016003831061112e57634e487b7160e01b600052602160045260246000fd5b91905290565b6020808252601f908201527f596f75722061646472657373206973206e6f742077686974656c697374656400604082015260600190565b60006020828403121561117d57600080fd5b5051919050565b60006020828403121561119657600080fd5b815180151581146110ca57600080fd5b634e487b7160e01b600052601160045260246000fd5b80820281158282048414176111d3576111d36111a6565b92915050565b818103818111156111d3576111d36111a6565b808201808211156111d3576111d36111a6565b6001600160801b03818116838216028082169190828114611222576112226111a6565b50509291505056fea2646970667358221220c9f404b6be0a0ff99e8ad8facd171a9da81135bd3fb59c2b47efba40b13053d764736f6c63430008120033",
  "linkReferences": {},
  "deployedLinkReferences": {}
}