{
  "_format": "hh-sol-artifact-1",
  "contractName": "FundRaiser",
  "sourceName": "contracts/FundRaiser.sol",
  "abi": [
    {
      "inputs": [
        {
          "internalType": "contract IERC20",
          "name": "_acceptedToken",
          "type": "address"
        },
        {
          "internalType": "contract ITokenize",
          "name": "_tokenize",
          "type": "address"
        }
      ],
      "stateMutability": "nonpayable",
      "type": "constructor"
    },
    {
      "anonymous": false,
      "inputs": [
        {
          "indexed": true,
          "internalType": "address",
          "name": "account",
          "type": "address"
        }
      ],
      "name": "AddedToWhitelist",
      "type": "event"
    },
    {
      "anonymous": false,
      "inputs": [
        {
          "indexed": true,
          "internalType": "address",
          "name": "previousOwner",
          "type": "address"
        },
        {
          "indexed": true,
          "internalType": "address",
          "name": "newOwner",
          "type": "address"
        }
      ],
      "name": "OwnershipTransferred",
      "type": "event"
    },
    {
      "anonymous": false,
      "inputs": [
        {
          "indexed": true,
          "internalType": "address",
          "name": "account",
          "type": "address"
        }
      ],
      "name": "RemovedFromWhitelist",
      "type": "event"
    },
    {
      "anonymous": false,
      "inputs": [
        {
          "indexed": false,
          "internalType": "enum FundRaiser.WorkflowStatus",
          "name": "newStatus",
          "type": "uint8"
        }
      ],
      "name": "StatusChanged",
      "type": "event"
    },
    {
      "stateMutability": "payable",
      "type": "fallback"
    },
    {
      "inputs": [],
      "name": "MAX_TICKETS",
      "outputs": [
        {
          "internalType": "uint24",
          "name": "",
          "type": "uint24"
        }
      ],
      "stateMutability": "view",
      "type": "function"
    },
    {
      "inputs": [],
      "name": "TICKET_PRICE",
      "outputs": [
        {
          "internalType": "uint128",
          "name": "",
          "type": "uint128"
        }
      ],
      "stateMutability": "view",
      "type": "function"
    },
    {
      "inputs": [],
      "name": "acceptedToken",
      "outputs": [
        {
          "internalType": "contract IERC20",
          "name": "",
          "type": "address"
        }
      ],
      "stateMutability": "view",
      "type": "function"
    },
    {
      "inputs": [
        {
          "internalType": "address",
          "name": "_address",
          "type": "address"
        }
      ],
      "name": "addToWhitelist",
      "outputs": [],
      "stateMutability": "nonpayable",
      "type": "function"
    },
    {
      "inputs": [
        {
          "internalType": "uint24",
          "name": "numberOfTickets",
          "type": "uint24"
        }
      ],
      "name": "buyTicket",
      "outputs": [],
      "stateMutability": "nonpayable",
      "type": "function"
    },
    {
      "inputs": [],
      "name": "claimTokens",
      "outputs": [],
      "stateMutability": "nonpayable",
      "type": "function"
    },
    {
      "inputs": [],
      "name": "currentStatus",
      "outputs": [
        {
          "internalType": "enum FundRaiser.WorkflowStatus",
          "name": "",
          "type": "uint8"
        }
      ],
      "stateMutability": "view",
      "type": "function"
    },
    {
      "inputs": [],
      "name": "endFundraiser",
      "outputs": [],
      "stateMutability": "nonpayable",
      "type": "function"
    },
    {
      "inputs": [],
      "name": "owner",
      "outputs": [
        {
          "internalType": "address",
          "name": "",
          "type": "address"
        }
      ],
      "stateMutability": "view",
      "type": "function"
    },
    {
      "inputs": [],
      "name": "propertyId",
      "outputs": [
        {
          "internalType": "uint24",
          "name": "",
          "type": "uint24"
        }
      ],
      "stateMutability": "view",
      "type": "function"
    },
    {
      "inputs": [
        {
          "internalType": "address",
          "name": "_address",
          "type": "address"
        }
      ],
      "name": "removeFromWhitelist",
      "outputs": [],
      "stateMutability": "nonpayable",
      "type": "function"
    },
    {
      "inputs": [],
      "name": "renounceOwnership",
      "outputs": [],
      "stateMutability": "nonpayable",
      "type": "function"
    },
    {
      "inputs": [],
      "name": "requestRefund",
      "outputs": [],
      "stateMutability": "nonpayable",
      "type": "function"
    },
    {
      "inputs": [],
      "name": "startFundraising",
      "outputs": [],
      "stateMutability": "nonpayable",
      "type": "function"
    },
    {
      "inputs": [],
      "name": "startMinting",
      "outputs": [],
      "stateMutability": "nonpayable",
      "type": "function"
    },
    {
      "inputs": [
        {
          "internalType": "address",
          "name": "",
          "type": "address"
        }
      ],
      "name": "ticketOwners",
      "outputs": [
        {
          "internalType": "uint256",
          "name": "",
          "type": "uint256"
        }
      ],
      "stateMutability": "view",
      "type": "function"
    },
    {
      "inputs": [],
      "name": "ticketsSold",
      "outputs": [
        {
          "internalType": "uint256",
          "name": "",
          "type": "uint256"
        }
      ],
      "stateMutability": "view",
      "type": "function"
    },
    {
      "inputs": [],
      "name": "tokenize",
      "outputs": [
        {
          "internalType": "contract ITokenize",
          "name": "",
          "type": "address"
        }
      ],
      "stateMutability": "view",
      "type": "function"
    },
    {
      "inputs": [
        {
          "internalType": "address",
          "name": "newOwner",
          "type": "address"
        }
      ],
      "name": "transferOwnership",
      "outputs": [],
      "stateMutability": "nonpayable",
      "type": "function"
    },
    {
      "inputs": [
        {
          "internalType": "address",
          "name": "",
          "type": "address"
        }
      ],
      "name": "whitelist",
      "outputs": [
        {
          "internalType": "bool",
          "name": "",
          "type": "bool"
        }
      ],
      "stateMutability": "view",
      "type": "function"
    },
    {
      "stateMutability": "payable",
      "type": "receive"
    }
  ],
  "bytecode": "0x60806040526003805462ffffff60a01b1916600160a01b179055600060045534801561002a57600080fd5b50604051620014693803806200146983398101604081905261004b916100fb565b61005433610093565b60018055600280546001600160a01b039384166001600160a01b031991821617909155600380549290931691161790556005805460ff19169055610135565b600080546001600160a01b038381166001600160a01b0319831681178455604051919092169283917f8be0079c531659141344cd1fd0a4f28419497f9722a3daafe3b4186f6b6457e09190a35050565b6001600160a01b03811681146100f857600080fd5b50565b6000806040838503121561010e57600080fd5b8251610119816100e3565b602084015190925061012a816100e3565b809150509250929050565b61132480620001456000396000f3fe6080604052600436106101235760003560e01c80639a65ea26116100a0578063e43252d711610064578063e43252d714610362578063ee7a3b8e14610382578063ef8a9235146103b9578063f2fde38b146103e0578063fca846dc1461040057610149565b80639a65ea26146102c35780639b19251a146102d8578063bd46170c14610318578063d5cef1331461032d578063d881a8a01461034257610149565b8063715018a6116100e7578063715018a61461024557806381ef1b181461025a5780638ab1d6811461026f5780638da5cb5b1461028f5780638f15024f146102ad57610149565b80631a95f15f146101615780631f6ea7871461019b578063451c3d80146101d657806345cc13c31461020e57806348c54b9d1461022e57610149565b366101495760405162461bcd60e51b815260040161014090611122565b60405180910390fd5b60405162461bcd60e51b815260040161014090611122565b34801561016d57600080fd5b5061017e681b1ae4d6e2ef50000081565b6040516001600160801b0390911681526020015b60405180910390f35b3480156101a757600080fd5b506101c86101b6366004611165565b60066020526000908152604090205481565b604051908152602001610192565b3480156101e257600080fd5b506002546101f6906001600160a01b031681565b6040516001600160a01b039091168152602001610192565b34801561021a57600080fd5b506003546101f6906001600160a01b031681565b34801561023a57600080fd5b50610243610415565b005b34801561025157600080fd5b506102436105ad565b34801561026657600080fd5b506102436105bf565b34801561027b57600080fd5b5061024361028a366004611165565b610697565b34801561029b57600080fd5b506000546001600160a01b03166101f6565b3480156102b957600080fd5b506101c860045481565b3480156102cf57600080fd5b50610243610761565b3480156102e457600080fd5b506103086102f3366004611165565b60076020526000908152604090205460ff1681565b6040519015158152602001610192565b34801561032457600080fd5b506102436107e3565b34801561033957600080fd5b50610243610a3d565b34801561034e57600080fd5b5061024361035d366004611195565b610c85565b34801561036e57600080fd5b5061024361037d366004611165565b610edb565b34801561038e57600080fd5b506003546103a590600160a01b900462ffffff1681565b60405162ffffff9091168152602001610192565b3480156103c557600080fd5b506005546103d39060ff1681565b60405161019291906111d0565b3480156103ec57600080fd5b506102436103fb366004611165565b610fa3565b34801561040c57600080fd5b506103a560c881565b61041d611019565b600360055460ff166003811115610436576104366111ba565b1461048f5760405162461bcd60e51b815260206004820152602360248201527f54686520746f6b656e206d696e74206973206e6f742079657420617661696c61604482015262626c6560e81b6064820152608401610140565b3360009081526007602052604090205460ff166104be5760405162461bcd60e51b8152600401610140906111f8565b336000908152600660205260409020548061051b5760405162461bcd60e51b815260206004820152601b60248201527f596f7520646f206e6f74206861766520616e79207469636b65747300000000006044820152606401610140565b600354604051637b9df71560e01b8152336004820152600160a01b820462ffffff166024820152604481018390526001600160a01b0390911690637b9df71590606401600060405180830381600087803b15801561057857600080fd5b505af115801561058c573d6000803e3d6000fd5b505033600090815260066020526040812055506105ab91506110729050565b565b6105b5611078565b6105ab60006110d2565b6105c7611078565b600060055460ff1660038111156105e0576105e06111ba565b146106425760405162461bcd60e51b815260206004820152602c60248201527f43616e6e6f742073746172742066756e6472616973696e672066726f6d20637560448201526b7272656e742073746174757360a01b6064820152608401610140565b600580546001919060ff191682805b02179055506005546040517fafa725e7f44cadb687a7043853fa1a7e7b8f0da74ce87ec546e9420f04da8c1e9161068d9160ff909116906111d0565b60405180910390a1565b61069f611078565b6001600160a01b03811660009081526007602052604090205460ff166107185760405162461bcd60e51b815260206004820152602860248201527f5468652061646472657373206973206e6f742063757272656e746c79207768696044820152671d195b1a5cdd195960c21b6064820152608401610140565b6001600160a01b038116600081815260076020526040808220805460ff19169055517fcdd2e9b91a56913d370075169cefa1602ba36be5301664f752192bb1709df7579190a250565b610769611078565b600260055460ff166003811115610782576107826111ba565b146107cf5760405162461bcd60e51b815260206004820152601c60248201527f46756e6472616973696e67206e6f742066696e697368656420796574000000006044820152606401610140565b600580546003919060ff1916600183610651565b6107eb611078565b600160055460ff166003811115610804576108046111ba565b146108515760405162461bcd60e51b815260206004820181905260248201527f46756e6472616973696e6720697320616c726561647920636f6d706c657465646044820152606401610140565b60045460c811156108a45760405162461bcd60e51b815260206004820152601860248201527f46756e6472616973696e67206e6f742066696e697368656400000000000000006044820152606401610140565b6005805460ff191660029081179091556040517fafa725e7f44cadb687a7043853fa1a7e7b8f0da74ce87ec546e9420f04da8c1e916108e2916111d0565b60405180910390a16002546040516370a0823160e01b81523060048201526000916001600160a01b0316906370a0823190602401602060405180830381865afa158015610933573d6000803e3d6000fd5b505050506040513d601f19601f82011682018060405250810190610957919061122f565b6002549091506001600160a01b031663a9059cbb61097d6000546001600160a01b031690565b6040516001600160e01b031960e084901b1681526001600160a01b039091166004820152602481018490526044016020604051808303816000875af11580156109ca573d6000803e3d6000fd5b505050506040513d601f19601f820116820180604052508101906109ee9190611248565b610a3a5760405162461bcd60e51b815260206004820152601d60248201527f4661696c656420746f207472616e736665722074686520746f6b656e730000006044820152606401610140565b50565b600160055460ff166003811115610a5657610a566111ba565b14610aa35760405162461bcd60e51b815260206004820181905260248201527f46756e6472616973696e6720697320616c726561647920636f6d706c657465646044820152606401610140565b60045460c811610af55760405162461bcd60e51b815260206004820152601a60248201527f416c6c207469636b6574732068617665206265656e20736f6c640000000000006044820152606401610140565b3360009081526007602052604090205460ff16610b245760405162461bcd60e51b8152600401610140906111f8565b3360009081526006602052604090205480610b815760405162461bcd60e51b815260206004820152601b60248201527f596f7520646f206e6f74206861766520616e79207469636b65747300000000006044820152606401610140565b6000610b96681b1ae4d6e2ef50000083611280565b60025460405163a9059cbb60e01b8152336004820152602481018390529192506001600160a01b03169063a9059cbb906044016020604051808303816000875af1158015610be8573d6000803e3d6000fd5b505050506040513d601f19601f82011682018060405250810190610c0c9190611248565b610c585760405162461bcd60e51b815260206004820152601b60248201527f4661696c656420746f20726566756e642074686520746f6b656e7300000000006044820152606401610140565b33600090815260066020526040812081905560048054849290610c7c90849061129d565b90915550505050565b610c8d611019565b600160055460ff166003811115610ca657610ca66111ba565b14610ce75760405162461bcd60e51b8152602060048201526011602482015270119d5b991c985a5cda5b99c8195b991959607a1b6044820152606401610140565b3360009081526007602052604090205460ff16610d165760405162461bcd60e51b8152600401610140906111f8565b60008162ffffff1611610d775760405162461bcd60e51b815260206004820152602360248201527f4174206c656173742031207469636b6574206d757374206265207075726368616044820152621cd95960ea1b6064820152608401610140565b60045460c890610d8d9062ffffff8416906112b0565b1115610dea5760405162461bcd60e51b815260206004820152602660248201527f546865726520617265206e6f7420656e6f756768207469636b65747320617661604482015265696c61626c6560d01b6064820152608401610140565b6000610e0462ffffff8316681b1ae4d6e2ef5000006112c3565b6002546040516323b872dd60e01b81523360048201523060248201526001600160801b03929092166044830181905292506001600160a01b0316906323b872dd906064016020604051808303816000875af1158015610e67573d6000803e3d6000fd5b505050506040513d601f19601f82011682018060405250810190610e8b9190611248565b50336000908152600660205260408120805462ffffff85169290610eb09084906112b0565b925050819055508162ffffff1660046000828254610ece91906112b0565b9091555050600180555050565b610ee3611078565b6001600160a01b03811660009081526007602052604090205460ff1615610f575760405162461bcd60e51b815260206004820152602260248201527f546865206164647265737320697320616c72656164792077686974656c697374604482015261195960f21b6064820152608401610140565b6001600160a01b038116600081815260076020526040808220805460ff19166001179055517fa850ae9193f515cbae8d35e8925bd2be26627fc91bce650b8652ed254e9cab039190a250565b610fab611078565b6001600160a01b0381166110105760405162461bcd60e51b815260206004820152602660248201527f4f776e61626c653a206e6577206f776e657220697320746865207a65726f206160448201526564647265737360d01b6064820152608401610140565b610a3a816110d2565b60026001540361106b5760405162461bcd60e51b815260206004820152601f60248201527f5265656e7472616e637947756172643a207265656e7472616e742063616c6c006044820152606401610140565b6002600155565b60018055565b6000546001600160a01b031633146105ab5760405162461bcd60e51b815260206004820181905260248201527f4f776e61626c653a2063616c6c6572206973206e6f7420746865206f776e65726044820152606401610140565b600080546001600160a01b038381166001600160a01b0319831681178455604051919092169283917f8be0079c531659141344cd1fd0a4f28419497f9722a3daafe3b4186f6b6457e09190a35050565b60208082526023908201527f5468697320636f6e747261637420646f6573206e6f74206163636570742065746040820152623432b960e91b606082015260800190565b60006020828403121561117757600080fd5b81356001600160a01b038116811461118e57600080fd5b9392505050565b6000602082840312156111a757600080fd5b813562ffffff8116811461118e57600080fd5b634e487b7160e01b600052602160045260246000fd5b60208101600483106111f257634e487b7160e01b600052602160045260246000fd5b91905290565b6020808252601f908201527f596f75722061646472657373206973206e6f742077686974656c697374656400604082015260600190565b60006020828403121561124157600080fd5b5051919050565b60006020828403121561125a57600080fd5b8151801515811461118e57600080fd5b634e487b7160e01b600052601160045260246000fd5b80820281158282048414176112975761129761126a565b92915050565b818103818111156112975761129761126a565b808201808211156112975761129761126a565b6001600160801b038181168382160280821691908281146112e6576112e661126a565b50509291505056fea26469706673582212208e856467b5cffaa7d719840ac8e91e18304a942d9b4c6cdecb38a06397bddd3f64736f6c63430008120033",
  "linkReferences": {},
  "deployedLinkReferences": {}
}