{
  "_format": "hh-sol-artifact-1",
  "contractName": "StakingERC1155Id1",
  "sourceName": "contracts/StakingERC1155Id1.sol",
  "abi": [
    {
      "inputs": [
        {
          "internalType": "address",
          "name": "_erc1155Contract",
          "type": "address"
        },
        {
          "internalType": "address",
          "name": "_erc20Contract",
          "type": "address"
        }
      ],
      "stateMutability": "nonpayable",
      "type": "constructor"
    },
    {
      "anonymous": false,
      "inputs": [
        {
          "indexed": true,
          "internalType": "address",
          "name": "newAdminAddress",
          "type": "address"
        }
      ],
      "name": "AdminRightsGranted",
      "type": "event"
    },
    {
      "anonymous": false,
      "inputs": [
        {
          "indexed": true,
          "internalType": "address",
          "name": "adminAddress",
          "type": "address"
        }
      ],
      "name": "AdminRightsRevoked",
      "type": "event"
    },
    {
      "anonymous": false,
      "inputs": [
        {
          "indexed": true,
          "internalType": "address",
          "name": "owner",
          "type": "address"
        },
        {
          "indexed": true,
          "internalType": "address",
          "name": "spender",
          "type": "address"
        },
        {
          "indexed": false,
          "internalType": "uint256",
          "name": "value",
          "type": "uint256"
        }
      ],
      "name": "Approval",
      "type": "event"
    },
    {
      "anonymous": false,
      "inputs": [
        {
          "indexed": true,
          "internalType": "address",
          "name": "staker",
          "type": "address"
        },
        {
          "indexed": false,
          "internalType": "uint256",
          "name": "amountClaimed",
          "type": "uint256"
        }
      ],
      "name": "Claimed",
      "type": "event"
    },
    {
      "anonymous": false,
      "inputs": [
        {
          "indexed": true,
          "internalType": "address",
          "name": "previousOwner",
          "type": "address"
        },
        {
          "indexed": true,
          "internalType": "address",
          "name": "newOwner",
          "type": "address"
        }
      ],
      "name": "OwnershipTransferred",
      "type": "event"
    },
    {
      "anonymous": false,
      "inputs": [
        {
          "indexed": false,
          "internalType": "uint256",
          "name": "newRate",
          "type": "uint256"
        }
      ],
      "name": "RewardsRateUpdated",
      "type": "event"
    },
    {
      "anonymous": false,
      "inputs": [
        {
          "indexed": true,
          "internalType": "address",
          "name": "staker",
          "type": "address"
        },
        {
          "indexed": false,
          "internalType": "uint24",
          "name": "_tokenId",
          "type": "uint24"
        },
        {
          "indexed": false,
          "internalType": "uint24",
          "name": "amountStaked",
          "type": "uint24"
        }
      ],
      "name": "Staked",
      "type": "event"
    },
    {
      "anonymous": false,
      "inputs": [
        {
          "indexed": true,
          "internalType": "address",
          "name": "receiver",
          "type": "address"
        },
        {
          "indexed": false,
          "internalType": "uint256",
          "name": "amount",
          "type": "uint256"
        }
      ],
      "name": "TokensMinted",
      "type": "event"
    },
    {
      "anonymous": false,
      "inputs": [
        {
          "indexed": true,
          "internalType": "address",
          "name": "from",
          "type": "address"
        },
        {
          "indexed": true,
          "internalType": "address",
          "name": "to",
          "type": "address"
        },
        {
          "indexed": false,
          "internalType": "uint256",
          "name": "value",
          "type": "uint256"
        }
      ],
      "name": "Transfer",
      "type": "event"
    },
    {
      "anonymous": false,
      "inputs": [
        {
          "indexed": true,
          "internalType": "address",
          "name": "staker",
          "type": "address"
        },
        {
          "indexed": false,
          "internalType": "uint24",
          "name": "_tokenId",
          "type": "uint24"
        },
        {
          "indexed": false,
          "internalType": "uint24",
          "name": "amountUnstaked",
          "type": "uint24"
        }
      ],
      "name": "Unstaked",
      "type": "event"
    },
    {
      "stateMutability": "payable",
      "type": "fallback"
    },
    {
      "inputs": [
        {
          "internalType": "address",
          "name": "_addr",
          "type": "address"
        }
      ],
      "name": "addAdminRights",
      "outputs": [],
      "stateMutability": "nonpayable",
      "type": "function"
    },
    {
      "inputs": [
        {
          "internalType": "address",
          "name": "owner",
          "type": "address"
        },
        {
          "internalType": "address",
          "name": "spender",
          "type": "address"
        }
      ],
      "name": "allowance",
      "outputs": [
        {
          "internalType": "uint256",
          "name": "",
          "type": "uint256"
        }
      ],
      "stateMutability": "view",
      "type": "function"
    },
    {
      "inputs": [
        {
          "internalType": "address",
          "name": "spender",
          "type": "address"
        },
        {
          "internalType": "uint256",
          "name": "amount",
          "type": "uint256"
        }
      ],
      "name": "approve",
      "outputs": [
        {
          "internalType": "bool",
          "name": "",
          "type": "bool"
        }
      ],
      "stateMutability": "nonpayable",
      "type": "function"
    },
    {
      "inputs": [
        {
          "internalType": "address",
          "name": "account",
          "type": "address"
        }
      ],
      "name": "balanceOf",
      "outputs": [
        {
          "internalType": "uint256",
          "name": "",
          "type": "uint256"
        }
      ],
      "stateMutability": "view",
      "type": "function"
    },
    {
      "inputs": [],
      "name": "claimRewards",
      "outputs": [],
      "stateMutability": "nonpayable",
      "type": "function"
    },
    {
      "inputs": [],
      "name": "decimals",
      "outputs": [
        {
          "internalType": "uint8",
          "name": "",
          "type": "uint8"
        }
      ],
      "stateMutability": "view",
      "type": "function"
    },
    {
      "inputs": [
        {
          "internalType": "address",
          "name": "spender",
          "type": "address"
        },
        {
          "internalType": "uint256",
          "name": "subtractedValue",
          "type": "uint256"
        }
      ],
      "name": "decreaseAllowance",
      "outputs": [
        {
          "internalType": "bool",
          "name": "",
          "type": "bool"
        }
      ],
      "stateMutability": "nonpayable",
      "type": "function"
    },
    {
      "inputs": [],
      "name": "erc1155Contract",
      "outputs": [
        {
          "internalType": "contract Tokenize",
          "name": "",
          "type": "address"
        }
      ],
      "stateMutability": "view",
      "type": "function"
    },
    {
      "inputs": [],
      "name": "erc20Contract",
      "outputs": [
        {
          "internalType": "contract DiscountToken",
          "name": "",
          "type": "address"
        }
      ],
      "stateMutability": "view",
      "type": "function"
    },
    {
      "inputs": [],
      "name": "getPendingRewards",
      "outputs": [
        {
          "internalType": "uint256",
          "name": "",
          "type": "uint256"
        }
      ],
      "stateMutability": "view",
      "type": "function"
    },
    {
      "inputs": [
        {
          "internalType": "address",
          "name": "user",
          "type": "address"
        }
      ],
      "name": "getStakedAmount",
      "outputs": [
        {
          "internalType": "uint24",
          "name": "",
          "type": "uint24"
        }
      ],
      "stateMutability": "view",
      "type": "function"
    },
    {
      "inputs": [
        {
          "internalType": "address",
          "name": "spender",
          "type": "address"
        },
        {
          "internalType": "uint256",
          "name": "addedValue",
          "type": "uint256"
        }
      ],
      "name": "increaseAllowance",
      "outputs": [
        {
          "internalType": "bool",
          "name": "",
          "type": "bool"
        }
      ],
      "stateMutability": "nonpayable",
      "type": "function"
    },
    {
      "inputs": [
        {
          "internalType": "address",
          "name": "",
          "type": "address"
        }
      ],
      "name": "isAdmin",
      "outputs": [
        {
          "internalType": "bool",
          "name": "",
          "type": "bool"
        }
      ],
      "stateMutability": "view",
      "type": "function"
    },
    {
      "inputs": [
        {
          "internalType": "address",
          "name": "_to",
          "type": "address"
        },
        {
          "internalType": "uint256",
          "name": "_amount",
          "type": "uint256"
        }
      ],
      "name": "mint",
      "outputs": [],
      "stateMutability": "nonpayable",
      "type": "function"
    },
    {
      "inputs": [],
      "name": "name",
      "outputs": [
        {
          "internalType": "string",
          "name": "",
          "type": "string"
        }
      ],
      "stateMutability": "view",
      "type": "function"
    },
    {
      "inputs": [
        {
          "internalType": "address",
          "name": "",
          "type": "address"
        },
        {
          "internalType": "address",
          "name": "",
          "type": "address"
        },
        {
          "internalType": "uint256[]",
          "name": "",
          "type": "uint256[]"
        },
        {
          "internalType": "uint256[]",
          "name": "",
          "type": "uint256[]"
        },
        {
          "internalType": "bytes",
          "name": "",
          "type": "bytes"
        }
      ],
      "name": "onERC1155BatchReceived",
      "outputs": [
        {
          "internalType": "bytes4",
          "name": "",
          "type": "bytes4"
        }
      ],
      "stateMutability": "nonpayable",
      "type": "function"
    },
    {
      "inputs": [
        {
          "internalType": "address",
          "name": "",
          "type": "address"
        },
        {
          "internalType": "address",
          "name": "",
          "type": "address"
        },
        {
          "internalType": "uint256",
          "name": "",
          "type": "uint256"
        },
        {
          "internalType": "uint256",
          "name": "",
          "type": "uint256"
        },
        {
          "internalType": "bytes",
          "name": "",
          "type": "bytes"
        }
      ],
      "name": "onERC1155Received",
      "outputs": [
        {
          "internalType": "bytes4",
          "name": "",
          "type": "bytes4"
        }
      ],
      "stateMutability": "nonpayable",
      "type": "function"
    },
    {
      "inputs": [],
      "name": "owner",
      "outputs": [
        {
          "internalType": "address",
          "name": "",
          "type": "address"
        }
      ],
      "stateMutability": "view",
      "type": "function"
    },
    {
      "inputs": [],
      "name": "renounceOwnership",
      "outputs": [],
      "stateMutability": "nonpayable",
      "type": "function"
    },
    {
      "inputs": [
        {
          "internalType": "address",
          "name": "_addr",
          "type": "address"
        }
      ],
      "name": "revokeAdminRights",
      "outputs": [],
      "stateMutability": "nonpayable",
      "type": "function"
    },
    {
      "inputs": [],
      "name": "rewardsRatePerSecond",
      "outputs": [
        {
          "internalType": "uint256",
          "name": "",
          "type": "uint256"
        }
      ],
      "stateMutability": "view",
      "type": "function"
    },
    {
      "inputs": [
        {
          "internalType": "uint24",
          "name": "_amount",
          "type": "uint24"
        }
      ],
      "name": "stakeERC1155ID1",
      "outputs": [],
      "stateMutability": "nonpayable",
      "type": "function"
    },
    {
      "inputs": [
        {
          "internalType": "address",
          "name": "",
          "type": "address"
        }
      ],
      "name": "stakedTokens",
      "outputs": [
        {
          "internalType": "uint24",
          "name": "tokenId",
          "type": "uint24"
        },
        {
          "internalType": "uint24",
          "name": "stakedAmount",
          "type": "uint24"
        },
        {
          "internalType": "uint256",
          "name": "stakingStartTime",
          "type": "uint256"
        }
      ],
      "stateMutability": "view",
      "type": "function"
    },
    {
      "inputs": [
        {
          "internalType": "bytes4",
          "name": "interfaceId",
          "type": "bytes4"
        }
      ],
      "name": "supportsInterface",
      "outputs": [
        {
          "internalType": "bool",
          "name": "",
          "type": "bool"
        }
      ],
      "stateMutability": "view",
      "type": "function"
    },
    {
      "inputs": [],
      "name": "symbol",
      "outputs": [
        {
          "internalType": "string",
          "name": "",
          "type": "string"
        }
      ],
      "stateMutability": "view",
      "type": "function"
    },
    {
      "inputs": [],
      "name": "totalSupply",
      "outputs": [
        {
          "internalType": "uint256",
          "name": "",
          "type": "uint256"
        }
      ],
      "stateMutability": "view",
      "type": "function"
    },
    {
      "inputs": [
        {
          "internalType": "address",
          "name": "to",
          "type": "address"
        },
        {
          "internalType": "uint256",
          "name": "amount",
          "type": "uint256"
        }
      ],
      "name": "transfer",
      "outputs": [
        {
          "internalType": "bool",
          "name": "",
          "type": "bool"
        }
      ],
      "stateMutability": "nonpayable",
      "type": "function"
    },
    {
      "inputs": [
        {
          "internalType": "address",
          "name": "from",
          "type": "address"
        },
        {
          "internalType": "address",
          "name": "to",
          "type": "address"
        },
        {
          "internalType": "uint256",
          "name": "amount",
          "type": "uint256"
        }
      ],
      "name": "transferFrom",
      "outputs": [
        {
          "internalType": "bool",
          "name": "",
          "type": "bool"
        }
      ],
      "stateMutability": "nonpayable",
      "type": "function"
    },
    {
      "inputs": [
        {
          "internalType": "address",
          "name": "newOwner",
          "type": "address"
        }
      ],
      "name": "transferOwnership",
      "outputs": [],
      "stateMutability": "nonpayable",
      "type": "function"
    },
    {
      "inputs": [
        {
          "internalType": "uint24",
          "name": "_unstakeAmount",
          "type": "uint24"
        }
      ],
      "name": "unstake",
      "outputs": [],
      "stateMutability": "nonpayable",
      "type": "function"
    },
    {
      "inputs": [
        {
          "internalType": "uint256",
          "name": "_newRate",
          "type": "uint256"
        }
      ],
      "name": "updateRewardsRatePerSeconds",
      "outputs": [],
      "stateMutability": "nonpayable",
      "type": "function"
    },
    {
      "stateMutability": "payable",
      "type": "receive"
    }
  ],
  "bytecode": "0x60806040523480156200001157600080fd5b5060405162001f1d38038062001f1d833981016040819052620000349162000168565b6040518060400160405280601181526020017026a1b22b2234b9b1b7bab73a2a37b5b2b760791b8152506040518060400160405280600381526020016213511560ea1b81525081600390816200008b919062000245565b5060046200009a828262000245565b505050620000b7620000b1620000f560201b60201c565b620000f9565b6001600755600880546001600160a01b039384166001600160a01b031991821617909155600980549290931691161790556203ecb1600b5562000311565b3390565b600580546001600160a01b038381166001600160a01b0319831681179093556040519116919082907f8be0079c531659141344cd1fd0a4f28419497f9722a3daafe3b4186f6b6457e090600090a35050565b80516001600160a01b03811681146200016357600080fd5b919050565b600080604083850312156200017c57600080fd5b62000187836200014b565b915062000197602084016200014b565b90509250929050565b634e487b7160e01b600052604160045260246000fd5b600181811c90821680620001cb57607f821691505b602082108103620001ec57634e487b7160e01b600052602260045260246000fd5b50919050565b601f8211156200024057600081815260208120601f850160051c810160208610156200021b5750805b601f850160051c820191505b818110156200023c5782815560010162000227565b5050505b505050565b81516001600160401b03811115620002615762000261620001a0565b6200027981620002728454620001b6565b84620001f2565b602080601f831160018114620002b15760008415620002985750858301515b600019600386901b1c1916600185901b1785556200023c565b600085815260208120601f198616915b82811015620002e257888601518255948401946001909101908401620002c1565b5085821015620003015787850151600019600388901b60f8161c191681555b5050505050600190811b01905550565b611bfc80620003216000396000f3fe6080604052600436106101c45760003560e01c806370a08231116100f6578063a5b39cfb1161008f578063d9621f9e11610061578063d9621f9e146105f2578063dd62ed3e14610607578063f23a6e6114610627578063f2fde38b1461065357005b8063a5b39cfb14610506578063a8f6c9131461056d578063a9059cbb1461058d578063bc197c81146105ad57005b80637e20c827116100c85780637e20c8271461049d5780638da5cb5b146104b357806395d89b41146104d1578063a457c2d7146104e657005b806370a08231146103fa578063715018a61461043057806374180213146104455780637a5649701461046557005b806324d7806c11610168578063395093511161013a578063395093511461034457806340c10f19146103645780634da6a556146103845780636815210b146103da57005b806324d7806c146102c3578063313ce567146102f3578063372500ab1461030f5780633725a2c41461032457005b806306fdde03116101a157806306fdde0314610242578063095ea7b31461026457806318160ddd1461028457806323b872dd146102a357005b806301ffc9a7146101cd5780630257e0831461020257806305d52d091461022257005b366101cb57005b005b3480156101d957600080fd5b506101ed6101e83660046116e8565b610673565b60405190151581526020015b60405180910390f35b34801561020e57600080fd5b506101cb61021d366004611719565b6106aa565b34801561022e57600080fd5b506101cb61023d36600461174e565b6106ed565b34801561024e57600080fd5b506102576107ab565b6040516101f99190611769565b34801561027057600080fd5b506101ed61027f3660046117b7565b61083d565b34801561029057600080fd5b506002545b6040519081526020016101f9565b3480156102af57600080fd5b506101ed6102be3660046117e1565b610855565b3480156102cf57600080fd5b506101ed6102de36600461174e565b60066020526000908152604090205460ff1681565b3480156102ff57600080fd5b50604051601281526020016101f9565b34801561031b57600080fd5b506101cb610879565b34801561033057600080fd5b506101cb61033f36600461181d565b610896565b34801561035057600080fd5b506101ed61035f3660046117b7565b610a8b565b34801561037057600080fd5b506101cb61037f3660046117b7565b610aad565b34801561039057600080fd5b506103c661039f36600461174e565b6001600160a01b03166000908152600a60205260409020546301000000900462ffffff1690565b60405162ffffff90911681526020016101f9565b3480156103e657600080fd5b506101cb6103f536600461174e565b610bde565b34801561040657600080fd5b5061029561041536600461174e565b6001600160a01b031660009081526020819052604090205490565b34801561043c57600080fd5b506101cb610c9b565b34801561045157600080fd5b506101cb61046036600461181d565b610cad565b34801561047157600080fd5b50600854610485906001600160a01b031681565b6040516001600160a01b0390911681526020016101f9565b3480156104a957600080fd5b50610295600b5481565b3480156104bf57600080fd5b506005546001600160a01b0316610485565b3480156104dd57600080fd5b50610257610e3d565b3480156104f257600080fd5b506101ed6105013660046117b7565b610e4c565b34801561051257600080fd5b5061054b61052136600461174e565b600a602052600090815260409020805460019091015462ffffff8083169263010000009004169083565b6040805162ffffff9485168152939092166020840152908201526060016101f9565b34801561057957600080fd5b50600954610485906001600160a01b031681565b34801561059957600080fd5b506101ed6105a83660046117b7565b610ec7565b3480156105b957600080fd5b506105d96105c8366004611979565b63bc197c8160e01b95945050505050565b6040516001600160e01b031990911681526020016101f9565b3480156105fe57600080fd5b50610295610ed5565b34801561061357600080fd5b50610295610622366004611a23565b610f84565b34801561063357600080fd5b506105d9610642366004611a56565b63f23a6e6160e01b95945050505050565b34801561065f57600080fd5b506101cb61066e36600461174e565b610faf565b60006001600160e01b03198216630271189760e51b14806106a457506301ffc9a760e01b6001600160e01b03198316145b92915050565b6106b2611025565b600b8190556040518181527fcde2f8a18458451af5ceec3fd30720f408c8553acca34fa995e9894d26ceb5339060200160405180910390a150565b6106f5611025565b6001600160a01b03811660009081526006602052604090205460ff166107625760405162461bcd60e51b815260206004820152601760248201527f41646472657373206973206e6f7420616e2061646d696e00000000000000000060448201526064015b60405180910390fd5b6001600160a01b038116600081815260066020526040808220805460ff19169055517f75063598bb424244ef6461ff8e1e0a1836998c3c84ef9e591015fbe8d94fa71f9190a250565b6060600380546107ba90611abb565b80601f01602080910402602001604051908101604052809291908181526020018280546107e690611abb565b80156108335780601f1061080857610100808354040283529160200191610833565b820191906000526020600020905b81548152906001019060200180831161081657829003601f168201915b5050505050905090565b60003361084b81858561107f565b5060019392505050565b6000336108638582856111a3565b61086e85858561121d565b506001949350505050565b6108816113c1565b61088a3361141a565b6108946001600755565b565b61089e6113c1565b60008162ffffff16116109045760405162461bcd60e51b815260206004820152602860248201527f5374616b696e67436f6e74726163743a20496e76616c696420756e7374616b656044820152671908185b5bdd5b9d60c21b6064820152608401610759565b336000908152600a60205260409020805462ffffff80841663010000009092041610156109875760405162461bcd60e51b815260206004820152602b60248201527f5374616b696e67436f6e74726163743a20496e73756666696369656e7420737460448201526a185ad95908185b5bdd5b9d60aa1b6064820152608401610759565b6109903361141a565b6008548154604051637921219560e11b81526001600160a01b039092169163f242432a916109ce913091339162ffffff909116908890600401611af5565b600060405180830381600087803b1580156109e857600080fd5b505af11580156109fc573d6000803e3d6000fd5b50508254849250839150600390610a209084906301000000900462ffffff16611b4a565b82546101009290920a62ffffff818102199093169183160217909155825460408051918316825291851660208201523392507fc03c3003451163c0235d8995c26d5d8043ed24c92aec0b872678c043629ab2f7910160405180910390a250610a886001600755565b50565b60003361084b818585610a9e8383610f84565b610aa89190611b6d565b61107f565b3360009081526006602052604090205460ff16610b325760405162461bcd60e51b815260206004820152603d60248201527f596f75206e65656420746f206265206120726567697374657265642061646d6960448201527f6e20696e206f7264657220746f206d696e74207468697320746f6b656e0000006064820152608401610759565b60008111610b8d5760405162461bcd60e51b815260206004820152602260248201527f4d696e7420616d6f756e74206d7573742062652067726561746572207468616e604482015261020360f41b6064820152608401610759565b610b9782826115d7565b816001600160a01b03167f3f2c9d57c068687834f0de942a9babb9e5acab57d516d3480a3c16ee165a427382604051610bd291815260200190565b60405180910390a25050565b610be6611025565b6001600160a01b03811660009081526006602052604090205460ff1615610c4f5760405162461bcd60e51b815260206004820152601b60248201527f4164647265737320697320616c726561647920616e2061646d696e00000000006044820152606401610759565b6001600160a01b038116600081815260066020526040808220805460ff19166001179055517f15fc3ab2596712a0c412d9faa461b50edab868c0dc2f0d74796ef1ee3318b7d09190a250565b610ca3611025565b6108946000611696565b610cb56113c1565b60008162ffffff1611610d0a5760405162461bcd60e51b815260206004820152601f60248201527f5374616b696e67436f6e74726163743a20496e76616c696420616d6f756e74006044820152606401610759565b6001336000908152600a6020526040902080546301000000900462ffffff1615610d3757610d373361141a565b600854604051637921219560e11b81526001600160a01b039091169063f242432a90610d6d903390309087908990600401611af5565b600060405180830381600087803b158015610d8757600080fd5b505af1158015610d9b573d6000803e3d6000fd5b5050825462ffffff191662ffffff85811691909117808555869350849250600391610dd0918591630100000090910416611b80565b82546101009290920a62ffffff81810219909316918316021790915542600184015560408051858316815291861660208301523392507f38d4b1b350dc4e622f247fab3776d2f6032ee0317bb09c0008a539301517f3a2910160405180910390a25050610a886001600755565b6060600480546107ba90611abb565b60003381610e5a8286610f84565b905083811015610eba5760405162461bcd60e51b815260206004820152602560248201527f45524332303a2064656372656173656420616c6c6f77616e63652062656c6f77604482015264207a65726f60d81b6064820152608401610759565b61086e828686840361107f565b60003361084b81858561121d565b336000908152600a6020526040812080546301000000900462ffffff16610f3e5760405162461bcd60e51b815260206004820181905260248201527f5374616b696e67436f6e74726163743a204e6f20746f6b656e207374616b65646044820152606401610759565b6000816001015442610f509190611b9c565b600b548354919250600091610f729084906301000000900462ffffff16611baf565b610f7c9190611baf565b949350505050565b6001600160a01b03918216600090815260016020908152604080832093909416825291909152205490565b610fb7611025565b6001600160a01b03811661101c5760405162461bcd60e51b815260206004820152602660248201527f4f776e61626c653a206e6577206f776e657220697320746865207a65726f206160448201526564647265737360d01b6064820152608401610759565b610a8881611696565b6005546001600160a01b031633146108945760405162461bcd60e51b815260206004820181905260248201527f4f776e61626c653a2063616c6c6572206973206e6f7420746865206f776e65726044820152606401610759565b6001600160a01b0383166110e15760405162461bcd60e51b8152602060048201526024808201527f45524332303a20617070726f76652066726f6d20746865207a65726f206164646044820152637265737360e01b6064820152608401610759565b6001600160a01b0382166111425760405162461bcd60e51b815260206004820152602260248201527f45524332303a20617070726f766520746f20746865207a65726f206164647265604482015261737360f01b6064820152608401610759565b6001600160a01b0383811660008181526001602090815260408083209487168084529482529182902085905590518481527f8c5be1e5ebec7d5bd14f71427d1e84f3dd0314c0f7b2291e5b200ac8c7c3b925910160405180910390a3505050565b60006111af8484610f84565b90506000198114611217578181101561120a5760405162461bcd60e51b815260206004820152601d60248201527f45524332303a20696e73756666696369656e7420616c6c6f77616e63650000006044820152606401610759565b611217848484840361107f565b50505050565b6001600160a01b0383166112815760405162461bcd60e51b815260206004820152602560248201527f45524332303a207472616e736665722066726f6d20746865207a65726f206164604482015264647265737360d81b6064820152608401610759565b6001600160a01b0382166112e35760405162461bcd60e51b815260206004820152602360248201527f45524332303a207472616e7366657220746f20746865207a65726f206164647260448201526265737360e81b6064820152608401610759565b6001600160a01b0383166000908152602081905260409020548181101561135b5760405162461bcd60e51b815260206004820152602660248201527f45524332303a207472616e7366657220616d6f756e7420657863656564732062604482015265616c616e636560d01b6064820152608401610759565b6001600160a01b03848116600081815260208181526040808320878703905593871680835291849020805487019055925185815290927fddf252ad1be2c89b69c2b068fc378daa952ba7f163c4a11628f55a4df523b3ef910160405180910390a3611217565b6002600754036114135760405162461bcd60e51b815260206004820152601f60248201527f5265656e7472616e637947756172643a207265656e7472616e742063616c6c006044820152606401610759565b6002600755565b6001600160a01b0381166000908152600a6020526040902080546301000000900462ffffff1661148c5760405162461bcd60e51b815260206004820181905260248201527f5374616b696e67436f6e74726163743a204e6f20746f6b656e207374616b65646044820152606401610759565b600081600101544261149e9190611b9c565b600b5483549192506000916114c09084906301000000900462ffffff16611baf565b6114ca9190611baf565b9050600081116115275760405162461bcd60e51b815260206004820152602260248201527f5374616b696e67436f6e74726163743a204e6f2072657761726473206561726e604482015261195960f21b6064820152608401610759565b6009546040516340c10f1960e01b81526001600160a01b03868116600483015260248201849052909116906340c10f1990604401600060405180830381600087803b15801561157557600080fd5b505af1158015611589573d6000803e3d6000fd5b505042600186015550506040518181526001600160a01b038516907fd8138f8a3f377c5259ca548e70e4c2de94f129f5a11036a15b69513cba2b426a9060200160405180910390a250505050565b6001600160a01b03821661162d5760405162461bcd60e51b815260206004820152601f60248201527f45524332303a206d696e7420746f20746865207a65726f2061646472657373006044820152606401610759565b806002600082825461163f9190611b6d565b90915550506001600160a01b038216600081815260208181526040808320805486019055518481527fddf252ad1be2c89b69c2b068fc378daa952ba7f163c4a11628f55a4df523b3ef910160405180910390a35050565b600580546001600160a01b038381166001600160a01b0319831681179093556040519116919082907f8be0079c531659141344cd1fd0a4f28419497f9722a3daafe3b4186f6b6457e090600090a35050565b6000602082840312156116fa57600080fd5b81356001600160e01b03198116811461171257600080fd5b9392505050565b60006020828403121561172b57600080fd5b5035919050565b80356001600160a01b038116811461174957600080fd5b919050565b60006020828403121561176057600080fd5b61171282611732565b600060208083528351808285015260005b818110156117965785810183015185820160400152820161177a565b506000604082860101526040601f19601f8301168501019250505092915050565b600080604083850312156117ca57600080fd5b6117d383611732565b946020939093013593505050565b6000806000606084860312156117f657600080fd5b6117ff84611732565b925061180d60208501611732565b9150604084013590509250925092565b60006020828403121561182f57600080fd5b813562ffffff8116811461171257600080fd5b634e487b7160e01b600052604160045260246000fd5b604051601f8201601f1916810167ffffffffffffffff8111828210171561188157611881611842565b604052919050565b600082601f83011261189a57600080fd5b8135602067ffffffffffffffff8211156118b6576118b6611842565b8160051b6118c5828201611858565b92835284810182019282810190878511156118df57600080fd5b83870192505b848310156118fe578235825291830191908301906118e5565b979650505050505050565b600082601f83011261191a57600080fd5b813567ffffffffffffffff81111561193457611934611842565b611947601f8201601f1916602001611858565b81815284602083860101111561195c57600080fd5b816020850160208301376000918101602001919091529392505050565b600080600080600060a0868803121561199157600080fd5b61199a86611732565b94506119a860208701611732565b9350604086013567ffffffffffffffff808211156119c557600080fd5b6119d189838a01611889565b945060608801359150808211156119e757600080fd5b6119f389838a01611889565b93506080880135915080821115611a0957600080fd5b50611a1688828901611909565b9150509295509295909350565b60008060408385031215611a3657600080fd5b611a3f83611732565b9150611a4d60208401611732565b90509250929050565b600080600080600060a08688031215611a6e57600080fd5b611a7786611732565b9450611a8560208701611732565b93506040860135925060608601359150608086013567ffffffffffffffff811115611aaf57600080fd5b611a1688828901611909565b600181811c90821680611acf57607f821691505b602082108103611aef57634e487b7160e01b600052602260045260246000fd5b50919050565b6001600160a01b03948516815292909316602083015262ffffff9081166040830152909116606082015260a06080820181905260009082015260c00190565b634e487b7160e01b600052601160045260246000fd5b62ffffff828116828216039080821115611b6657611b66611b34565b5092915050565b808201808211156106a4576106a4611b34565b62ffffff818116838216019080821115611b6657611b66611b34565b818103818111156106a4576106a4611b34565b80820281158282048414176106a4576106a4611b3456fea26469706673582212204e94e782432c24e425caa79cab440d19ada5d91ede378b144060bd31bd880da064736f6c63430008120033",
  "linkReferences": {},
  "deployedLinkReferences": {}
}