{
  "_format": "hh-sol-artifact-1",
  "contractName": "StakingERC1155Id1",
  "sourceName": "contracts/StakingERC1155Id1.sol",
  "abi": [
    {
      "inputs": [
        {
          "internalType": "address",
          "name": "_erc1155Contract",
          "type": "address"
        },
        {
          "internalType": "address",
          "name": "_erc20Contract",
          "type": "address"
        }
      ],
      "stateMutability": "nonpayable",
      "type": "constructor"
    },
    {
      "anonymous": false,
      "inputs": [
        {
          "indexed": true,
          "internalType": "address",
          "name": "owner",
          "type": "address"
        },
        {
          "indexed": true,
          "internalType": "address",
          "name": "spender",
          "type": "address"
        },
        {
          "indexed": false,
          "internalType": "uint256",
          "name": "value",
          "type": "uint256"
        }
      ],
      "name": "Approval",
      "type": "event"
    },
    {
      "anonymous": false,
      "inputs": [
        {
          "indexed": true,
          "internalType": "address",
          "name": "staker",
          "type": "address"
        },
        {
          "indexed": false,
          "internalType": "uint256",
          "name": "amountClaimed",
          "type": "uint256"
        }
      ],
      "name": "Claimed",
      "type": "event"
    },
    {
      "anonymous": false,
      "inputs": [
        {
          "indexed": true,
          "internalType": "address",
          "name": "previousOwner",
          "type": "address"
        },
        {
          "indexed": true,
          "internalType": "address",
          "name": "newOwner",
          "type": "address"
        }
      ],
      "name": "OwnershipTransferred",
      "type": "event"
    },
    {
      "anonymous": false,
      "inputs": [
        {
          "indexed": false,
          "internalType": "uint256",
          "name": "newRate",
          "type": "uint256"
        }
      ],
      "name": "RewardsRateUpdated",
      "type": "event"
    },
    {
      "anonymous": false,
      "inputs": [
        {
          "indexed": true,
          "internalType": "address",
          "name": "staker",
          "type": "address"
        },
        {
          "indexed": false,
          "internalType": "uint24",
          "name": "_tokenId",
          "type": "uint24"
        },
        {
          "indexed": false,
          "internalType": "uint24",
          "name": "amountStaked",
          "type": "uint24"
        }
      ],
      "name": "Staked",
      "type": "event"
    },
    {
      "anonymous": false,
      "inputs": [
        {
          "indexed": true,
          "internalType": "address",
          "name": "from",
          "type": "address"
        },
        {
          "indexed": true,
          "internalType": "address",
          "name": "to",
          "type": "address"
        },
        {
          "indexed": false,
          "internalType": "uint256",
          "name": "value",
          "type": "uint256"
        }
      ],
      "name": "Transfer",
      "type": "event"
    },
    {
      "anonymous": false,
      "inputs": [
        {
          "indexed": true,
          "internalType": "address",
          "name": "staker",
          "type": "address"
        },
        {
          "indexed": false,
          "internalType": "uint24",
          "name": "_tokenId",
          "type": "uint24"
        },
        {
          "indexed": false,
          "internalType": "uint24",
          "name": "amountUnstaked",
          "type": "uint24"
        }
      ],
      "name": "Unstaked",
      "type": "event"
    },
    {
      "stateMutability": "payable",
      "type": "fallback"
    },
    {
      "inputs": [
        {
          "internalType": "address",
          "name": "_addr",
          "type": "address"
        }
      ],
      "name": "addAdminRights",
      "outputs": [],
      "stateMutability": "nonpayable",
      "type": "function"
    },
    {
      "inputs": [
        {
          "internalType": "address",
          "name": "owner",
          "type": "address"
        },
        {
          "internalType": "address",
          "name": "spender",
          "type": "address"
        }
      ],
      "name": "allowance",
      "outputs": [
        {
          "internalType": "uint256",
          "name": "",
          "type": "uint256"
        }
      ],
      "stateMutability": "view",
      "type": "function"
    },
    {
      "inputs": [
        {
          "internalType": "address",
          "name": "spender",
          "type": "address"
        },
        {
          "internalType": "uint256",
          "name": "amount",
          "type": "uint256"
        }
      ],
      "name": "approve",
      "outputs": [
        {
          "internalType": "bool",
          "name": "",
          "type": "bool"
        }
      ],
      "stateMutability": "nonpayable",
      "type": "function"
    },
    {
      "inputs": [
        {
          "internalType": "address",
          "name": "account",
          "type": "address"
        }
      ],
      "name": "balanceOf",
      "outputs": [
        {
          "internalType": "uint256",
          "name": "",
          "type": "uint256"
        }
      ],
      "stateMutability": "view",
      "type": "function"
    },
    {
      "inputs": [],
      "name": "claimRewards",
      "outputs": [],
      "stateMutability": "nonpayable",
      "type": "function"
    },
    {
      "inputs": [],
      "name": "decimals",
      "outputs": [
        {
          "internalType": "uint8",
          "name": "",
          "type": "uint8"
        }
      ],
      "stateMutability": "view",
      "type": "function"
    },
    {
      "inputs": [
        {
          "internalType": "address",
          "name": "spender",
          "type": "address"
        },
        {
          "internalType": "uint256",
          "name": "subtractedValue",
          "type": "uint256"
        }
      ],
      "name": "decreaseAllowance",
      "outputs": [
        {
          "internalType": "bool",
          "name": "",
          "type": "bool"
        }
      ],
      "stateMutability": "nonpayable",
      "type": "function"
    },
    {
      "inputs": [],
      "name": "erc1155Contract",
      "outputs": [
        {
          "internalType": "contract Tokenize",
          "name": "",
          "type": "address"
        }
      ],
      "stateMutability": "view",
      "type": "function"
    },
    {
      "inputs": [],
      "name": "erc20Contract",
      "outputs": [
        {
          "internalType": "contract DiscountToken",
          "name": "",
          "type": "address"
        }
      ],
      "stateMutability": "view",
      "type": "function"
    },
    {
      "inputs": [],
      "name": "getPendingRewards",
      "outputs": [
        {
          "internalType": "uint256",
          "name": "",
          "type": "uint256"
        }
      ],
      "stateMutability": "view",
      "type": "function"
    },
    {
      "inputs": [
        {
          "internalType": "address",
          "name": "user",
          "type": "address"
        }
      ],
      "name": "getStakedAmount",
      "outputs": [
        {
          "internalType": "uint24",
          "name": "",
          "type": "uint24"
        }
      ],
      "stateMutability": "view",
      "type": "function"
    },
    {
      "inputs": [
        {
          "internalType": "address",
          "name": "spender",
          "type": "address"
        },
        {
          "internalType": "uint256",
          "name": "addedValue",
          "type": "uint256"
        }
      ],
      "name": "increaseAllowance",
      "outputs": [
        {
          "internalType": "bool",
          "name": "",
          "type": "bool"
        }
      ],
      "stateMutability": "nonpayable",
      "type": "function"
    },
    {
      "inputs": [
        {
          "internalType": "address",
          "name": "",
          "type": "address"
        }
      ],
      "name": "isAdmin",
      "outputs": [
        {
          "internalType": "bool",
          "name": "",
          "type": "bool"
        }
      ],
      "stateMutability": "view",
      "type": "function"
    },
    {
      "inputs": [
        {
          "internalType": "address",
          "name": "_to",
          "type": "address"
        },
        {
          "internalType": "uint256",
          "name": "_amount",
          "type": "uint256"
        }
      ],
      "name": "mint",
      "outputs": [],
      "stateMutability": "nonpayable",
      "type": "function"
    },
    {
      "inputs": [],
      "name": "name",
      "outputs": [
        {
          "internalType": "string",
          "name": "",
          "type": "string"
        }
      ],
      "stateMutability": "view",
      "type": "function"
    },
    {
      "inputs": [
        {
          "internalType": "address",
          "name": "",
          "type": "address"
        },
        {
          "internalType": "address",
          "name": "",
          "type": "address"
        },
        {
          "internalType": "uint256[]",
          "name": "",
          "type": "uint256[]"
        },
        {
          "internalType": "uint256[]",
          "name": "",
          "type": "uint256[]"
        },
        {
          "internalType": "bytes",
          "name": "",
          "type": "bytes"
        }
      ],
      "name": "onERC1155BatchReceived",
      "outputs": [
        {
          "internalType": "bytes4",
          "name": "",
          "type": "bytes4"
        }
      ],
      "stateMutability": "nonpayable",
      "type": "function"
    },
    {
      "inputs": [
        {
          "internalType": "address",
          "name": "",
          "type": "address"
        },
        {
          "internalType": "address",
          "name": "",
          "type": "address"
        },
        {
          "internalType": "uint256",
          "name": "",
          "type": "uint256"
        },
        {
          "internalType": "uint256",
          "name": "",
          "type": "uint256"
        },
        {
          "internalType": "bytes",
          "name": "",
          "type": "bytes"
        }
      ],
      "name": "onERC1155Received",
      "outputs": [
        {
          "internalType": "bytes4",
          "name": "",
          "type": "bytes4"
        }
      ],
      "stateMutability": "nonpayable",
      "type": "function"
    },
    {
      "inputs": [],
      "name": "owner",
      "outputs": [
        {
          "internalType": "address",
          "name": "",
          "type": "address"
        }
      ],
      "stateMutability": "view",
      "type": "function"
    },
    {
      "inputs": [],
      "name": "renounceOwnership",
      "outputs": [],
      "stateMutability": "nonpayable",
      "type": "function"
    },
    {
      "inputs": [
        {
          "internalType": "address",
          "name": "_addr",
          "type": "address"
        }
      ],
      "name": "revokeAdminRights",
      "outputs": [],
      "stateMutability": "nonpayable",
      "type": "function"
    },
    {
      "inputs": [],
      "name": "rewardsRatePerSecond",
      "outputs": [
        {
          "internalType": "uint256",
          "name": "",
          "type": "uint256"
        }
      ],
      "stateMutability": "view",
      "type": "function"
    },
    {
      "inputs": [
        {
          "internalType": "uint24",
          "name": "_tokenId",
          "type": "uint24"
        },
        {
          "internalType": "uint24",
          "name": "_amount",
          "type": "uint24"
        }
      ],
      "name": "stakeERC1155ID1",
      "outputs": [],
      "stateMutability": "nonpayable",
      "type": "function"
    },
    {
      "inputs": [
        {
          "internalType": "address",
          "name": "",
          "type": "address"
        }
      ],
      "name": "stakedTokens",
      "outputs": [
        {
          "internalType": "uint24",
          "name": "tokenId",
          "type": "uint24"
        },
        {
          "internalType": "uint24",
          "name": "stakedAmount",
          "type": "uint24"
        },
        {
          "internalType": "uint256",
          "name": "stakingStartTime",
          "type": "uint256"
        }
      ],
      "stateMutability": "view",
      "type": "function"
    },
    {
      "inputs": [
        {
          "internalType": "bytes4",
          "name": "interfaceId",
          "type": "bytes4"
        }
      ],
      "name": "supportsInterface",
      "outputs": [
        {
          "internalType": "bool",
          "name": "",
          "type": "bool"
        }
      ],
      "stateMutability": "view",
      "type": "function"
    },
    {
      "inputs": [],
      "name": "symbol",
      "outputs": [
        {
          "internalType": "string",
          "name": "",
          "type": "string"
        }
      ],
      "stateMutability": "view",
      "type": "function"
    },
    {
      "inputs": [],
      "name": "totalSupply",
      "outputs": [
        {
          "internalType": "uint256",
          "name": "",
          "type": "uint256"
        }
      ],
      "stateMutability": "view",
      "type": "function"
    },
    {
      "inputs": [
        {
          "internalType": "address",
          "name": "to",
          "type": "address"
        },
        {
          "internalType": "uint256",
          "name": "amount",
          "type": "uint256"
        }
      ],
      "name": "transfer",
      "outputs": [
        {
          "internalType": "bool",
          "name": "",
          "type": "bool"
        }
      ],
      "stateMutability": "nonpayable",
      "type": "function"
    },
    {
      "inputs": [
        {
          "internalType": "address",
          "name": "from",
          "type": "address"
        },
        {
          "internalType": "address",
          "name": "to",
          "type": "address"
        },
        {
          "internalType": "uint256",
          "name": "amount",
          "type": "uint256"
        }
      ],
      "name": "transferFrom",
      "outputs": [
        {
          "internalType": "bool",
          "name": "",
          "type": "bool"
        }
      ],
      "stateMutability": "nonpayable",
      "type": "function"
    },
    {
      "inputs": [
        {
          "internalType": "address",
          "name": "newOwner",
          "type": "address"
        }
      ],
      "name": "transferOwnership",
      "outputs": [],
      "stateMutability": "nonpayable",
      "type": "function"
    },
    {
      "inputs": [
        {
          "internalType": "uint24",
          "name": "_unstakeAmount",
          "type": "uint24"
        }
      ],
      "name": "unstake",
      "outputs": [],
      "stateMutability": "nonpayable",
      "type": "function"
    },
    {
      "inputs": [
        {
          "internalType": "uint256",
          "name": "_newRate",
          "type": "uint256"
        }
      ],
      "name": "updateRewardsRatePerSeconds",
      "outputs": [],
      "stateMutability": "nonpayable",
      "type": "function"
    },
    {
      "stateMutability": "payable",
      "type": "receive"
    }
  ],
  "bytecode": "0x60806040523480156200001157600080fd5b5060405162001e7638038062001e76833981016040819052620000349162000168565b6040518060400160405280601181526020017026a1b22b2234b9b1b7bab73a2a37b5b2b760791b8152506040518060400160405280600381526020016213511560ea1b81525081600390816200008b919062000245565b5060046200009a828262000245565b505050620000b7620000b1620000f560201b60201c565b620000f9565b6001600755600880546001600160a01b039384166001600160a01b031991821617909155600980549290931691161790556203ecb1600b5562000311565b3390565b600580546001600160a01b038381166001600160a01b0319831681179093556040519116919082907f8be0079c531659141344cd1fd0a4f28419497f9722a3daafe3b4186f6b6457e090600090a35050565b80516001600160a01b03811681146200016357600080fd5b919050565b600080604083850312156200017c57600080fd5b62000187836200014b565b915062000197602084016200014b565b90509250929050565b634e487b7160e01b600052604160045260246000fd5b600181811c90821680620001cb57607f821691505b602082108103620001ec57634e487b7160e01b600052602260045260246000fd5b50919050565b601f8211156200024057600081815260208120601f850160051c810160208610156200021b5750805b601f850160051c820191505b818110156200023c5782815560010162000227565b5050505b505050565b81516001600160401b03811115620002615762000261620001a0565b6200027981620002728454620001b6565b84620001f2565b602080601f831160018114620002b15760008415620002985750858301515b600019600386901b1c1916600185901b1785556200023c565b600085815260208120601f198616915b82811015620002e257888601518255948401946001909101908401620002c1565b5085821015620003015787850151600019600388901b60f8161c191681555b5050505050600190811b01905550565b611b5580620003216000396000f3fe6080604052600436106101c45760003560e01c80636815210b116100f6578063a5b39cfb1161008f578063d9621f9e11610061578063d9621f9e146105f2578063dd62ed3e14610607578063f23a6e6114610627578063f2fde38b1461065357005b8063a5b39cfb14610506578063a8f6c9131461056d578063a9059cbb1461058d578063bc197c81146105ad57005b80637e20c827116100c85780637e20c8271461049d5780638da5cb5b146104b357806395d89b41146104d1578063a457c2d7146104e657005b80636815210b146103fa57806370a082311461041a578063715018a6146104505780637a5649701461046557005b806324d7806c116101685780633725a2c41161013a5780633725a2c414610344578063395093511461036457806340c10f19146103845780634da6a556146103a457005b806324d7806c146102c35780632cc97ac3146102f3578063313ce56714610313578063372500ab1461032f57005b806306fdde03116101a157806306fdde0314610242578063095ea7b31461026457806318160ddd1461028457806323b872dd146102a357005b806301ffc9a7146101cd5780630257e0831461020257806305d52d091461022257005b366101cb57005b005b3480156101d957600080fd5b506101ed6101e836600461160e565b610673565b60405190151581526020015b60405180910390f35b34801561020e57600080fd5b506101cb61021d36600461163f565b6106aa565b34801561022e57600080fd5b506101cb61023d366004611674565b6106ed565b34801561024e57600080fd5b50610257610716565b6040516101f9919061168f565b34801561027057600080fd5b506101ed61027f3660046116dd565b6107a8565b34801561029057600080fd5b506002545b6040519081526020016101f9565b3480156102af57600080fd5b506101ed6102be366004611707565b6107c0565b3480156102cf57600080fd5b506101ed6102de366004611674565b60066020526000908152604090205460ff1681565b3480156102ff57600080fd5b506101cb61030e366004611756565b6107e4565b34801561031f57600080fd5b50604051601281526020016101f9565b34801561033b57600080fd5b506101cb610a07565b34801561035057600080fd5b506101cb61035f366004611789565b610a24565b34801561037057600080fd5b506101ed61037f3660046116dd565b610c19565b34801561039057600080fd5b506101cb61039f3660046116dd565b610c3b565b3480156103b057600080fd5b506103e66103bf366004611674565b6001600160a01b03166000908152600a60205260409020546301000000900462ffffff1690565b60405162ffffff90911681526020016101f9565b34801561040657600080fd5b506101cb610415366004611674565b610d25565b34801561042657600080fd5b50610295610435366004611674565b6001600160a01b031660009081526020819052604090205490565b34801561045c57600080fd5b506101cb610d51565b34801561047157600080fd5b50600854610485906001600160a01b031681565b6040516001600160a01b0390911681526020016101f9565b3480156104a957600080fd5b50610295600b5481565b3480156104bf57600080fd5b506005546001600160a01b0316610485565b3480156104dd57600080fd5b50610257610d63565b3480156104f257600080fd5b506101ed6105013660046116dd565b610d72565b34801561051257600080fd5b5061054b610521366004611674565b600a602052600090815260409020805460019091015462ffffff8083169263010000009004169083565b6040805162ffffff9485168152939092166020840152908201526060016101f9565b34801561057957600080fd5b50600954610485906001600160a01b031681565b34801561059957600080fd5b506101ed6105a83660046116dd565b610ded565b3480156105b957600080fd5b506105d96105c83660046118db565b63bc197c8160e01b95945050505050565b6040516001600160e01b031990911681526020016101f9565b3480156105fe57600080fd5b50610295610dfb565b34801561061357600080fd5b50610295610622366004611985565b610eaa565b34801561063357600080fd5b506105d96106423660046119af565b63f23a6e6160e01b95945050505050565b34801561065f57600080fd5b506101cb61066e366004611674565b610ed5565b60006001600160e01b03198216630271189760e51b14806106a457506301ffc9a760e01b6001600160e01b03198316145b92915050565b6106b2610f4b565b600b8190556040518181527fcde2f8a18458451af5ceec3fd30720f408c8553acca34fa995e9894d26ceb5339060200160405180910390a150565b6106f5610f4b565b6001600160a01b03166000908152600660205260409020805460ff19169055565b60606003805461072590611a14565b80601f016020809104026020016040519081016040528092919081815260200182805461075190611a14565b801561079e5780601f106107735761010080835404028352916020019161079e565b820191906000526020600020905b81548152906001019060200180831161078157829003601f168201915b5050505050905090565b6000336107b6818585610fa5565b5060019392505050565b6000336107ce8582856110c9565b6107d9858585611143565b506001949350505050565b6107ec6112e7565b60008162ffffff16116108465760405162461bcd60e51b815260206004820152601f60248201527f5374616b696e67436f6e74726163743a20496e76616c696420616d6f756e740060448201526064015b60405180910390fd5b8162ffffff166001146108d35760405162461bcd60e51b815260206004820152604960248201527f5374616b696e67436f6e74726163743a204f6e6c7920746f6b656e732077697460448201527f6820494420312063616e206265207374616b656420696e2074686973205374616064820152681ada5b99c8141bdbdb60ba1b608482015260a40161083d565b336000908152600a6020526040902080546301000000900462ffffff16156108fe576108fe33611340565b600854604051637921219560e11b81526001600160a01b039091169063f242432a90610934903390309088908890600401611a4e565b600060405180830381600087803b15801561094e57600080fd5b505af1158015610962573d6000803e3d6000fd5b5050825462ffffff191662ffffff86811691909117808555859350849250600391610997918591630100000090910416611aa3565b82546101009290920a62ffffff81810219909316918316021790915542600184015560408051868316815291851660208301523392507f38d4b1b350dc4e622f247fab3776d2f6032ee0317bb09c0008a539301517f3a2910160405180910390a250610a036001600755565b5050565b610a0f6112e7565b610a1833611340565b610a226001600755565b565b610a2c6112e7565b60008162ffffff1611610a925760405162461bcd60e51b815260206004820152602860248201527f5374616b696e67436f6e74726163743a20496e76616c696420756e7374616b656044820152671908185b5bdd5b9d60c21b606482015260840161083d565b336000908152600a60205260409020805462ffffff8084166301000000909204161015610b155760405162461bcd60e51b815260206004820152602b60248201527f5374616b696e67436f6e74726163743a20496e73756666696369656e7420737460448201526a185ad95908185b5bdd5b9d60aa1b606482015260840161083d565b610b1e33611340565b6008548154604051637921219560e11b81526001600160a01b039092169163f242432a91610b5c913091339162ffffff909116908890600401611a4e565b600060405180830381600087803b158015610b7657600080fd5b505af1158015610b8a573d6000803e3d6000fd5b50508254849250839150600390610bae9084906301000000900462ffffff16611ac6565b82546101009290920a62ffffff818102199093169183160217909155825460408051918316825291851660208201523392507fc03c3003451163c0235d8995c26d5d8043ed24c92aec0b872678c043629ab2f7910160405180910390a250610c166001600755565b50565b6000336107b6818585610c2c8383610eaa565b610c369190611ae2565b610fa5565b3360009081526006602052604090205460ff16610cc05760405162461bcd60e51b815260206004820152603d60248201527f596f75206e65656420746f206265206120726567697374657265642061646d6960448201527f6e20696e206f7264657220746f206d696e74207468697320746f6b656e000000606482015260840161083d565b60008111610d1b5760405162461bcd60e51b815260206004820152602260248201527f4d696e7420616d6f756e74206d7573742062652067726561746572207468616e604482015261020360f41b606482015260840161083d565b610a0382826114fd565b610d2d610f4b565b6001600160a01b03166000908152600660205260409020805460ff19166001179055565b610d59610f4b565b610a2260006115bc565b60606004805461072590611a14565b60003381610d808286610eaa565b905083811015610de05760405162461bcd60e51b815260206004820152602560248201527f45524332303a2064656372656173656420616c6c6f77616e63652062656c6f77604482015264207a65726f60d81b606482015260840161083d565b6107d98286868403610fa5565b6000336107b6818585611143565b336000908152600a6020526040812080546301000000900462ffffff16610e645760405162461bcd60e51b815260206004820181905260248201527f5374616b696e67436f6e74726163743a204e6f20746f6b656e207374616b6564604482015260640161083d565b6000816001015442610e769190611af5565b600b548354919250600091610e989084906301000000900462ffffff16611b08565b610ea29190611b08565b949350505050565b6001600160a01b03918216600090815260016020908152604080832093909416825291909152205490565b610edd610f4b565b6001600160a01b038116610f425760405162461bcd60e51b815260206004820152602660248201527f4f776e61626c653a206e6577206f776e657220697320746865207a65726f206160448201526564647265737360d01b606482015260840161083d565b610c16816115bc565b6005546001600160a01b03163314610a225760405162461bcd60e51b815260206004820181905260248201527f4f776e61626c653a2063616c6c6572206973206e6f7420746865206f776e6572604482015260640161083d565b6001600160a01b0383166110075760405162461bcd60e51b8152602060048201526024808201527f45524332303a20617070726f76652066726f6d20746865207a65726f206164646044820152637265737360e01b606482015260840161083d565b6001600160a01b0382166110685760405162461bcd60e51b815260206004820152602260248201527f45524332303a20617070726f766520746f20746865207a65726f206164647265604482015261737360f01b606482015260840161083d565b6001600160a01b0383811660008181526001602090815260408083209487168084529482529182902085905590518481527f8c5be1e5ebec7d5bd14f71427d1e84f3dd0314c0f7b2291e5b200ac8c7c3b925910160405180910390a3505050565b60006110d58484610eaa565b9050600019811461113d57818110156111305760405162461bcd60e51b815260206004820152601d60248201527f45524332303a20696e73756666696369656e7420616c6c6f77616e6365000000604482015260640161083d565b61113d8484848403610fa5565b50505050565b6001600160a01b0383166111a75760405162461bcd60e51b815260206004820152602560248201527f45524332303a207472616e736665722066726f6d20746865207a65726f206164604482015264647265737360d81b606482015260840161083d565b6001600160a01b0382166112095760405162461bcd60e51b815260206004820152602360248201527f45524332303a207472616e7366657220746f20746865207a65726f206164647260448201526265737360e81b606482015260840161083d565b6001600160a01b038316600090815260208190526040902054818110156112815760405162461bcd60e51b815260206004820152602660248201527f45524332303a207472616e7366657220616d6f756e7420657863656564732062604482015265616c616e636560d01b606482015260840161083d565b6001600160a01b03848116600081815260208181526040808320878703905593871680835291849020805487019055925185815290927fddf252ad1be2c89b69c2b068fc378daa952ba7f163c4a11628f55a4df523b3ef910160405180910390a361113d565b6002600754036113395760405162461bcd60e51b815260206004820152601f60248201527f5265656e7472616e637947756172643a207265656e7472616e742063616c6c00604482015260640161083d565b6002600755565b6001600160a01b0381166000908152600a6020526040902080546301000000900462ffffff166113b25760405162461bcd60e51b815260206004820181905260248201527f5374616b696e67436f6e74726163743a204e6f20746f6b656e207374616b6564604482015260640161083d565b60008160010154426113c49190611af5565b600b5483549192506000916113e69084906301000000900462ffffff16611b08565b6113f09190611b08565b90506000811161144d5760405162461bcd60e51b815260206004820152602260248201527f5374616b696e67436f6e74726163743a204e6f2072657761726473206561726e604482015261195960f21b606482015260840161083d565b6009546040516340c10f1960e01b81526001600160a01b03868116600483015260248201849052909116906340c10f1990604401600060405180830381600087803b15801561149b57600080fd5b505af11580156114af573d6000803e3d6000fd5b505042600186015550506040518181526001600160a01b038516907fd8138f8a3f377c5259ca548e70e4c2de94f129f5a11036a15b69513cba2b426a9060200160405180910390a250505050565b6001600160a01b0382166115535760405162461bcd60e51b815260206004820152601f60248201527f45524332303a206d696e7420746f20746865207a65726f206164647265737300604482015260640161083d565b80600260008282546115659190611ae2565b90915550506001600160a01b038216600081815260208181526040808320805486019055518481527fddf252ad1be2c89b69c2b068fc378daa952ba7f163c4a11628f55a4df523b3ef910160405180910390a35050565b600580546001600160a01b038381166001600160a01b0319831681179093556040519116919082907f8be0079c531659141344cd1fd0a4f28419497f9722a3daafe3b4186f6b6457e090600090a35050565b60006020828403121561162057600080fd5b81356001600160e01b03198116811461163857600080fd5b9392505050565b60006020828403121561165157600080fd5b5035919050565b80356001600160a01b038116811461166f57600080fd5b919050565b60006020828403121561168657600080fd5b61163882611658565b600060208083528351808285015260005b818110156116bc578581018301518582016040015282016116a0565b506000604082860101526040601f19601f8301168501019250505092915050565b600080604083850312156116f057600080fd5b6116f983611658565b946020939093013593505050565b60008060006060848603121561171c57600080fd5b61172584611658565b925061173360208501611658565b9150604084013590509250925092565b803562ffffff8116811461166f57600080fd5b6000806040838503121561176957600080fd5b61177283611743565b915061178060208401611743565b90509250929050565b60006020828403121561179b57600080fd5b61163882611743565b634e487b7160e01b600052604160045260246000fd5b604051601f8201601f1916810167ffffffffffffffff811182821017156117e3576117e36117a4565b604052919050565b600082601f8301126117fc57600080fd5b8135602067ffffffffffffffff821115611818576118186117a4565b8160051b6118278282016117ba565b928352848101820192828101908785111561184157600080fd5b83870192505b8483101561186057823582529183019190830190611847565b979650505050505050565b600082601f83011261187c57600080fd5b813567ffffffffffffffff811115611896576118966117a4565b6118a9601f8201601f19166020016117ba565b8181528460208386010111156118be57600080fd5b816020850160208301376000918101602001919091529392505050565b600080600080600060a086880312156118f357600080fd5b6118fc86611658565b945061190a60208701611658565b9350604086013567ffffffffffffffff8082111561192757600080fd5b61193389838a016117eb565b9450606088013591508082111561194957600080fd5b61195589838a016117eb565b9350608088013591508082111561196b57600080fd5b506119788882890161186b565b9150509295509295909350565b6000806040838503121561199857600080fd5b6119a183611658565b915061178060208401611658565b600080600080600060a086880312156119c757600080fd5b6119d086611658565b94506119de60208701611658565b93506040860135925060608601359150608086013567ffffffffffffffff811115611a0857600080fd5b6119788882890161186b565b600181811c90821680611a2857607f821691505b602082108103611a4857634e487b7160e01b600052602260045260246000fd5b50919050565b6001600160a01b03948516815292909316602083015262ffffff9081166040830152909116606082015260a06080820181905260009082015260c00190565b634e487b7160e01b600052601160045260246000fd5b62ffffff818116838216019080821115611abf57611abf611a8d565b5092915050565b62ffffff828116828216039080821115611abf57611abf611a8d565b808201808211156106a4576106a4611a8d565b818103818111156106a4576106a4611a8d565b80820281158282048414176106a4576106a4611a8d56fea2646970667358221220acb9e66923564d8ef12c7cd41511aaa4e896fa41466ed2d00fb56db2b495a3fb64736f6c63430008120033",
  "linkReferences": {},
  "deployedLinkReferences": {}
}