{
  "_format": "hh-sol-artifact-1",
  "contractName": "StakingERC1155Id1",
  "sourceName": "contracts/StakingERC1155Id1.sol",
  "abi": [
    {
      "inputs": [
        {
          "internalType": "address",
          "name": "_erc1155Contract",
          "type": "address"
        },
        {
          "internalType": "address",
          "name": "_erc20Contract",
          "type": "address"
        }
      ],
      "stateMutability": "nonpayable",
      "type": "constructor"
    },
    {
      "anonymous": false,
      "inputs": [
        {
          "indexed": true,
          "internalType": "address",
          "name": "staker",
          "type": "address"
        },
        {
          "indexed": false,
          "internalType": "uint256",
          "name": "amountClaimed",
          "type": "uint256"
        }
      ],
      "name": "Claimed",
      "type": "event"
    },
    {
      "anonymous": false,
      "inputs": [
        {
          "indexed": true,
          "internalType": "address",
          "name": "previousOwner",
          "type": "address"
        },
        {
          "indexed": true,
          "internalType": "address",
          "name": "newOwner",
          "type": "address"
        }
      ],
      "name": "OwnershipTransferred",
      "type": "event"
    },
    {
      "anonymous": false,
      "inputs": [
        {
          "indexed": false,
          "internalType": "uint256",
          "name": "newRate",
          "type": "uint256"
        }
      ],
      "name": "RewardsRateUpdated",
      "type": "event"
    },
    {
      "anonymous": false,
      "inputs": [
        {
          "indexed": true,
          "internalType": "address",
          "name": "staker",
          "type": "address"
        },
        {
          "indexed": false,
          "internalType": "uint24",
          "name": "_tokenId",
          "type": "uint24"
        },
        {
          "indexed": false,
          "internalType": "uint24",
          "name": "amountStaked",
          "type": "uint24"
        }
      ],
      "name": "Staked",
      "type": "event"
    },
    {
      "anonymous": false,
      "inputs": [
        {
          "indexed": true,
          "internalType": "address",
          "name": "staker",
          "type": "address"
        },
        {
          "indexed": false,
          "internalType": "uint24",
          "name": "_tokenId",
          "type": "uint24"
        },
        {
          "indexed": false,
          "internalType": "uint24",
          "name": "amountUnstaked",
          "type": "uint24"
        }
      ],
      "name": "Unstaked",
      "type": "event"
    },
    {
      "stateMutability": "payable",
      "type": "fallback"
    },
    {
      "inputs": [],
      "name": "claimRewards",
      "outputs": [],
      "stateMutability": "nonpayable",
      "type": "function"
    },
    {
      "inputs": [],
      "name": "erc1155Contract",
      "outputs": [
        {
          "internalType": "contract Tokenize",
          "name": "",
          "type": "address"
        }
      ],
      "stateMutability": "view",
      "type": "function"
    },
    {
      "inputs": [],
      "name": "erc20Contract",
      "outputs": [
        {
          "internalType": "contract DiscountToken",
          "name": "",
          "type": "address"
        }
      ],
      "stateMutability": "view",
      "type": "function"
    },
    {
      "inputs": [],
      "name": "getPendingRewards",
      "outputs": [
        {
          "internalType": "uint256",
          "name": "",
          "type": "uint256"
        }
      ],
      "stateMutability": "view",
      "type": "function"
    },
    {
      "inputs": [
        {
          "internalType": "address",
          "name": "user",
          "type": "address"
        }
      ],
      "name": "getStakedAmount",
      "outputs": [
        {
          "internalType": "uint24",
          "name": "",
          "type": "uint24"
        }
      ],
      "stateMutability": "view",
      "type": "function"
    },
    {
      "inputs": [
        {
          "internalType": "address",
          "name": "",
          "type": "address"
        },
        {
          "internalType": "address",
          "name": "",
          "type": "address"
        },
        {
          "internalType": "uint256[]",
          "name": "",
          "type": "uint256[]"
        },
        {
          "internalType": "uint256[]",
          "name": "",
          "type": "uint256[]"
        },
        {
          "internalType": "bytes",
          "name": "",
          "type": "bytes"
        }
      ],
      "name": "onERC1155BatchReceived",
      "outputs": [
        {
          "internalType": "bytes4",
          "name": "",
          "type": "bytes4"
        }
      ],
      "stateMutability": "nonpayable",
      "type": "function"
    },
    {
      "inputs": [
        {
          "internalType": "address",
          "name": "",
          "type": "address"
        },
        {
          "internalType": "address",
          "name": "",
          "type": "address"
        },
        {
          "internalType": "uint256",
          "name": "",
          "type": "uint256"
        },
        {
          "internalType": "uint256",
          "name": "",
          "type": "uint256"
        },
        {
          "internalType": "bytes",
          "name": "",
          "type": "bytes"
        }
      ],
      "name": "onERC1155Received",
      "outputs": [
        {
          "internalType": "bytes4",
          "name": "",
          "type": "bytes4"
        }
      ],
      "stateMutability": "nonpayable",
      "type": "function"
    },
    {
      "inputs": [],
      "name": "owner",
      "outputs": [
        {
          "internalType": "address",
          "name": "",
          "type": "address"
        }
      ],
      "stateMutability": "view",
      "type": "function"
    },
    {
      "inputs": [],
      "name": "renounceOwnership",
      "outputs": [],
      "stateMutability": "nonpayable",
      "type": "function"
    },
    {
      "inputs": [],
      "name": "rewardsRatePerSecond",
      "outputs": [
        {
          "internalType": "uint256",
          "name": "",
          "type": "uint256"
        }
      ],
      "stateMutability": "view",
      "type": "function"
    },
    {
      "inputs": [
        {
          "internalType": "uint24",
          "name": "_amount",
          "type": "uint24"
        }
      ],
      "name": "stakeERC1155ID1",
      "outputs": [],
      "stateMutability": "nonpayable",
      "type": "function"
    },
    {
      "inputs": [
        {
          "internalType": "address",
          "name": "",
          "type": "address"
        }
      ],
      "name": "stakedTokens",
      "outputs": [
        {
          "internalType": "uint24",
          "name": "stakedAmount",
          "type": "uint24"
        },
        {
          "internalType": "uint256",
          "name": "stakingStartTime",
          "type": "uint256"
        }
      ],
      "stateMutability": "view",
      "type": "function"
    },
    {
      "inputs": [
        {
          "internalType": "bytes4",
          "name": "interfaceId",
          "type": "bytes4"
        }
      ],
      "name": "supportsInterface",
      "outputs": [
        {
          "internalType": "bool",
          "name": "",
          "type": "bool"
        }
      ],
      "stateMutability": "view",
      "type": "function"
    },
    {
      "inputs": [
        {
          "internalType": "address",
          "name": "newOwner",
          "type": "address"
        }
      ],
      "name": "transferOwnership",
      "outputs": [],
      "stateMutability": "nonpayable",
      "type": "function"
    },
    {
      "inputs": [
        {
          "internalType": "uint24",
          "name": "_unstakeAmount",
          "type": "uint24"
        }
      ],
      "name": "unstake",
      "outputs": [],
      "stateMutability": "nonpayable",
      "type": "function"
    },
    {
      "inputs": [
        {
          "internalType": "uint256",
          "name": "_newRate",
          "type": "uint256"
        }
      ],
      "name": "updateRewardsRatePerSeconds",
      "outputs": [],
      "stateMutability": "nonpayable",
      "type": "function"
    },
    {
      "stateMutability": "payable",
      "type": "receive"
    }
  ],
  "bytecode": "0x608060405234801561001057600080fd5b506040516110ea3803806110ea83398101604081905261002f916100e0565b61003833610074565b60018055600280546001600160a01b039384166001600160a01b031991821617909155600380549290931691161790556203ecb1600555610113565b600080546001600160a01b038381166001600160a01b0319831681178455604051919092169283917f8be0079c531659141344cd1fd0a4f28419497f9722a3daafe3b4186f6b6457e09190a35050565b80516001600160a01b03811681146100db57600080fd5b919050565b600080604083850312156100f357600080fd5b6100fc836100c4565b915061010a602084016100c4565b90509250929050565b610fc8806101226000396000f3fe6080604052600436106100f75760003560e01c80637e20c8271161008a578063bc197c8111610059578063bc197c8114610336578063d9621f9e1461037b578063f23a6e6114610390578063f2fde38b146103bc5761011d565b80637e20c8271461027d5780638da5cb5b146102a1578063a5b39cfb146102bf578063a8f6c913146103165761011d565b80634da6a556116100c65780634da6a556146101c1578063715018a61461021057806374180213146102255780637a564970146102455761011d565b806301ffc9a7146101355780630257e0831461016a578063372500ab1461018c5780633725a2c4146101a15761011d565b3661011d5760405162461bcd60e51b815260040161011490610ba5565b60405180910390fd5b60405162461bcd60e51b815260040161011490610ba5565b34801561014157600080fd5b50610155610150366004610be8565b6103dc565b60405190151581526020015b60405180910390f35b34801561017657600080fd5b5061018a610185366004610c19565b610413565b005b34801561019857600080fd5b5061018a610456565b3480156101ad57600080fd5b5061018a6101bc366004610c32565b610472565b3480156101cd57600080fd5b506101fc6101dc366004610c73565b6001600160a01b031660009081526004602052604090205462ffffff1690565b60405162ffffff9091168152602001610161565b34801561021c57600080fd5b5061018a610665565b34801561023157600080fd5b5061018a610240366004610c32565b610677565b34801561025157600080fd5b50600254610265906001600160a01b031681565b6040516001600160a01b039091168152602001610161565b34801561028957600080fd5b5061029360055481565b604051908152602001610161565b3480156102ad57600080fd5b506000546001600160a01b0316610265565b3480156102cb57600080fd5b506102fb6102da366004610c73565b6004602052600090815260409020805460019091015462ffffff9091169082565b6040805162ffffff9093168352602083019190915201610161565b34801561032257600080fd5b50600354610265906001600160a01b031681565b34801561034257600080fd5b50610362610351366004610dc5565b63bc197c8160e01b95945050505050565b6040516001600160e01b03199091168152602001610161565b34801561038757600080fd5b506102936107dc565b34801561039c57600080fd5b506103626103ab366004610e6f565b63f23a6e6160e01b95945050505050565b3480156103c857600080fd5b5061018a6103d7366004610c73565b61087d565b60006001600160e01b03198216630271189760e51b148061040d57506301ffc9a760e01b6001600160e01b03198316145b92915050565b61041b6108f3565b60058190556040518181527fcde2f8a18458451af5ceec3fd30720f408c8553acca34fa995e9894d26ceb5339060200160405180910390a150565b61045e61094d565b610467336109a6565b61047060018055565b565b61047a61094d565b600162ffffff82166104df5760405162461bcd60e51b815260206004820152602860248201527f5374616b696e67436f6e74726163743a20496e76616c696420756e7374616b656044820152671908185b5bdd5b9d60c21b6064820152608401610114565b336000908152600460205260409020805462ffffff8085169116101561055b5760405162461bcd60e51b815260206004820152602b60248201527f5374616b696e67436f6e74726163743a20496e73756666696369656e7420737460448201526a185ad95908185b5bdd5b9d60aa1b6064820152608401610114565b610564336109a6565b600254604051637921219560e11b81526001600160a01b039091169063f242432a9061059a903090339087908990600401610ed4565b600060405180830381600087803b1580156105b457600080fd5b505af11580156105c8573d6000803e3d6000fd5b505082548592508391506000906105e590849062ffffff16610f29565b92506101000a81548162ffffff021916908362ffffff160217905550336001600160a01b03167fc03c3003451163c0235d8995c26d5d8043ed24c92aec0b872678c043629ab2f7838560405161064f92919060ff92909216825262ffffff16602082015260400190565b60405180910390a2505061066260018055565b50565b61066d6108f3565b6104706000610b55565b61067f61094d565b60008162ffffff16116106d45760405162461bcd60e51b815260206004820152601f60248201527f5374616b696e67436f6e74726163743a20496e76616c696420616d6f756e74006044820152606401610114565b33600090815260046020526040902080546001919062ffffff16156106fc576106fc336109a6565b600254604051637921219560e11b81526001600160a01b039091169063f242432a90610732903390309087908990600401610ed4565b600060405180830381600087803b15801561074c57600080fd5b505af1158015610760573d6000803e3d6000fd5b5050825485925083915060009061077d90849062ffffff16610f4c565b82546101009290920a62ffffff8181021990931691831602179091554260018401556040805160ff8616815291861660208301523392507f38d4b1b350dc4e622f247fab3776d2f6032ee0317bb09c0008a539301517f3a2910161064f565b336000908152600460205260408120805462ffffff1661083e5760405162461bcd60e51b815260206004820181905260248201527f5374616b696e67436f6e74726163743a204e6f20746f6b656e207374616b65646044820152606401610114565b60008160010154426108509190610f68565b600554835491925060009161086b90849062ffffff16610f7b565b6108759190610f7b565b949350505050565b6108856108f3565b6001600160a01b0381166108ea5760405162461bcd60e51b815260206004820152602660248201527f4f776e61626c653a206e6577206f776e657220697320746865207a65726f206160448201526564647265737360d01b6064820152608401610114565b61066281610b55565b6000546001600160a01b031633146104705760405162461bcd60e51b815260206004820181905260248201527f4f776e61626c653a2063616c6c6572206973206e6f7420746865206f776e65726044820152606401610114565b60026001540361099f5760405162461bcd60e51b815260206004820152601f60248201527f5265656e7472616e637947756172643a207265656e7472616e742063616c6c006044820152606401610114565b6002600155565b6001600160a01b0381166000908152600460205260409020805462ffffff16610a115760405162461bcd60e51b815260206004820181905260248201527f5374616b696e67436f6e74726163743a204e6f20746f6b656e207374616b65646044820152606401610114565b6000816001015442610a239190610f68565b6005548354919250600091610a3e90849062ffffff16610f7b565b610a489190610f7b565b905060008111610aa55760405162461bcd60e51b815260206004820152602260248201527f5374616b696e67436f6e74726163743a204e6f2072657761726473206561726e604482015261195960f21b6064820152608401610114565b6003546040516340c10f1960e01b81526001600160a01b03868116600483015260248201849052909116906340c10f1990604401600060405180830381600087803b158015610af357600080fd5b505af1158015610b07573d6000803e3d6000fd5b505042600186015550506040518181526001600160a01b038516907fd8138f8a3f377c5259ca548e70e4c2de94f129f5a11036a15b69513cba2b426a9060200160405180910390a250505050565b600080546001600160a01b038381166001600160a01b0319831681178455604051919092169283917f8be0079c531659141344cd1fd0a4f28419497f9722a3daafe3b4186f6b6457e09190a35050565b60208082526023908201527f5468697320636f6e747261637420646f6573206e6f74206163636570742065746040820152623432b960e91b606082015260800190565b600060208284031215610bfa57600080fd5b81356001600160e01b031981168114610c1257600080fd5b9392505050565b600060208284031215610c2b57600080fd5b5035919050565b600060208284031215610c4457600080fd5b813562ffffff81168114610c1257600080fd5b80356001600160a01b0381168114610c6e57600080fd5b919050565b600060208284031215610c8557600080fd5b610c1282610c57565b634e487b7160e01b600052604160045260246000fd5b604051601f8201601f1916810167ffffffffffffffff81118282101715610ccd57610ccd610c8e565b604052919050565b600082601f830112610ce657600080fd5b8135602067ffffffffffffffff821115610d0257610d02610c8e565b8160051b610d11828201610ca4565b9283528481018201928281019087851115610d2b57600080fd5b83870192505b84831015610d4a57823582529183019190830190610d31565b979650505050505050565b600082601f830112610d6657600080fd5b813567ffffffffffffffff811115610d8057610d80610c8e565b610d93601f8201601f1916602001610ca4565b818152846020838601011115610da857600080fd5b816020850160208301376000918101602001919091529392505050565b600080600080600060a08688031215610ddd57600080fd5b610de686610c57565b9450610df460208701610c57565b9350604086013567ffffffffffffffff80821115610e1157600080fd5b610e1d89838a01610cd5565b94506060880135915080821115610e3357600080fd5b610e3f89838a01610cd5565b93506080880135915080821115610e5557600080fd5b50610e6288828901610d55565b9150509295509295909350565b600080600080600060a08688031215610e8757600080fd5b610e9086610c57565b9450610e9e60208701610c57565b93506040860135925060608601359150608086013567ffffffffffffffff811115610ec857600080fd5b610e6288828901610d55565b6001600160a01b03948516815292909316602083015260ff16604082015262ffffff909116606082015260a06080820181905260009082015260c00190565b634e487b7160e01b600052601160045260246000fd5b62ffffff828116828216039080821115610f4557610f45610f13565b5092915050565b62ffffff818116838216019080821115610f4557610f45610f13565b8181038181111561040d5761040d610f13565b808202811582820484141761040d5761040d610f1356fea2646970667358221220db4a076d4ac54ca3b997b5e3c075b9dd49ee0351869f80b56182267cbdb8049064736f6c63430008120033",
  "linkReferences": {},
  "deployedLinkReferences": {}
}