{
  "_format": "hh-sol-artifact-1",
  "contractName": "StakingERC1155Id1",
  "sourceName": "contracts/StakingERC1155Id1.sol",
  "abi": [
    {
      "inputs": [
        {
          "internalType": "address",
          "name": "_erc1155Contract",
          "type": "address"
        },
        {
          "internalType": "address",
          "name": "_erc20Contract",
          "type": "address"
        }
      ],
      "stateMutability": "nonpayable",
      "type": "constructor"
    },
    {
      "anonymous": false,
      "inputs": [
        {
          "indexed": true,
          "internalType": "address",
          "name": "staker",
          "type": "address"
        },
        {
          "indexed": false,
          "internalType": "uint256",
          "name": "amountClaimed",
          "type": "uint256"
        }
      ],
      "name": "Claimed",
      "type": "event"
    },
    {
      "anonymous": false,
      "inputs": [
        {
          "indexed": true,
          "internalType": "address",
          "name": "previousOwner",
          "type": "address"
        },
        {
          "indexed": true,
          "internalType": "address",
          "name": "newOwner",
          "type": "address"
        }
      ],
      "name": "OwnershipTransferred",
      "type": "event"
    },
    {
      "anonymous": false,
      "inputs": [
        {
          "indexed": false,
          "internalType": "uint256",
          "name": "newRate",
          "type": "uint256"
        }
      ],
      "name": "RewardsRateUpdated",
      "type": "event"
    },
    {
      "anonymous": false,
      "inputs": [
        {
          "indexed": true,
          "internalType": "address",
          "name": "staker",
          "type": "address"
        },
        {
          "indexed": false,
          "internalType": "uint24",
          "name": "_tokenId",
          "type": "uint24"
        },
        {
          "indexed": false,
          "internalType": "uint24",
          "name": "amountStaked",
          "type": "uint24"
        }
      ],
      "name": "Staked",
      "type": "event"
    },
    {
      "anonymous": false,
      "inputs": [
        {
          "indexed": true,
          "internalType": "address",
          "name": "staker",
          "type": "address"
        },
        {
          "indexed": false,
          "internalType": "uint24",
          "name": "_tokenId",
          "type": "uint24"
        },
        {
          "indexed": false,
          "internalType": "uint24",
          "name": "amountUnstaked",
          "type": "uint24"
        }
      ],
      "name": "Unstaked",
      "type": "event"
    },
    {
      "stateMutability": "payable",
      "type": "fallback"
    },
    {
      "inputs": [],
      "name": "claimRewards",
      "outputs": [],
      "stateMutability": "nonpayable",
      "type": "function"
    },
    {
      "inputs": [],
      "name": "erc1155Contract",
      "outputs": [
        {
          "internalType": "contract Tokenize",
          "name": "",
          "type": "address"
        }
      ],
      "stateMutability": "view",
      "type": "function"
    },
    {
      "inputs": [],
      "name": "erc20Contract",
      "outputs": [
        {
          "internalType": "contract DiscountToken",
          "name": "",
          "type": "address"
        }
      ],
      "stateMutability": "view",
      "type": "function"
    },
    {
      "inputs": [],
      "name": "getPendingRewards",
      "outputs": [
        {
          "internalType": "uint256",
          "name": "",
          "type": "uint256"
        }
      ],
      "stateMutability": "view",
      "type": "function"
    },
    {
      "inputs": [
        {
          "internalType": "address",
          "name": "user",
          "type": "address"
        }
      ],
      "name": "getStakedAmount",
      "outputs": [
        {
          "internalType": "uint24",
          "name": "",
          "type": "uint24"
        }
      ],
      "stateMutability": "view",
      "type": "function"
    },
    {
      "inputs": [
        {
          "internalType": "address",
          "name": "",
          "type": "address"
        },
        {
          "internalType": "address",
          "name": "",
          "type": "address"
        },
        {
          "internalType": "uint256[]",
          "name": "",
          "type": "uint256[]"
        },
        {
          "internalType": "uint256[]",
          "name": "",
          "type": "uint256[]"
        },
        {
          "internalType": "bytes",
          "name": "",
          "type": "bytes"
        }
      ],
      "name": "onERC1155BatchReceived",
      "outputs": [
        {
          "internalType": "bytes4",
          "name": "",
          "type": "bytes4"
        }
      ],
      "stateMutability": "nonpayable",
      "type": "function"
    },
    {
      "inputs": [
        {
          "internalType": "address",
          "name": "",
          "type": "address"
        },
        {
          "internalType": "address",
          "name": "",
          "type": "address"
        },
        {
          "internalType": "uint256",
          "name": "",
          "type": "uint256"
        },
        {
          "internalType": "uint256",
          "name": "",
          "type": "uint256"
        },
        {
          "internalType": "bytes",
          "name": "",
          "type": "bytes"
        }
      ],
      "name": "onERC1155Received",
      "outputs": [
        {
          "internalType": "bytes4",
          "name": "",
          "type": "bytes4"
        }
      ],
      "stateMutability": "nonpayable",
      "type": "function"
    },
    {
      "inputs": [],
      "name": "owner",
      "outputs": [
        {
          "internalType": "address",
          "name": "",
          "type": "address"
        }
      ],
      "stateMutability": "view",
      "type": "function"
    },
    {
      "inputs": [],
      "name": "renounceOwnership",
      "outputs": [],
      "stateMutability": "nonpayable",
      "type": "function"
    },
    {
      "inputs": [],
      "name": "rewardsRatePerSecond",
      "outputs": [
        {
          "internalType": "uint256",
          "name": "",
          "type": "uint256"
        }
      ],
      "stateMutability": "view",
      "type": "function"
    },
    {
      "inputs": [
        {
          "internalType": "uint24",
          "name": "_amount",
          "type": "uint24"
        }
      ],
      "name": "stakeERC1155ID1",
      "outputs": [],
      "stateMutability": "nonpayable",
      "type": "function"
    },
    {
      "inputs": [
        {
          "internalType": "address",
          "name": "",
          "type": "address"
        }
      ],
      "name": "stakedTokens",
      "outputs": [
        {
          "internalType": "uint24",
          "name": "stakedAmount",
          "type": "uint24"
        },
        {
          "internalType": "uint256",
          "name": "stakingStartTime",
          "type": "uint256"
        }
      ],
      "stateMutability": "view",
      "type": "function"
    },
    {
      "inputs": [
        {
          "internalType": "bytes4",
          "name": "interfaceId",
          "type": "bytes4"
        }
      ],
      "name": "supportsInterface",
      "outputs": [
        {
          "internalType": "bool",
          "name": "",
          "type": "bool"
        }
      ],
      "stateMutability": "view",
      "type": "function"
    },
    {
      "inputs": [
        {
          "internalType": "address",
          "name": "newOwner",
          "type": "address"
        }
      ],
      "name": "transferOwnership",
      "outputs": [],
      "stateMutability": "nonpayable",
      "type": "function"
    },
    {
      "inputs": [
        {
          "internalType": "uint24",
          "name": "_unstakeAmount",
          "type": "uint24"
        }
      ],
      "name": "unstake",
      "outputs": [],
      "stateMutability": "nonpayable",
      "type": "function"
    },
    {
      "inputs": [
        {
          "internalType": "uint256",
          "name": "_newRate",
          "type": "uint256"
        }
      ],
      "name": "updateRewardsRatePerSeconds",
      "outputs": [],
      "stateMutability": "nonpayable",
      "type": "function"
    },
    {
      "stateMutability": "payable",
      "type": "receive"
    }
  ],
  "bytecode": "0x60806040523480156200001157600080fd5b50604051620029aa380380620029aa83398181016040528101906200003791906200029b565b620000576200004b6200016260201b60201c565b6200016a60201b60201c565b600180819055506200007a6730e9fd1e0b93631760c01b6200022e60201b60201c565b62000096678315000133d52fa560c01b6200022e60201b60201c565b81600260006101000a81548173ffffffffffffffffffffffffffffffffffffffff021916908373ffffffffffffffffffffffffffffffffffffffff160217905550620000f36719b2164695fcede660c01b6200022e60201b60201c565b80600360006101000a81548173ffffffffffffffffffffffffffffffffffffffff021916908373ffffffffffffffffffffffffffffffffffffffff1602179055506200015067f7a0ec1d526e27da60c01b6200022e60201b60201c565b6203ecb16005819055505050620002e2565b600033905090565b60008060009054906101000a900473ffffffffffffffffffffffffffffffffffffffff169050816000806101000a81548173ffffffffffffffffffffffffffffffffffffffff021916908373ffffffffffffffffffffffffffffffffffffffff1602179055508173ffffffffffffffffffffffffffffffffffffffff168173ffffffffffffffffffffffffffffffffffffffff167f8be0079c531659141344cd1fd0a4f28419497f9722a3daafe3b4186f6b6457e060405160405180910390a35050565b50565b600080fd5b600073ffffffffffffffffffffffffffffffffffffffff82169050919050565b6000620002638262000236565b9050919050565b620002758162000256565b81146200028157600080fd5b50565b60008151905062000295816200026a565b92915050565b60008060408385031215620002b557620002b462000231565b5b6000620002c58582860162000284565b9250506020620002d88582860162000284565b9150509250929050565b6126b880620002f26000396000f3fe6080604052600436106100f75760003560e01c80637e20c8271161008a578063bc197c8111610059578063bc197c81146103cf578063d9621f9e1461040c578063f23a6e6114610437578063f2fde38b146104745761014b565b80637e20c827146103105780638da5cb5b1461033b578063a5b39cfb14610366578063a8f6c913146103a45761014b565b80634da6a556116100c65780634da6a55614610268578063715018a6146102a557806374180213146102bc5780637a564970146102e55761014b565b806301ffc9a7146101c25780630257e083146101ff578063372500ab146102285780633725a2c41461023f5761014b565b3661014b5761011067c747da4f65d1d30660c01b61049d565b6040517f08c379a0000000000000000000000000000000000000000000000000000000008152600401610142906118b6565b60405180910390fd5b61015f67d53666b4a115c6df60c01b61049d565b6101736724dccdc0d19f575d60c01b61049d565b61018767bb7528dd427e880b60c01b61049d565b6040517f08c379a00000000000000000000000000000000000000000000000000000000081526004016101b9906118b6565b60405180910390fd5b3480156101ce57600080fd5b506101e960048036038101906101e49190611942565b6104a0565b6040516101f6919061198a565b60405180910390f35b34801561020b57600080fd5b50610226600480360381019061022191906119db565b61051a565b005b34801561023457600080fd5b5061023d6105db565b005b34801561024b57600080fd5b5061026660048036038101906102619190611a43565b61065a565b005b34801561027457600080fd5b5061028f600480360381019061028a9190611ace565b610a42565b60405161029c9190611b0a565b60405180910390f35b3480156102b157600080fd5b506102ba610ad9565b005b3480156102c857600080fd5b506102e360048036038101906102de9190611a43565b610aed565b005b3480156102f157600080fd5b506102fa610eb8565b6040516103079190611b84565b60405180910390f35b34801561031c57600080fd5b50610325610ede565b6040516103329190611bae565b60405180910390f35b34801561034757600080fd5b50610350610ee4565b60405161035d9190611bd8565b60405180910390f35b34801561037257600080fd5b5061038d60048036038101906103889190611ace565b610f0d565b60405161039b929190611bf3565b60405180910390f35b3480156103b057600080fd5b506103b9610f40565b6040516103c69190611c3d565b60405180910390f35b3480156103db57600080fd5b506103f660048036038101906103f19190611e66565b610f66565b6040516104039190611f44565b60405180910390f35b34801561041857600080fd5b50610421610fb7565b60405161042e9190611bae565b60405180910390f35b34801561044357600080fd5b5061045e60048036038101906104599190611f5f565b6111ad565b60405161046b9190611f44565b60405180910390f35b34801561048057600080fd5b5061049b60048036038101906104969190611ace565b6111fe565b005b50565b60007f4e2312e0000000000000000000000000000000000000000000000000000000007bffffffffffffffffffffffffffffffffffffffffffffffffffffffff1916827bffffffffffffffffffffffffffffffffffffffffffffffffffffffff19161480610513575061051282611281565b5b9050919050565b61052e67eeda15971a10c90f60c01b61049d565b6105366112eb565b61054a67a2881dfe2f8f3d4960c01b61049d565b61055e674c27c8b574e83cd160c01b61049d565b610572674df158de1ff4128d60c01b61049d565b8060058190555061058d673ebd407c93e055d960c01b61049d565b6105a167bb42ebe8f57cebd460c01b61049d565b7fcde2f8a18458451af5ceec3fd30720f408c8553acca34fa995e9894d26ceb533816040516105d09190611bae565b60405180910390a150565b6105ef67e8d76798b62186a960c01b61049d565b6105f7611369565b61060b67674c36462974742c60c01b61049d565b61061f672c608a99c51c06d560c01b61049d565b61063367849ef5a843ace0fa60c01b61049d565b6106476731401eb57455868160c01b61049d565b610650336113b8565b61065861175e565b565b61066e67409b32199b46c16960c01b61049d565b610676611369565b61068a6742f3a2fdf058049060c01b61049d565b61069e674afce76e4382a1ec60c01b61049d565b6106b2676dabb4d81622dc0760c01b61049d565b6106c6675247c8ba42fe4ea960c01b61049d565b6000600190506106e067aefb514a9cd1ce5a60c01b61049d565b6106f467a1068d56bc465fb660c01b61049d565b6107086741f025e4d549a25260c01b61049d565b60008262ffffff1611610750576040517f08c379a000000000000000000000000000000000000000000000000000000000815260040161074790612068565b60405180910390fd5b610764672a918c3b73bb6cc060c01b61049d565b6107786778148bc658f4c8a660c01b61049d565b61078c6758ec42a90ced39c560c01b61049d565b6000600460003373ffffffffffffffffffffffffffffffffffffffff1673ffffffffffffffffffffffffffffffffffffffff16815260200190815260200160002090506107e367aa1c99e47d96616a60c01b61049d565b6107f76750774ddc8565994d60c01b61049d565b61080b674fd96e868a9bdc2560c01b61049d565b8262ffffff168160000160009054906101000a900462ffffff1662ffffff16101561086b576040517f08c379a0000000000000000000000000000000000000000000000000000000008152600401610862906120fa565b60405180910390fd5b61087f6781f67034c136eb7260c01b61049d565b610893675e98fede9c777b9160c01b61049d565b6108a7671ab4695902c8b0e460c01b61049d565b6108b0336113b8565b6108c4675494742d8c6ec52f60c01b61049d565b6108d8677f0f00405e20d5e460c01b61049d565b600260009054906101000a900473ffffffffffffffffffffffffffffffffffffffff1673ffffffffffffffffffffffffffffffffffffffff1663f242432a303385876040518563ffffffff1660e01b815260040161093994939291906121c0565b600060405180830381600087803b15801561095357600080fd5b505af1158015610967573d6000803e3d6000fd5b5050505061097f67a705c0e8b396866760c01b61049d565b828160000160008282829054906101000a900462ffffff166109a19190612247565b92506101000a81548162ffffff021916908362ffffff1602179055506109d16768e36575e78f0e3b60c01b61049d565b6109e56758746dbab310dd5a60c01b61049d565b3373ffffffffffffffffffffffffffffffffffffffff167fc03c3003451163c0235d8995c26d5d8043ed24c92aec0b872678c043629ab2f78385604051610a2d9291906122af565b60405180910390a25050610a3f61175e565b50565b6000610a58673873dd3000d0bd8a60c01b61049d565b610a6c67dd83576265fdaa8d60c01b61049d565b610a80677d833ca8ae0809a860c01b61049d565b600460008373ffffffffffffffffffffffffffffffffffffffff1673ffffffffffffffffffffffffffffffffffffffff16815260200190815260200160002060000160009054906101000a900462ffffff169050919050565b610ae16112eb565b610aeb6000611767565b565b610b0167b740238fc715877460c01b61049d565b610b09611369565b610b1d67e85cd9feebc1756060c01b61049d565b610b3167dc425ab405c6014460c01b61049d565b610b45675bae59459eb2364860c01b61049d565b610b59675cde4034e780aef760c01b61049d565b610b6d675b051fd2b1cfb33660c01b61049d565b60008162ffffff1611610bb5576040517f08c379a0000000000000000000000000000000000000000000000000000000008152600401610bac90612324565b60405180910390fd5b610bc967caf94a76847b9df960c01b61049d565b610bdd67d1e168b173024f0d60c01b61049d565b610bf066bd0327b59a73f860c01b61049d565b600060019050610c0a673b01b8c40c4af22760c01b61049d565b610c1e6794dbd4b996e4b84760c01b61049d565b6000600460003373ffffffffffffffffffffffffffffffffffffffff1673ffffffffffffffffffffffffffffffffffffffff1681526020019081526020016000209050610c7567e3bac568e824f07360c01b61049d565b610c8967eef8627c59160a0e60c01b61049d565b60008160000160009054906101000a900462ffffff1662ffffff161115610cf457610cbe67e33cb0dd53eb7c4260c01b61049d565b610cd267b3c8f794a079bb3b60c01b61049d565b610ce667a6648b7b686ef62260c01b61049d565b610cef336113b8565b610d09565b610d086701731f45a7d89d5960c01b61049d565b5b610d1d67d6ad8bbbf618e61260c01b61049d565b610d31675a5202a36484df0f60c01b61049d565b600260009054906101000a900473ffffffffffffffffffffffffffffffffffffffff1673ffffffffffffffffffffffffffffffffffffffff1663f242432a333085876040518563ffffffff1660e01b8152600401610d9294939291906121c0565b600060405180830381600087803b158015610dac57600080fd5b505af1158015610dc0573d6000803e3d6000fd5b50505050610dd867cb4bbd2cde1f21bc60c01b61049d565b828160000160008282829054906101000a900462ffffff16610dfa9190612344565b92506101000a81548162ffffff021916908362ffffff160217905550610e2a677014e673a53a551c60c01b61049d565b428160010181905550610e476715055dc10f1b35c860c01b61049d565b610e5b672604246b115f970860c01b61049d565b3373ffffffffffffffffffffffffffffffffffffffff167f38d4b1b350dc4e622f247fab3776d2f6032ee0317bb09c0008a539301517f3a28385604051610ea39291906122af565b60405180910390a25050610eb561175e565b50565b600260009054906101000a900473ffffffffffffffffffffffffffffffffffffffff1681565b60055481565b60008060009054906101000a900473ffffffffffffffffffffffffffffffffffffffff16905090565b60046020528060005260406000206000915090508060000160009054906101000a900462ffffff16908060010154905082565b600360009054906101000a900473ffffffffffffffffffffffffffffffffffffffff1681565b6000610f7c67b123f2cc2b1b3b7660c01b61049d565b610f9067b128cfdee425bc4d60c01b61049d565b610fa4679eb9eabda5a35bb360c01b61049d565b63bc197c8160e01b905095945050505050565b6000610fcd67d435c766313893c860c01b61049d565b610fe167c04df762fc7202dd60c01b61049d565b610ff5678dcef793b3578b5d60c01b61049d565b6000600460003373ffffffffffffffffffffffffffffffffffffffff1673ffffffffffffffffffffffffffffffffffffffff168152602001908152602001600020905061104c67f0c6b92a26f5a4c260c01b61049d565b61106067b2580f15812a17bd60c01b61049d565b61107467a5b8240c5674463660c01b61049d565b60008160000160009054906101000a900462ffffff1662ffffff16116110cf576040517f08c379a00000000000000000000000000000000000000000000000000000000081526004016110c6906123c7565b60405180910390fd5b6110e367147756f0b1ef91ef60c01b61049d565b6110f7678d68f132892e17a160c01b61049d565b61110b67dbc3b415e8a97b5d60c01b61049d565b600081600101544261111d91906123e7565b905061113367429c812b41b84e7160c01b61049d565b61114767656f08ddcb090a6f60c01b61049d565b6000600554828460000160009054906101000a900462ffffff1662ffffff16611170919061241b565b61117a919061241b565b905061119067a43e997e4fd1101c60c01b61049d565b6111a46728850183736e18bd60c01b61049d565b80935050505090565b60006111c36759f61d0f6443cc9a60c01b61049d565b6111d7678037fc97b758aecf60c01b61049d565b6111eb6744f9db849f82b79b60c01b61049d565b63f23a6e6160e01b905095945050505050565b6112066112eb565b600073ffffffffffffffffffffffffffffffffffffffff168173ffffffffffffffffffffffffffffffffffffffff1603611275576040517f08c379a000000000000000000000000000000000000000000000000000000000815260040161126c906124cf565b60405180910390fd5b61127e81611767565b50565b60007f01ffc9a7000000000000000000000000000000000000000000000000000000007bffffffffffffffffffffffffffffffffffffffffffffffffffffffff1916827bffffffffffffffffffffffffffffffffffffffffffffffffffffffff1916149050919050565b6112f361182b565b73ffffffffffffffffffffffffffffffffffffffff16611311610ee4565b73ffffffffffffffffffffffffffffffffffffffff1614611367576040517f08c379a000000000000000000000000000000000000000000000000000000000815260040161135e9061253b565b60405180910390fd5b565b6002600154036113ae576040517f08c379a00000000000000000000000000000000000000000000000000000000081526004016113a5906125a7565b60405180910390fd5b6002600181905550565b6113cc67a7e93d451ce30ecc60c01b61049d565b6113e06741190e06ba0de1b160c01b61049d565b6113f46777465c3cfad5815a60c01b61049d565b6000600460008373ffffffffffffffffffffffffffffffffffffffff1673ffffffffffffffffffffffffffffffffffffffff168152602001908152602001600020905061144b67cb13ef51f334f2a960c01b61049d565b61145f670ffd354fa4b719cc60c01b61049d565b6114736742cdd5e1239d4a1360c01b61049d565b60008160000160009054906101000a900462ffffff1662ffffff16116114ce576040517f08c379a00000000000000000000000000000000000000000000000000000000081526004016114c5906123c7565b60405180910390fd5b6114e267fa9dd756bbd9636160c01b61049d565b6114f6676d3eedca3734a9d260c01b61049d565b61150a67fe6f5c77925456a460c01b61049d565b600081600101544261151c91906123e7565b9050611532670cae839b12e6d65c60c01b61049d565b61154667c2bb750801f45d0460c01b61049d565b6000600554828460000160009054906101000a900462ffffff1662ffffff1661156f919061241b565b611579919061241b565b905061158f671cfe999c18a14c8860c01b61049d565b6115a36744fd7697e4a6b0cd60c01b61049d565b6115b76704da7c3a4c97a2a560c01b61049d565b600081116115fa576040517f08c379a00000000000000000000000000000000000000000000000000000000081526004016115f190612639565b60405180910390fd5b61160e67959fde24b9032cf360c01b61049d565b61162267ab13cde2313cb1a960c01b61049d565b61163667710dfa36d14dd0c560c01b61049d565b600360009054906101000a900473ffffffffffffffffffffffffffffffffffffffff1673ffffffffffffffffffffffffffffffffffffffff166340c10f1985836040518363ffffffff1660e01b8152600401611693929190612659565b600060405180830381600087803b1580156116ad57600080fd5b505af11580156116c1573d6000803e3d6000fd5b505050506116d9676014acb0b2e30dc860c01b61049d565b4283600101819055506116f6674d4dacb53cafb6ab60c01b61049d565b61170a672d39a6517766c80260c01b61049d565b8373ffffffffffffffffffffffffffffffffffffffff167fd8138f8a3f377c5259ca548e70e4c2de94f129f5a11036a15b69513cba2b426a826040516117509190611bae565b60405180910390a250505050565b60018081905550565b60008060009054906101000a900473ffffffffffffffffffffffffffffffffffffffff169050816000806101000a81548173ffffffffffffffffffffffffffffffffffffffff021916908373ffffffffffffffffffffffffffffffffffffffff1602179055508173ffffffffffffffffffffffffffffffffffffffff168173ffffffffffffffffffffffffffffffffffffffff167f8be0079c531659141344cd1fd0a4f28419497f9722a3daafe3b4186f6b6457e060405160405180910390a35050565b600033905090565b600082825260208201905092915050565b7f5468697320636f6e747261637420646f6573206e6f742061636365707420657460008201527f6865720000000000000000000000000000000000000000000000000000000000602082015250565b60006118a0602383611833565b91506118ab82611844565b604082019050919050565b600060208201905081810360008301526118cf81611893565b9050919050565b6000604051905090565b600080fd5b600080fd5b60007fffffffff0000000000000000000000000000000000000000000000000000000082169050919050565b61191f816118ea565b811461192a57600080fd5b50565b60008135905061193c81611916565b92915050565b600060208284031215611958576119576118e0565b5b60006119668482850161192d565b91505092915050565b60008115159050919050565b6119848161196f565b82525050565b600060208201905061199f600083018461197b565b92915050565b6000819050919050565b6119b8816119a5565b81146119c357600080fd5b50565b6000813590506119d5816119af565b92915050565b6000602082840312156119f1576119f06118e0565b5b60006119ff848285016119c6565b91505092915050565b600062ffffff82169050919050565b611a2081611a08565b8114611a2b57600080fd5b50565b600081359050611a3d81611a17565b92915050565b600060208284031215611a5957611a586118e0565b5b6000611a6784828501611a2e565b91505092915050565b600073ffffffffffffffffffffffffffffffffffffffff82169050919050565b6000611a9b82611a70565b9050919050565b611aab81611a90565b8114611ab657600080fd5b50565b600081359050611ac881611aa2565b92915050565b600060208284031215611ae457611ae36118e0565b5b6000611af284828501611ab9565b91505092915050565b611b0481611a08565b82525050565b6000602082019050611b1f6000830184611afb565b92915050565b6000819050919050565b6000611b4a611b45611b4084611a70565b611b25565b611a70565b9050919050565b6000611b5c82611b2f565b9050919050565b6000611b6e82611b51565b9050919050565b611b7e81611b63565b82525050565b6000602082019050611b996000830184611b75565b92915050565b611ba8816119a5565b82525050565b6000602082019050611bc36000830184611b9f565b92915050565b611bd281611a90565b82525050565b6000602082019050611bed6000830184611bc9565b92915050565b6000604082019050611c086000830185611afb565b611c156020830184611b9f565b9392505050565b6000611c2782611b51565b9050919050565b611c3781611c1c565b82525050565b6000602082019050611c526000830184611c2e565b92915050565b600080fd5b6000601f19601f8301169050919050565b7f4e487b7100000000000000000000000000000000000000000000000000000000600052604160045260246000fd5b611ca682611c5d565b810181811067ffffffffffffffff82111715611cc557611cc4611c6e565b5b80604052505050565b6000611cd86118d6565b9050611ce48282611c9d565b919050565b600067ffffffffffffffff821115611d0457611d03611c6e565b5b602082029050602081019050919050565b600080fd5b6000611d2d611d2884611ce9565b611cce565b90508083825260208201905060208402830185811115611d5057611d4f611d15565b5b835b81811015611d795780611d6588826119c6565b845260208401935050602081019050611d52565b5050509392505050565b600082601f830112611d9857611d97611c58565b5b8135611da8848260208601611d1a565b91505092915050565b600080fd5b600067ffffffffffffffff821115611dd157611dd0611c6e565b5b611dda82611c5d565b9050602081019050919050565b82818337600083830152505050565b6000611e09611e0484611db6565b611cce565b905082815260208101848484011115611e2557611e24611db1565b5b611e30848285611de7565b509392505050565b600082601f830112611e4d57611e4c611c58565b5b8135611e5d848260208601611df6565b91505092915050565b600080600080600060a08688031215611e8257611e816118e0565b5b6000611e9088828901611ab9565b9550506020611ea188828901611ab9565b945050604086013567ffffffffffffffff811115611ec257611ec16118e5565b5b611ece88828901611d83565b935050606086013567ffffffffffffffff811115611eef57611eee6118e5565b5b611efb88828901611d83565b925050608086013567ffffffffffffffff811115611f1c57611f1b6118e5565b5b611f2888828901611e38565b9150509295509295909350565b611f3e816118ea565b82525050565b6000602082019050611f596000830184611f35565b92915050565b600080600080600060a08688031215611f7b57611f7a6118e0565b5b6000611f8988828901611ab9565b9550506020611f9a88828901611ab9565b9450506040611fab888289016119c6565b9350506060611fbc888289016119c6565b925050608086013567ffffffffffffffff811115611fdd57611fdc6118e5565b5b611fe988828901611e38565b9150509295509295909350565b7f5374616b696e67436f6e74726163743a20496e76616c696420756e7374616b6560008201527f6420616d6f756e74000000000000000000000000000000000000000000000000602082015250565b6000612052602883611833565b915061205d82611ff6565b604082019050919050565b6000602082019050818103600083015261208181612045565b9050919050565b7f5374616b696e67436f6e74726163743a20496e73756666696369656e7420737460008201527f616b656420616d6f756e74000000000000000000000000000000000000000000602082015250565b60006120e4602b83611833565b91506120ef82612088565b604082019050919050565b60006020820190508181036000830152612113816120d7565b9050919050565b600060ff82169050919050565b600061214261213d6121388461211a565b611b25565b6119a5565b9050919050565b61215281612127565b82525050565b600061217361216e61216984611a08565b611b25565b6119a5565b9050919050565b61218381612158565b82525050565b600082825260208201905092915050565b50565b60006121aa600083612189565b91506121b58261219a565b600082019050919050565b600060a0820190506121d56000830187611bc9565b6121e26020830186611bc9565b6121ef6040830185612149565b6121fc606083018461217a565b818103608083015261220d8161219d565b905095945050505050565b7f4e487b7100000000000000000000000000000000000000000000000000000000600052601160045260246000fd5b600061225282611a08565b915061225d83611a08565b9250828203905062ffffff81111561227857612277612218565b5b92915050565b600061229961229461228f8461211a565b611b25565b611a08565b9050919050565b6122a98161227e565b82525050565b60006040820190506122c460008301856122a0565b6122d16020830184611afb565b9392505050565b7f5374616b696e67436f6e74726163743a20496e76616c696420616d6f756e7400600082015250565b600061230e601f83611833565b9150612319826122d8565b602082019050919050565b6000602082019050818103600083015261233d81612301565b9050919050565b600061234f82611a08565b915061235a83611a08565b9250828201905062ffffff81111561237557612374612218565b5b92915050565b7f5374616b696e67436f6e74726163743a204e6f20746f6b656e207374616b6564600082015250565b60006123b1602083611833565b91506123bc8261237b565b602082019050919050565b600060208201905081810360008301526123e0816123a4565b9050919050565b60006123f2826119a5565b91506123fd836119a5565b925082820390508181111561241557612414612218565b5b92915050565b6000612426826119a5565b9150612431836119a5565b925082820261243f816119a5565b9150828204841483151761245657612455612218565b5b5092915050565b7f4f776e61626c653a206e6577206f776e657220697320746865207a65726f206160008201527f6464726573730000000000000000000000000000000000000000000000000000602082015250565b60006124b9602683611833565b91506124c48261245d565b604082019050919050565b600060208201905081810360008301526124e8816124ac565b9050919050565b7f4f776e61626c653a2063616c6c6572206973206e6f7420746865206f776e6572600082015250565b6000612525602083611833565b9150612530826124ef565b602082019050919050565b6000602082019050818103600083015261255481612518565b9050919050565b7f5265656e7472616e637947756172643a207265656e7472616e742063616c6c00600082015250565b6000612591601f83611833565b915061259c8261255b565b602082019050919050565b600060208201905081810360008301526125c081612584565b9050919050565b7f5374616b696e67436f6e74726163743a204e6f2072657761726473206561726e60008201527f6564000000000000000000000000000000000000000000000000000000000000602082015250565b6000612623602283611833565b915061262e826125c7565b604082019050919050565b6000602082019050818103600083015261265281612616565b9050919050565b600060408201905061266e6000830185611bc9565b61267b6020830184611b9f565b939250505056fea2646970667358221220e18be361033577562f2b62b14d74b90cbddf0cf8f2df9f6b4ee64ea00bd35a7364736f6c63430008120033",
  "linkReferences": {},
  "deployedLinkReferences": {}
}